S0290000626F6F746C6F616465722D73746F726167652D737069666C6173682D73696E676C652E73333748
S113000000100020C50100008101000071050000FE
S113001081010000810100008101000081010000D4
S113002081010000810100008C3500008101000085
S113003081010000D435000081010000810100002D
S113004081010000810100008101000081010000A4
S11300508101000081010000810100008101000094
S11300608101000081010000810100008101000084
S11300708101000081010000810100008101000074
S11300808101000081010000810100008101000064
S11300908101000081010000810100008101000054
S11300A08101000081010000810100008101000044
S11300B08101000081010000810100008101000034
S11300C08101000081010000810100008101000024
S11300D08101000081010000810100008101000014
S11300E08101000081010000810100008101000004
S11300F081010000810100008101000081010000F4
S113010081010000810100008101000081010000E3
S113011081010000810100008101000081010000D3
S113012081010000810100008101000081010000C3
S113013081010000810100008101000081010000B3
S113014010B5054C237833B9044B13B1044800E0CF
S113015000BF0123237010BD101000200000000018
S1130160EC38000008B5034B1BB10349034800E019
S113017000BF08BD0000000014100020EC3800008F
S1130180FEE70000054A064B06498B4200D3704740
S113019052F8040F43F8040BF7E700BFF4380000EB
S11301A008100020101000200021044B044A934240
S11301B000D3704743F8041BF9E700BF1010002078
S11301C03010002008B5084B83F30A88074B084A0F
S11301D0C3E9002200F00EF800F032FAFFF7D2FF74
S11301E0FFF7E2FF00F0C8F9000000200010002033
S11301F0A5EDF5FE044B054A9A60D3F8882042F435
S11302007002C3F88820704700ED00E00000000091
S1130210C0F30C032DE9F04105460F4616460BB911
S113022000F03EFB05F5005424F4FF5424F01F04B1
S113023005EB0608A04507D8324639462846BDE8EE
S1130240F041022300F03CBB204600F029FB04F5FA
S11302500054EFE770B428242468034626698642D4
S113026006D8646913449C4202D370BCFFF7D0BF24
S113027070BC704737B500F5004310F5004F0D46CC
S1130280144601931AD2019BB3F5FC2F16D2019B9D
S1130290C3F5FC23934211D340B928231B685A6940
S11302A0B2F5004F02D9186900F0FAFA224629463D
S11302B0019803B0BDE83040FFF7AABF03B030BDDA
S11302C0F0B5421ED31C85B018D86C4626460C4B9C
S11302D003F11007254618685968083303C5BB4263
S11302E02C46F7D104AB13F8010D12F8011F884214
S11302F004D1B342F7D1012005B0F0BD0020FBE7E3
S11303007C350000007C01288CBF00200120704750
S113031038B504460D46FFF7D3FF48B16369012B96
S113032009D12046FFF7EEFF08B1A3692B6038BD61
S11303302C600120FBE70020F9E70000F0B503681A
S11303409FB003F16043B3F5004F054633D828222C
S11303501268436816699E422DD8B3F5002F2AD837
S1130360446B06F14003A34267D8B4F5002F64D868
S11303702046FFF7A5FF00285FD02046FFF7C2FF05
S113038080B1636973B1022B0ED1A369C5F1040175
S113039019444FF0FF32284601F08CF9284BC31A58
S11303A0584258411FB0F0BD40F204632046029306
S11303B0FFF786FF08B90020F4E72046FFF7A2FF05
S11303C00028F8D034231F683846FFF779FF002847
S11303D0F1D0503EB742EED803A92046FFF798FF6C
S11303E00028E8D028221268039B12699A42E2D8B6
S11303F09D42E0D8B3F5002FDDD804A801F032FA0D
S1130400039A2946521B04A801F042FA04A801F0F9
S113041041FA039C01F042FA054601F043FA2B46E7
S1130420009004F12002214604A801F09FF90290F3
S11304300298B0FA80F04009B4E70120B2E700BFA7
S1130440E320BBDE70B54FF0FF3288B006460D46A0
S113045001F030F90E4B984217D140F2022000F01F
S1130460D0F91C22002101A803F074F8094B08AC50
S113047044F8203D3146204602F086F820462946BD
S113048002F082F8204602F089F8002008B070BD1E
S1130490E320BBDE0100064330B5054689B040F2D7
S11304A0022000F0AEF91C22002101A803F052F84A
S11304B0064B08AC44F8203D2946204602F064F877
S11304C0204602F06BF8002009B030BD0000034361
S11304D008B502F01BF9B0FA80F0400908BD4FF0EE
S11304E0FF3313B5044602A840F8043DFFF7F0FFBC
S11304F020B10198A0422CBF0020012002B010BD01
S11305004FF40040704701F04ABD01F0E7BE00001F
S113051037B50D46044600B3F9B1002303600B6000
S11305200268124B1343036001F06BFE013018BFE5
S1130530236802A81CBF43F4404323604FF0FF33F9
S113054040F8043D01F060FE019B43B92268024378
S113055022602B6843F480432B6003B030BD012B31
S113056002BF2B6803432B60F3E700BF1424004051
S11305704FF4017000F06AB92D4B13B51B68C3F337
S11305800743012B0ED14FF4802241F2640004246E
S1130590284B596E1A502848046048035CBF42F245
S11305A064015A504FF04023D3F88420110606D436
S11305B04FF400621A67D3F88420D206FBD4FFF705
S11305C0A2FF00F013F908B900F0FEF801F0F6FA02
S11305D0044658B900F00AF908B100F001F940F2F4
S11305E0012000F033F94FF4017018E000F0FEF838
S11305F008B900F0EFF800F00FF9012802D900F073
S1130600E3F8FEE700F012F90C4B0193019B002B79
S11306100ADC40F205439C42E5D140F2032000F09D
S113062015F9002002B010BD019B013BEDE700BFAE
S11306300080E00F008000402020014000350C00C5
S113064013B501244FF040238DF806408DF8074080
S1130650D3F894305B060FD500F00CF9A0F2022019
S113066080B2072808D8844014F0C90F1EBF0023A5
S11306708DF806308DF8073046F204031B68013309
S113068008D14FF4027000F0BCF800238DF8063056
S11306908DF807309DF8073063B14FF4C040FFF781
S11306A04DFE8DF806009DF806301BB94FF402701C
S11306B000F0A7F89DF806308BB100F097F808B168
S11306C000F08EF84FF4C043064A93601846016860
S11306D081F3088881F3098840688746FEE702B001
S11306E010BD00BF00ED00E0B1F5057F10B5044674
S11306F010D34FF40572002102F02CFF002304F5FF
S1130700CE72637004F5AA7104F12C00BDE81040A8
S113071000F059BB40F2052010BD13B5044600910A
S113072001462C3000F08EFBC4F8100218B141F2DF
S11307300703984209D1A3784BB140F2032040F259
S11307400223E278002A08BF184602B010BD40F226
S11307500120FAE72DE9F04387B002AF044688464A
S113076091460021102238461D460E9E02F0F2FEEC
S113077000211C223160284602F0ECFE4B46424622
S11307800097214604F12C0000F05CFB23789A07C3
S113079044BF636833602378DB0709D504F1080399
S11307A004F1240253F8041B934245F8041BF9D1C5
S11307B0237840F20640002B18BF002007B0BDE8A4
S11307C0F0834FF4057070474FF000534CF23C3205
S11307D05A8070474FF000534AF6C0325A8070472F
S11307E04FF000534FF20F025A8070474FF00053FE
S11307F04AF6C0305B8823F00F031B1A5842584155
S113080070474FF0005208B51080FFF7EFFF10B9A2
S11308104FF20F03538008BD08B5FFF7E7FF20B17F
S11308204FF00053987800F00F0008BD08B5FFF7AB
S1130830DDFF50B14FF00052538803F00F010F2930
S113084014BF013323F00F03538008BD08B5FFF72D
S1130850D8FFBFF34F8F0549054BCA6802F4E06225
S11308601343CB60BFF34F8F00BFFDE700ED00E003
S11308700400FA054FF000534FF20F015A888A42E0
S113088001D1188870473AB91B8840F20220012B25
S113089018BF4FF4007070474FF4007070470000A9
S11308A008B54FF4003141F26803044AD15001F015
S11308B0C9FDB0FA80F0400908BD00BF00800040C7
S11308C0072BF8B506460F4614461D4601D90020ED
S11308D0F8BD0121202001F00FFD0121212001F0AC
S11308E00BFD9CB144EA06039B07F0D141F2680377
S11308F04FF40031064A2846D15023463A46314641
S113090001F0CAFDB0FA80F04009E1E70120DFE719
S11309100080004010B5044600F0E0F8064BB0FB40
S1130920F3F003236043B0FBF3F018B1BDE81040CB
S113093001F0B6BF10BD00BF40420F0041F2640396
S11309404FF08061024AD1504FF48071D15070470A
S11309500080004010B5FFF7F1FF00230422194680
S1130960022001F001FD022200231046012101F0C2
S1130970FBFC022100230846042201F0F5FC0422BA
S113098001231146002001F0EFFC41F2040301228F
S1130990164CE25040F6AA63636100232361E364CA
S11309A042F24803124AE25040F20143A36041F28A
S11309B00503E36000F092F80E4B0138B0FBF3F04E
S11309C0102302220002E06163610B4BC3F834265A
S11309D002F58032C3F82C264FF00212C3F83026F9
S11309E01C22C3F81C260523636110BD00C005400A
S11309F0FFFF01000050C30000C0034008B5FFF72B
S1130A009DFFBDE808400146014801F033BF00BF27
S1130A1000C0054038B50546FFF790FF0C4CC0F305
S1130A200741204601F030FFC5F30721204601F0BD
S1130A302BFFE9B2204601F027FF204601F014FF06
S1130A40204601F011FF2046BDE8384001F00CBFFC
S1130A5000C0054008B5FFF771FFBDE80840FF215D
S1130A60014801F007BF00BF00C0054038B50B4D79
S1130A70FFF764FF2846FF2101F006FFFF21284607
S1130A8001F002FF284601F0EFFE000284B228467E
S1130A9001F0EAFE204380B238BD00BF00C005402B
S1130AA008B5FFF74BFF42F210031021014AD15061
S1130AB008BD00BF00C0034008B5FFF73FFF41F287
S1130AC010031021014AD15008BD00BF00C00340EB
S1130AD0002303604FF400107047000030B51F4B33
S1130AE087B001AA03F11005144618685968083341
S1130AF003C4AB422246F7D11B78194A2370136F03
S1130B0003F00703032B24D041F264034FF4802144
S1130B10D15002F500429368C3F30443102B1AD852
S1130B2006A90B4413F8140C0E4B0F4943438B4294
S1130B3006D191680122C1F301618A40B3FBF2F34B
S1130B40074A106FC0F303300130B3FBF0F007B075
S1130B5030BD064BF4E7064BF2E700BF2436000035
S1130B600080004040420F0000093D0000F04902AF
S1130B70C0EA2101002070470020704770B5D1E918
S1130B800152AA4205D290F840302B449B1A402BC4
S1130B9010D9002012E00A6890F84040D65C90F822
S1130BA041200133224402F03F02013486548B6019
S1130BB080F840408B689D42EDD8012070BD2DE93E
S1130BC0F8431746D1E90125521B90F840500446DA
S1130BD02A4493420E469DF820909DF8248057D9CC
S1130BE0FFF7CCFF00285DD1142341F2020084F802
S1130BF04630BDE8F88394F84120A25C7A5594F815
S1130C0041200135013202F03F0284F8412094F87A
S1130C104020013A84F8402094F8402012B1AB42BD
S1130C20E9D11D46D6E901128A4201D2AB4231D83C
S1130C30AB42D9D1D4F888202946384600F03AFD91
S1130C40C4F88800B9F1000F04D02A463946E06C94
S1130C5000F01EFEB8F1000F08D094F843302BB119
S1130C602B463A463946A06C00F06EFD94F84330AA
S1130C7043B1E36DA26D2B449342E36524BF00238B
S1130C8084F84330636D41F203001D446565B0E7A9
S1130C900025C1E731688A5C7A55B26801350132B2
S1130CA0B260BFE70020A4E77FB50023CDE900339D
S1130CB0082315460DEB03020446FFF780FF41F2BB
S1130CC003039842064626D194F8433063B10822C0
S1130CD0E06C0DEB020100F0DBFD08230DEB0302D9
S1130CE01146A06C00F030FD039A029B6A6094F8F0
S1130CF043202B605AB9094A934208D0084A9342C8
S1130D0005D00822E06C0DEB020100F0C1FD6B6818
S1130D10236500236365304604B070BDF70A0AF703
S1130D20FC0404FC2DE9F047054658680E461746B6
S1130D309846002842D08B0742D128231B68296E8D
S1130D401B6902EB010A1C1D54451CD81C33994233
S1130D5019D28C42204638BF08469A4594BFC0EB4E
S1130D600A0AC0EB030A411AC4F1680406EB01093C
S1130D70204452464946284402F0E1FB5246FF21F2
S1130D80484602F0E7FB48F204032A6E9A420BD865
S1130D9048F20701B818884206D99B1AF258C5F8D8
S1130DA080204FF0FF32F250D8E900343A46286EE2
S1130DB03146A04700202B6E1F442F66BDE8F08704
S1130DC041F20200FAE72DE9F04100254FF0FF3629
S1130DD004468846174603F0200380F8423080F822
S1130DE04650A0F8405080F8435080F8455080F8B1
S1130DF04450C0F88860C0E918551822FF216830B3
S1130E0002F0A8FBC4F88060C4F88460C4E91287C7
S1130E108822294604F1900002F09CFB40F2011361
S1130E20A4F82431012384F81851C4F81C51C4F8DF
S1130E30206184F8263117B1384600F013FD0020F4
S1130E40BDE8F0812DE9F04FA7B00393CDE913235A
S1130E50002304460E46309DDFF888931593159AB7
S1130E60039B9A4201D30020C9E094F84630142B26
S1130E70F6D8DFE813F06900B000AA005400390086
S1130E802E003002390028023900E201390028021C
S1130E906903DC03150076010F030F03A202DC03D0
S1130EA04FF00008636D0F2B00F29380012710238D
S1130EB016AACDF80480009713A92046FFF77FFEF9
S1130EC041F203030990099A9A4200F03C81099B7C
S1130ED046E00127D4E91432934200F2488184F8B1
S1130EE0467041F203033BE04FF0FF0BD4E91432A8
S1130EF093426ED9A3EB0208DDE914329B1A94F8ED
S1130F004020B8F1030F134440F2E981032B00F2AF
S1130F10048213A92046FFF731FE002320E00127B5
S1130F20636D072BDDD8082316AACDE9007713A932
S1130F302046FFF744FE41F203030C900C9A9A42B8
S1130F4000F090810C9B0BE016AA13A92046FFF732
S1130F50ABFE41F203020690069B934202D0069B2D
S1130F60059345E0179A1699226500226265924A14
S1130F70914240F08281022284F84620F0E7012366
S1130F8016AA00930197082313A92046FFF717FE1A
S1130F9041F203030790079A9A4201D0079BDFE7C7
S1130FA0169B03F07F43B3F1407F05D0142384F8EC
S1130FB0463041F20903D3E7179BD80706D594F8C6
S1130FC0423043F0010384F842300027636D072B5D
S1130FD0D5D901237CE116AA13A92046FFF764FEA4
S1130FE041F203030890089A9A420BD0089A05929A
S1130FF041F20303059A9A423FF431AF059827B0B2
S1131000BDE8F08F94F84410169B31B16B4A9342BB
S113101019D10D2384F846304BE094F84210C907E7
S11310204CD594F84310002940F0048364498B4262
S113103009D014D863498B4279D00AD85E4A9342C6
S113104001D04B4515D1142384F8463041F20102F6
S1131050CDE75D4A9342F6D05C4A9342F2E75C499D
S11310608B421BD010D85B498B4225D05A4A9342FD
S113107018D0142316A884F84630FFF77BFD002807
S1131080E4D141F20802B2E7544A9342DBD0544A15
S11310909342D8D0494A9342BBD0EAE70F2384F85D
S11310A04630A4E7102384F84630236DA36500235B
S11310B0E36541F203029AE71223F0E740498B42C9
S11310C028D000F2CB823F498B422CD000F2BC8264
S11310D04B451BD016A8FFF74DFD50B313231698AC
S11310E084F84630C4F88C00FFF746FD94F842308B
S11310F09A06DED50028DCD04368002BD9D02046E0
S113110098470890089B002BA0D1D2E70A2381E7D7
S113111005237FE706237DE70C237BE794F8433020
S1131120002B90D175E794F84330002B8BD1112319
S1131130B5E7142384F8463094F84330002BA0D04C
S113114041F2040253E7D4F848A000F0AFFB802337
S113115017AACDE9000302213B46504600F0C6FA27
S1131160A0E6012384F8433084F8463077E616AAD3
S1131170CDE9007713A92046FFF721FD41F20303CF
S11311800A900A9A9A4201D00A9BE9E60DF1580C9A
S113119006F108030DF1700E624603CA7245186029
S11311A05960944603F10803F6D110681860337847
S11311B043F0010333708DE6EB17A603FC0404FC33
S11311C0F60808F6F30B0BF3F40A0AF4F50909F52B
S11311D0FA0606FAF70A0AF7F90707F9FD0303FD09
S11311E0FE0101FEEB17A65E337843F0040333706F
S11311F0199BB36273785B071CD50020236DCDF86F
S11312005890C4F8843094F84530606643F0020383
S113121084F84530EF686FB12B68042216A9B847EB
S11312200822606E2B68EF6818A91044B847636EF3
S1131230103363660B2384F84630636D072B3FF647
S113124050AE012318AACDE9003313A90823204680
S1131250FFF7B5FC41F203030B900B9A9A42C3D0FB
S11312600B9B7DE63378179A43F002033370169B89
S11312707360236D083B73622AB1142384F84630EB
S113128041F201036CE6042384F8463094F84530B7
S1131290626643F0010384F8453041E6042316AA4C
S11312A0CDE9007713A92046FFF789FC41F2030337
S11312B00D900D9A9A4201D00D9B51E6236D042B9B
S11312C002D9169B23660127636D032BE6D90923F4
S11312D084F8463005E600236366072344E798450F
S11312E03FF617AE984528BF98460123B8F1030F7F
S11312F088BF28F003080DF1580ACDE9003352469F
S1131300434613A92046FFF75AFC41F203030E900B
S11313100E9A9A4207D00E9B22E6B8F1400F28BFDE
S11313204FF04008DEE794F84630072B0ED1AF6843
S113133067B12B6842465146606EB847636E4344BA
S11313406366D3E50AF808B008F10108B8F1030FA1
S1131350F8D9092B0BD12B46424651462046FFF7BC
S1131360E1FC0E900E9B002B3FF4C0ADD3E7042BA1
S113137018D173789F077FF5B9ADEB68002B3FF464
S1131380B5AD626E042A0BD808EB0203062B07D90D
S113139017AB9B1A1A68C4F884204FF0FF321A6006
S11313A0EF68C6E70B2B7FF4A1AD737858077FF580
S11313B09DADEF68002FBCD198E594F8427017F00A
S11313C0200707D0D4F88C00FFF7D6FB0746002887
S11313D03FF456AF4FF0010A42E04BB347B33B69C9
S11313E033B320469847DDE9143294F840809B1AC1
S11313F043448342FFF48DADD4E91421A2EB0108E8
S1131400B8F1400F28BF4FF04008984528BF9846D0
S113141016AA4346CDE900AA13A92046FFF7CFFB3D
S113142041F203030F900F9A9A4203D00F9B97E562
S11314300120D8E794F84230990611D5002F3FF4E3
S11314401FAFD7F808B0BBF1000F3FF419AF2B461C
S1131450424616A92046D8470F900F9B002BE5D192
S1131460D4E9142194F84230914203F02003B4D318
S1131470002B3FF4AEAD002F3FF4ABADFB68002B67
S11314803FF4A7AD2946204698470F900F9B002BA9
S1131490CCD19EE528223421126809681269503A99
S11314A091423FF6EDAE112B0FD194F81831002B79
S11314B07FF48FAD41F206031093109A9A4202D141
S11314C0142384F84630109B4AE594F84430002BEA
S11314D07FF47FADCDE9003316AA402313A920463B
S11314E0FFF76DFB41F203031090109A9A42EAD180
S11314F0E06C00F0CFF994F81831A3B104F1B4030F
S1131500E06C00931EAA04F1940316A900F02EF9CE
S11315101090109B9BB10023F370142384F8463081
S113152041F206031CE5E76C00F0B8F9804600F0D0
S1131530B9F9434600901EAA16A93846E6E70123E6
S1131540F37084F8443044E5002316AACDE900334F
S113155013A904232046FFF732FB41F20303119041
S1131560119A9A4202D0119B059347E5D4F888203A
S1131570474B9A4205D0142384F8463041F20503C0
S1131580F2E70123F37094F84530DA0707D5EF68E2
S11315902FB104222B6804F184011046B84794F853
S11315A045309B0707D5EF682FB104222B6804F15F
S11315B084011046B847236E93B3D5F80480B8F17C
S11315C0000F2DD04FF0FF3326AF47F8503D04F104
S11315D0800904224946384601F0A2FF28B12B684D
S11315E00422494648F20400C04704F16809042271
S11315F04946384601F094FF90B128231B68142211
S1131600D3F8108004F16C01D5E9003708F1080023
S1131610B847D5E900370422494608EB0200B84729
S11316200123B3700E2384F8463000239CE741F273
S11316300700E4E4174A93423FF46CAD0ED8164A0F
S113164093427FF443ADFEE4144A93423FF460AD09
S1131650134A93427FF43EAD0323DBE4114A9342E1
S11316603FF45CAD0AD8104A93427FF433AD94F84A
S11316704330002B7FF4E7AC1223CBE40B4A9342B4
S11316803FF44AAD0A4A93427FF424AD0823C1E4EF
S1131690E320BBDEF60808F6F30B0BF3F40A0AF4B6
S11316A0F50909F5FC0404FCF70A0AF7FD0303FD38
S11316B0FE0101FE30B541F264030825094C0144E2
S11316C0E55001240025084B5C609D601A611A46B0
S11316D0DC60884201D1586A30BD10F8014B1462B5
S11316E0F7E700BF0080004000800840F8B51D46C1
S11316F00F4641F268034FF400511646114A04465E
S1131700D150022302F59352136001F00AFEDDE981
S11317100612204601F009FE002384F83870636243
S113172032682B0CC4F839207268C4F83D20B268C2
S113173084F845302B0AC4F8412084F8463084F8F4
S11317404750F8BD0080004030B51D4685B000F11B
S11317502803CDE90112009300F1240200F13803BB
S1131760294601F034FE05B030BD00002DE9F041FA
S1131770B0B0369C064600286BD0002969D0002AF8
S113178067D0002B65D0002C63D006204FF400579F
S1131790069041F26800304D01F120082F500325D6
S11317A02E4820AF056000200D46BE4609900C90DF
S11317B00F90F446286869680835ACE8030045458D
S11317C0E646F6D10DF1A00C02F1200E6546106834
S11317D05168083203C57245AC46F7D10DF1400C8F
S11317E0654603F1200E2A4618685968083303C277
S11317F073451546F7D1234618AC03F1200522465C
S113180018685968083303C2AB421446F7D1402321
S11318100893CDE90A7320230AAA0E9303AB07CADF
S1131820CDF81CC00D9683E8070007AB93E80700CA
S11318308DE807000DAB0ECB094801F09DFB069027
S1131840069B40F20460002B08BF002030B0BDE8C6
S1131850F08140F20160F9E70080004060920040AE
S1131860C03800004FF4005141F26802074B10B534
S113187099500222044603F593531A6000F0BCF811
S11318802046BDE81040002100F0BAB800800040B6
S113189000F0BBB8014600F0C5B80000004870472E
S11318A04CE30700004870476CE3070000487047AA
S11318B086E207002DE9F7431446DDE90A820E4665
S11318C01F46002845D11CB9002003B0BDE8F083B1
S11318D013683F2B3BD85168204D11B1002F18BF1E
S11318E03D4603F03F00E318136022BF5368013301
S11318F0536080B3C0F140094C4522D331464A4677
S1131900404401F01CFE01234246009329463B4615
S11319100020A4EB090400F092F83F2C4E440DD9AA
S11319203D46A309009332463B462946002000F079
S113193086F824F03F031E4404F03F04002CC3D077
S1131940002022463146404401F0F9FDBCE73D4603
S1131950C7E70348B9E73F2CF3D9E2E7353600007F
S113196080AFFFFFF0B51D460C4617461A6887B0D6
S1131970D3008DF80F3053098DF80E30530B8DF8CA
S11319800D30530D8DF80C306B68CDE90075D9001E
S113199001EB52718DF80B1002F03F025909372AFE
S11319A08DF80A104FEA53314FEA535394BFC2F1F2
S11319B03802C2F178028DF809108DF808300D490B
S11319C023460646FFF776FF082223460DEB020165
S11319D0CDE900753046FFF76DFF23460C9A04F1FC
S11319E0200153F8040B8B4242F8040BF9D1002078
S11319F007B0F0BD553600006822002101F0AABDF1
S1131A000023C0E900331846704707B500F12803E6
S1131A100190009300F108030020FFF74BFF03B08F
S1131A205DF804FB07B50346009100F1280200F1BC
S1131A3008010020FFF796FF03B05DF804FBF0B542
S1131A401C4693B0002837D1189B06909B01CDE922
S1131A5004230AAA0B46154601F120071646186806
S1131A605968083303C6BB423246F7D100230795B1
S1131A70099301F039FD0646D8B92023089304AB35
S1131A8093E807008DE8070007AB0ECB042001F0B4
S1131A90DDFB074601F036FD8FB923462A4612AD19
S1131AA0144603CCAC4218605960224603F1080383
S1131AB0F6D1304613B0F0BD6FF07106F9E76FF060
S1131AC06F06F6E700234FF0FF32036001238B42D9
S1131AD001D30020704740F823200133F7E703685F
S1131AE040F204500133012B98BF0020704740F2AC
S1131AF0025070477047704710B5ADF50E7D4FF436
S1131B00057209A9002000F07DF940F201240021AA
S1131B1009A800F0ACF8A042F9D040F2032398429F
S1131B2004D040F205400DF50E7D10BD9DF8243023
S1131B3059070DD49DF824309A072CD4DB07F0D52F
S1131B400C998A9800F0D2F90028EAD00020EAE73C
S1131B501398FEF7C4FC0028ECD000F017FE164BD7
S1131B60044698420BD11C22002102A801F0F2FC89
S1131B7001A8019400F028FEB0F5403FD1D08A9826
S1131B8000F072F90028D5D04FF40040FEF784FC31
S1131B900028CFD1C5E7282212680A999268914299
S1131BA0CCD98A9800F07EF90028BAD012994FF463
S1131BB00040FEF747FCB4E700000343FFF79CBF77
S1131BC031B10A4B5A68824205D80023C1E9003377
S1131BD040F201407047013053F8302003EBC0035A
S1131BE05B680A604B600020704700BFB837000094
S1131BF001221A707047000070B40D4C0E46114655
S1131C00626882420DD9013004EBC0025268F518B3
S1131C1095420AD854F830001A46304470BC00F09B
S1131C2078BA40F2014070BC704740F20240FAE7D3
S1131C30B837000030B504460D46A3B002AAD0F868
S1131C400C128023D0F80402FFF7D6FF00958023FE
S1131C5002AA214604F12C00FFF7F4F8D4F80C3260
S1131C60C4F810028033C4F80C3223B030BD1FB561
S1131C700023CDE90033CDE90213D0F81032044635
S1131C80A3B9D0F80C22D0F808329A420ED2694691
S1131C90FFF7D0FFD4F8100298B141F2070240F2E6
S1131CA00123904208BF184604B010BDA3785BB16D
S1131CB040F2022040F20323E278002A18BF1846BB
S1131CC0F2E740F20120EFE740F20220ECE70000E7
S1131CD070B50D46002186B006AB03F8111D0293C2
S1131CE01E4B04461646116028461C22CDE90333D8
S1131CF0059301F02FFC9DF8072062B994F8723027
S1131D00132B08D0D4F810322BB9D4F80C12D4F811
S1131D10083299421AD32378990744BF6368336021
S1131D202378DB0709D504F1080304F1240153F8EF
S1131D30040B8B4245F8040BF9D162B9237840F2C5
S1131D400640002B18BF002006B070BD02A9204633
S1131D50FFF770FFCFE70020F6E700BFF11B00009C
S1131D6070B40D4C0E461146626882420DD90130A2
S1131D7004EBC0025268F51895420AD854F83000B2
S1131D801A46304470BC00F0E6B940F2014070BC21
S1131D90704740F20240FAE7B8370000074B5A6830
S1131DA0824207D9013003EBC002516853F8300076
S1131DB000F02CBA40F20140704700BFB837000071
S1131DC070B5064688B0C0B14FF4403200236C466B
S1131DD0C0E900230A4B06F114051A785B68027205
S1131DE0C360684600F01CF90FCC0FC594E80F00DF
S1131DF085E80F0006F11403336108B070BD00BF1D
S1131E00B837000037B50C46054611462046FEF7A4
S1131E106BFC48B969462846FFF7D2FE20B9019BFE
S1131E20C4F80452C4F8083203B030BD38B500F524
S1131E30CE7204460D46202300F5AA712C30FEF71D
S1131E40C2FFD4F810322BB9D4F80C22D4F80832DB
S1131E509A4203D3A07800B1E07838BD29462046E1
S1131E60FFF7E8FEEDE7000000B5ADF50B7D4FF49C
S1131E70057205A9FFF7C6FF78B904238DF815305C
S1131E80074BCDE90100039001A905A80493FFF7CE
S1131E90CDFF0DF50B7D5DF804FB0020F9E700BFD5
S1131EA075020000282300B51B68ADF50B7D9B6807
S1131EB08B4204D300200DF50B7D5DF804FB4FF439
S1131EC0057205A9FFF79EFF0028F3D102238DF8C0
S1131ED01530054BCDE90100039001A905A8049331
S1131EE0FFF7A4FFE7E700BF7502000000B5ADF5FA
S1131EF00B7D4FF4057205A9FFF784FF78B9012320
S1131F008DF81530074B0190CDE90230049001A9FA
S1131F1005A8FFF78BFF0DF50B7D5DF804FB002092
S1131F20F9E700BF5502000038B5FEF7B9FD9F2060
S1131F30FEF764FDFEF78EFD0546FEF797FD0446A9
S1131F40FEF7BAFD9D2D17D0C22D08D01F2D1AD132
S1131F5048F2014084420CBF0E20002009E042F602
S1131F6014039C4206D042F6160084420CBF0A2099
S1131F70002038BD0720FCE744F2130084420CBF64
S1131F8017200020F5E70020F3E708B5FEF788FDE9
S1131F900620FEF733FDBDE80840FEF78DBD08B509
S1131FA0FEF7D8FCFFF7A6FD42F21070FEF7B2FC74
S1131FB0FEF776FDAB20FEF721FDFEF77DFD47F22F
S1131FC03050FEF7A7FCFFF7AFFF88B10C38C0B262
S1131FD001280BD8FFF7D9FFFEF762FD0120FEF7B9
S1131FE00DFD0020FEF70AFDFEF766FD002001E06E
S1131FF040F2011008BD10B5FEF752FD0520FEF7B2
S1132000FDFCFEF727FD0446FEF756FD04F0010033
S113201010BD08B5FFF7EFFF0028FBD108BD000095
S113202070B588B00646FFF7F4FF20220021684609
S113203001F090FAFFF778FF0A281DD00AD8072884
S11320400FD035466C460FCC0FC594E80F0085E8D9
S11320500F000EE00E2812D01728F2D13446094D95
S113206001E03446084D0FCD0FC495E80F0084E815
S11320700F00304608B070BD3446044DF3E73446D3
S1132080034DF0E758370000983700007837000018
S11320903837000010B50446FFF7BBFF54B9FFF70B
S11320A043FF0138C0B2162896BF064B002053F8F0
S11320B0200010BD20780028F3D1FFF735FF2070F1
S11320C0EFE700BFDC36000038B5054610460C4685
S11320D0FFF7E0FFA04207D3A84205D32C44844273
S11320E08CBF0020012038BD0020FCE738B5054630
S11320F00C46FFF78EFFFFF748FFFEF7D1FC28469A
S1132100FEF77CFC2046FEF785FCBDE83840FEF770
S1132110D3BC70B514460D46002221460646FFF78F
S1132120D3FFA8B1FFF775FFFEF7BAFC0320FEF753
S113213065FC3046FEF76EFC2C44A54203D1FEF745
S1132140BBFC002070BDFEF785FC05F8010BF4E72D
S113215040F20240F6E72DE9F04114460F46002212
S113216021460646FFF7B0FF002847D0FFF751FF8E
S1132170FEF796FC0320FEF741FC3046FEF74AFCCE
S1132180254695B9FEF798FC16F0FF0F2AD026F0E5
S1132190FF0505F580753319AB4232BF2546AD1BEB
S11321A0ADB25CB92046BDE8F081FEF753FCFF28D0
S11321B005F1FF35E5D040F20340F4E7FFF729FFCE
S11321C0FFF7E3FEFEF76CFC0220FEF717FC304637
S11321D0FEF720FC07EB0508B8450AD1FEF76CFCB6
S11321E0641B2E44B4F5807F254628BF4FF48075C8
S11321F0D7E717F8010BFEF701FCEDE740F20240C8
S1132200D1E74FF0FF307047FEF762BC00232DE9A1
S1132210F74302AE06F8013D054630460C46FFF78B
S113222039FF9DF807308146A3F10F02032A2BD909
S1132230133BDBB2012B47F6FF734FF6FF778EBFDC
S11322404FF480381F464FF4004840F6FF7344EAC9
S113225005021A423CD1324621462846FFF734FF94
S1132260C8B30DB9A14515D025442E1BECB1374296
S11322701FD1444524D22644311BB4B12020FFF79A
S113228035FFA4F58054F7E74FF6FF774FF4803815
S11322903B46DCE7FFF7BDFEFFF777FEFEF700FCE9
S11322A0C720FEF7ABFBFEF707FC002003B0BDE838
S11322B0F08331462020FFF719FFA4F58054D4E7BA
S11322C03146D820FFF712FF4644A4EB0804D0E7B8
S11322D040F20440EAE740F20240E7E708B5FFF7BE
S11322E098FEFEF7DDFBB920FEF788FBFEF7E4FB62
S11322F0FFF701FC002008BD430910B507D0012BEE
S11323000FD00A4C0A4A022B14BF2346134600F08E
S11323101F0041B103F58053012202FA00F0186056
S113232010BD044BF3E703F50053F5E7608200406A
S11323306880004064800040EFF3108072B67047FC
S113234000B962B6704770B5054614460E46FFF7ED
S1132350F3FF2A68544004EA060151402960BDE8AD
S11323607040FFF7EDBF0000F8B504460D461E4669
S113237017464AB1012230238A401A4903FB00134D
S1132380FEB141F210015A5004EB4403072D4FEA09
S1132390031319D80F20A90007FA01F200FA01F17A
S11323A011481844FFF7CFFF57B9012303FA05F585
S11323B030230C4A03FB04248EB141F21003E55090
S11323C0F8BD42F21001DEE70F2005F18041083923
S11323D0890007FA01F200FA01F10448E1E742F248
S11323E01003ECE700C0034004C003400CC00340EA
S11323F0F0B5114A114C124E00F00105E3695F0774
S113240013D40DB9334213D103EA00078F4207D125
S11324100B4A1A40002A14BF6FF001000020F0BDDF
S1132420013AEBD16FF00200F9E74FF0FF30F6E725
S11324306FF00100F3E700BF8096980000000340AE
S11324400200010038B54FF4003141F26803104A2C
S1132450104CD15041F67133E5690122E36341F236
S11324600C03E2500223606100212361212005F462
S11324708035FFF7BDFF18B901462120FFF7B8FFEB
S113248042F20C030122E2500DB10023E36338BD94
S113249000800040000003402DE9F04F4FF0010C94
S11324A041F204044FF440262F4D4FF4003E45F80A
S11324B004C02E4C2E4F44F820603026002406FB26
S11324C00056F4653466346741F2680447F804E062
S11324D041F67137274C0CFA00F0D4F81CE0E7639E
S11324E0E768DFF8988047EA0C07AC46DFF890907D
S11324F0DFF890A0E7604BB9E2681EF4803F22F059
S11325000102E26000D0E36318462AE001F50055B9
S113251025F4FF5525F01F056D1A9D4228BF1D4661
S11325206161D4F81CB0AF081BF0040F17D1013F50
S11325303F0147F0605777660F4FB266F766C8F8F9
S11325400000DCF834703842FBD00427C9F80000DE
S11325502944CAF800002A4427615B1BCBE74FF0EB
S1132560FF30BDE8F08F00BF00000440004004408D
S11325700080004000000340180003402410044081
S11325803420044028100440C369032B9FBF00EB90
S113259083020133D160C36170470000C3692DE930
S11325A0F041042B044666D8FFF7C6FE4FF4803191
S11325B041F26403314A3248556E324ED150324BA7
S11325C0C0F80036C0F80466E8035CBF42F2640059
S11325D0115000212D4A2E4D1A6022685A60E2697A
S11325E004F10C03914221D10E460027606818BB08
S11325F03C463246244844EA0161816003684168EC
S113260092004B40816850194B40214981422ED1A0
S1132610AB50BFF34F8F1F491F4BCA6802F4E062EF
S11326201343CB60BFF34F8F00BFFDE753F8040B98
S113263045F821000131D5E70023D0F800E005EB8F
S11326408608D0F808C0DC19CCF3990C634503EB79
S1132650060206D34368012BCCD0406827461646B1
S1132660C5E75EF8232048F823200133E9E751F851
S1132670044B6340CAE7BDE8F08100BF008000401E
S113268000C00740004E00A0004C00A0DEC0ECE5F6
S11326900C4C00A000ED00E00400FA0541F26403D4
S11326A04FF48030164A10B5546ED050154BD3F801
S11326B0043603F1C041A1F58041B1F5606F01D941
S11326C0002010BDE1035CBF42F264015050196860
S11326D00D4A9142F4D11A690532B2F5007FEFD266
S11326E000210C46914205D353F82200031B5842A3
S11326F05841E6E753F8210001314440F2E700BFB6
S11327000080004000C00740DEC0ECE538B50F4B48
S11327104FF48032596E044641F26400C90358BF35
S113272042F264011A500A48D0F8045658BF5A506D
S113273034B1FFF7B3FF30B100206B68236038BDBC
S11327404FF4E020FBE74FF47E00F8E70080004000
S113275000C007400B4B4FF48032596E41F26400C5
S1132760C90358BF42F2640110B51A500648D0F8A4
S1132770044658BF5A50FFF791FF10B1A068C0F348
S1132780C05010BD0080004000C007400C4B4FF407
S11327908032596E41F26400C90358BF42F26401A9
S11327A010B51A500748D0F8044658BF5A50FFF7DE
S11327B0D1FF08B1E06810BD4FF47E00FBE700BF15
S11327C00080004000C00740F8B5254B4FF480322C
S11327D0596E41F26404C90358BF42F264011A51AC
S11327E0204CD4F8045658BF5A508468FFF7B2FFFF
S11327F060B32A6905F1140151F82230DB4341F832
S11328002230A86810F4702011D0A86800F4702059
S1132810F8BD00232768A56801EB800CC5F3990572
S1132820AB4200EB03060DD0964205D3304684B18B
S11328309042EED30020EBE75CF8236047F8236076
S11328400133EDE7646824F00104EFE74FF47E0000
S1132850DEE7904234BF4FF4E0200020D8E700BF09
S11328600080004000C0074083691B06FCD5406A15
S1132870C0B2704783695A06FCD5C16383699B065D
S1132880FCD5406AC0B2704783695B06FCD5C1635E
S1132890704700000000000000000000000000007D
S11328A0013800D0FCE7704713B5044622B1002478
S11328B0009400F05FF90446204602B010BD000009
S11328C030B519B10139B1F5806F10D2094DEC68FA
S11328D014F48034FBD143F0004303432046120731
S11328E002F08052134343EA0121696030BD0120A4
S11328F0FCE700BF0020024CF0B58DB005AC84E8C5
S11329000700069D1E469D4228BF1D46129815B31A
S11329100BB3002700F5181000F241104402CDE972
S11329200A37631B09930CAB43F8185D029593E8CF
S113293003008DE803000CAA059B12E9070000F0D0
S11329409FFCAE4207D93946721BA01B0DB0BDE8EF
S1132950F04000F093BC0DB0F0BD30B51D4691B011
S113296001AC84E80700039B0146DA0049BF029AE0
S11329706A00033222F0030204A8FFF795FF04A8BB
S113298000F00EF914992A4601F5181101F24111CB
S11329904C02611B002308A8FFF786FF04F50071B1
S11329A000232A46491B0CA8FFF77EFF0CA800F061
S11329B0F7F808A904A800F0CDF811B030BD10B59F
S11329C08CB005AC84E807000E9A029302F5181245
S11329D002F5A0725202CDE90923002206AB93E866
S11329E003008DE803000B920CAA059B12E9070073
S11329F000F046FC0CB010BD0122054B9A60DA6869
S1132A00D203FCD4D86820F00F000004000C7047F7
S1132A100020024C2DE9F04B4FF000088AB003ACC3
S1132A2084E8070081461C464646059F07AD07F02B
S1132A30805B049B434502D80AB0BDE8F08B139B2E
S1132A4013B9B31E012B0AD9129BCDE90794099738
S1132A5000965BB195E807002346FFF74DFFBBF1F5
S1132A60000F00D1A1440136A044E2E7234695E8D3
S1132A700700FFF7A4FFF2E782B01FB504AC04E936
S1132A8007000A9A029907938A4228BF0A46039BC1
S1132A900798D90044BF033222F0030222F07041A8
S1132AA00D4A03F0E0431060099A0C4802F0E0423A
S1132AB042F000520A430260002243F00053019C9A
S1132AC00B430749426084600B60064B1A6004B0F4
S1132AD0BDE8104002B070470000024C0800024CF0
S1132AE01800024C3400024C3F22044B1A6010229E
S1132AF043F8142C03229A60704700BF3000024C44
S1132B00024A13689B07FCD4704700BF3C00024C88
S1132B10034B1B6813F0240F14BF042000207047DC
S1132B202800024C08B5FFF7F3FF084B1B6823F499
S1132B307F4323F0EF03002B14BF0423002303433C
S1132B401EBF0122024B1A6008BD00BF3C00024CAC
S1132B50FCFFFF3F032208B5054B186019615A6357
S1132B60FFF7C2FFFFF7CCFFBDE80840FFF7DABF6D
S1132B700000024C10B522F0704200F11004C0E9CC
S1132B800014826041B1826803F070431343836090
S1132B90029BC360204610BD836843F08043F6E780
S1132BA001234360C36843F02003C360836843F098
S1132BB0005383607047C36803F00F03042B0ED8DF
S1132BC0012202FA03F313F01A0F08D0C36801F0CC
S1132BD01F0143EA0123C36083681944816070477D
S1132BE0426810B5182A034609D0202A1BD0102A9F
S1132BF028D1154A1268D40109D4012012E0124ADE
S1132C0012689001F9D50A6842F008020A600F4878
S1132C101A6882424FF000000DD10A6842F0400267
S1132C200A60586010BD084A12685201E5D50A6866
S1132C3042F00402EAE7064CA242F3D10A6842F0E9
S1132C408002EDE70720EDE70404024C2D1000207C
S1132C502C10002007B50B4607490968C90708D599
S1132C60002100920246084600F01EF903B05DF808
S1132C7004FB0120FAE700BF0404024C07B50B462D
S1132C8007490968C90708D50092012102460020B6
S1132C9000F00AF903B05DF804FB0120FAE700BF75
S1132CA00404024C1FB5094C246864070CD5CDE913
S1132CB000120021069C0222CDE902340346084694
S1132CC000F01CF904B010BD0120FBE70404024C21
S1132CD037B515464A6804463AB18C6800930968CA
S1132CE045EA0403FFF746FF0446204603B030BD1F
S1132CF02DE9F04FD5B0CDE903230590002304203E
S1132D000DF1140CCDE9070307C909AB83E80700EB
S1132D10614618465F9D619F629E639CCDF818C012
S1132D20FFF75EFF0190002840F0B9805E9A0CAB7B
S1132D3007CA83E80700494201F00F080021609B9D
S1132D407A685B684FF0100913445B4203F00F0B81
S1132D5073680F915B420293AB681491DA0048BF29
S1132D606B684A4642BF033323F003036B60A368D6
S1132D70DB0041BF6368033323F003036360609B9C
S1132D80D7F804A05B68009353445B44CDE9103149
S1132D906B685B4203F00F03CDE9121363685B4277
S1132DA003F00F03CDE9151318AB1846179100F083
S1132DB0D1FB5E9A52685AB972684AB9009A3AB914
S1132DC0BAF1000F04D1C846CDE90C09CDF838A0FA
S1132DD011234FF0005206A934A8FFF779FF40F6FB
S1132DE011034FF0005209A9FFF772FF42F61103D5
S1132DF04FF000520499FFF76BFF44F611034FF0B4
S1132E0000520399FFF764FF412300226099FFF702
S1132E105FFF4FEA0B2343F041034FF00052394662
S1132E20FFF756FF4FEA082343F001034FF0005227
S1132E300CA9FFF74DFF029B4FF000521B0203F455
S1132E40706343F001033146FFF742FF1038FFF788
S1132E50A7FE00230FA91A461CA8FFF739FF002379
S1132E6029461A46FFF734FF002312A91A46FFF732
S1132E702FFF002321461A46FFF72AFF002315A936
S1132E801A46FFF725FF002364991A46FFF720FF2F
S1132E901038FFF785FE1CA934A8FFF75BFE0198E4
S1132EA055B0BDE8F08F0000F0B517465A688DB0F4
S1132EB01C461307129D1AD1CAB16B689A4216D1E7
S1132EC00C4B0D4A53F8216009AB07CA83E807008D
S1132ED0CDE90533CDE90333CDE9015300941A4616
S1132EE0394646F48070FFF703FF0DB0F0BD0720AC
S1132EF0FBE700BFF8370000C83700002DE9F041B8
S1132F008CB0DDE9126770689E46DDE9143C040765
S1132F1027D130B37C68A04223D15868102820D12F
S1132F20DCF8040010281CD10F4809AC50F82180AB
S1132F300E4951F822500E4A07CA84E8070045F0AA
S1132F403000CDE9054CCDE90344CDE90174009688
S1132F502246714640EA0800FFF7CAFE0CB0BDE8FD
S1132F60F0810720FAE700BFF8370000D4370000EB
S1132F70C83700000069704770B586B003AD0646D7
S1132F8085E80E00FFF7F6FF202804463BD8726858
S1132F9000EB80039A4203D0062343439A4234D180
S1132FA00B9BB3EB440F30D10E9A93422DD1F368AF
S1132FB0012221463120FFF783FC10BB96E807006D
S1132FC00123CDE900332346FFF724FD08230AAA91
S1132FD0009307CA2346FFF7C0FC0C23009395E82F
S1132FE007002346FFF788FC0A230DAA009307CAAB
S1132FF02346FFF7B2FCFFF7FFFC002814BF0320B1
S1133000002006B070BD0120FBE70720F9E70000AF
S11330100138C0B206289ABF014B185C00207047E3
S1133020D43800000138C0B206289ABF014B185C9E
S113303000207047DB3800000138C0B206289ABF70
S1133040014B185C00207047E23800002DE9F04F76
S1133050BBB0814603A880E80E007A4B9DF810A10E
S11330601B68DC0603D401203BB0BDE8F08F09F1F6
S1133070FF33DDE90357DDF81480062B00F2E0800E
S1133080DFE803F0041A20262C3238006E4B1B684C
S1133090D807E8D5012307930023BAF1010FCDE93E
S11330A008332DD0BAF1020F00F093804846FFF7A1
S11330B0C3FF6324064630E0634B1B689907D2D5EF
S11330C00223E8E7604B1B685A07CCD50423E2E7E8
S11330D05D4B1B681B07C6D50823DCE75A4B1B68EE
S11330E0DE06C0D51023D6E7574B1B689C06BAD51D
S11330F02023D0E7544B1B685806B4D54023CAE7B5
S1133100514B1B68D903AED5079B484643F4C063B3
S11331100793FFF77DFF032406461323042200933D
S113312007A94FF0005312A8FFF724FD48F00053FD
S1133130009429463A46FFF71DFD4FF00C0B054657
S11331400024DDF81481469B0BFB038BD8455ED12C
S1133150BAF1030F0BD14846FFF76EFF024648460B
S1133160FFF760FFBA426BD10138204268D1002CCE
S11331705ED10323224600932846234608A9FFF77D
S1133180F9FC04240546103D2846FFF709FD2146B5
S11331902846FFF710FD489AB24228BF324614462B
S11331A0002A4BD00023479900930AA8499BFFF7B4
S11331B0E1FC321B04D0002300931946FFF7DAFC2C
S11331C01038FFF7EDFC12A80AA9FFF7C3FC002092
S11331D04AE71D4B1A68D2037FF545AF1B689B0372
S11331E07FF541AF77B17C4204F00304079B484666
S11331F043F4E0630793FFF70BFF240244F0A304B6
S113320006468AE7B846042708AD3C46EEE7D8F8F8
S1133210042014444AB1032300932846D8F8083004
S1133220D8F80010FFF7A6FC054608F10C088DE756
S113323014F0030418BFC4F10404A4E70AA8B8E70F
S1133240072011E70004024C0C04024C70B58AB04C
S113325007AC84E80E0003AD064694E8070085E851
S11332600B00012302930EAB01930323009394E814
S11332700E003046FFF7EAFE0AB070BD00F06AB9EE
S113328082B02DE9F0418AB005AD85E807001193BD
S1133290079B149C5B0036D4DDF81880139B4445CF
S11332A028BF444613F08053129A02D1944228BF97
S11332B0144644B30F2C14D9029412AB93E80300C0
S11332C08DE80300119B95E80700FFF7D5FBFFF796
S11332D00BFCFFF715FC0AB0BDE8F04102B0FFF7A4
S11332E021BC059E119F9BB10025A8EB0502042A71
S11332F03B6828BF0422701909A90435099300F01A
S11333001EF9AC42F1D80AB0BDE8F04102B07047F2
S11333102246394630460AB0BDE8F04102B000F01A
S11333200EB92422002100F015B938B514460D4613
S11333302422002100F00EF924F04002802A0346E2
S113334002D0B4F5807F08D11846E20840F8044B57
S1133350294600F0F4F8002038BD6FF01F00FBE7A9
S113336030B504680D4624F0400180298BB002D0AA
S1133370B4F5807F25D1043001900020CDE903020B
S11333801022E4080294CDE90520CDE90732099022
S113339000F0AAF8044670B9012D07AA04A901A8EF
S11333A00CD1FFF757FC054600F0ACF860B9002DCE
S11333B018BF6FF06F0420460BB030BDFFF75EFC02
S11333C0F1E76FF07104F6E76FF06F04F3E72DE9AE
S11333D0F04F824691B088469946164612B3156856
S11333E0DAF8003023F04002802A02D0B3F5807F5F
S11333F071D1DB08002405931023CDE908341B9B0D
S1133400CDE906490AF104024344049202930DF102
S11334101C0B444508D3002E63D00020356011B046
S1133420BDE8F08F1546DBE75DB11B9B1A9A1B5D67
S1133430525D013553401C9A05F00F0513550134B4
S1133440E7E7A8EB04070F2F1ED91B9B27F00F07F4
S11334502344CDE90A371C9B0C952344CDE90D3751
S11334600F9500F041F80028D9D1CDF800B05B46A3
S11334700DAA0AA904A8FFF715FC039000F042F86E
S113348060BB039B53BB3C441B9B1F191C9B1C44EC
S1133490029BBB4201D14446BBE78DB91A9B4A4605
S11334A001215046FFF75CFF0028B8D109F1100252
S11334B012F8013D0133DBB213700BB99145F7D11A
S11334C01A9A17F8013B525D0135534004F8013B49
S11334D005F00F05DCE76FF07100A0E76FF06F00F7
S11334E09DE730469BE7000041F268024FF400512B
S11334F0034B00209950032203F593531A6070473D
S11335000080004042F268024FF40051034B002057
S1133510995042F260220321995070470080004084
S113352030B50024A24201D1002007E0035D01343C
S11335300D1915F8015CAB42F4D0581B30BD431E85
S11335400A4410B5914200D110BD11F8014B03F8A3
S1133550014FF7E702440346934200D1704703F852
S1133560011BF9E7F8B500BFF8BC08BC9E467047DC
S1133570F8B500BFF8BC08BC9E467047B814B6F155
S1133580E0CFF3ADB7DD25C9FA79B71307B0CD5E47
S11335900200000000000102043900000060000085
S11335A000000800F0040100070500000B050000FE
S11335B03D030000E90600001B07000098360000E8
S11335C055070000C30700000000000011050000BB
S11335D00105000013B779FAC925DDB7ADF3CFE0D3
S11335E0F1B614B801020000000000000039000028
S11335F04000000000000102000000000000000084
S113360000000000000000000000000000000000B6
S113361000000000000000000000000000000000A6
S1133620000000000400000700000D1013001A2021
S113363026303840506A09E667BB67AE853C6EF3B6
S113364072A54FF53A510E527F9B05688C1F83D9A2
S1133650AB5BE0CD1980000000000000000000001A
S11336600000000000000000000000000000000056
S11336700000000000000000000000000000000046
S11336800000000000000000000000000000000036
S1133690000000000000000000010000C11D000047
S11336A0C11B0000F91B0000611D00009D1D0000EE
S11336B0DF1A0000C51A0000EF1A0000051E000002
S11336C06F1C0000D11C0000F71F00001321000034
S11336D0572100000D22000003220000000010000A
S11336E000000400000010000000040000000800B6
S11336F00000100000001000000020000000200066
S113370000004000000080000000080000001000DD
S11337100000080000000400000008000000100081
S113372000002000008000000000010000000200F2
S11337300000040000000800010203009A010000D8
S1133740003000000010000000000800000000002D
S11337500100000000020000010203009A010000C1
S1133760000C000000100000000008000000000031
S11337700100000001000000010203009A010000A2
S113378000E0010000100000000040000000000004
S11337900100000000200000010203009A01000063
S11337A0007800000010000000001000000000007D
S11337B00100000000000100000000000100000002
S11337C000000000000008000000000000000000ED
S11337D0000000400001000000020000000400009E
S11337E0000800000010000000200000004000005D
S11337F00080000000000100000000000100000043
S1133800FFFFFFFF000000010000000000000000B7
S113381000000000FFFFFFFFFFFFFFFFFFFFFFFFB0
S1133820FFFFFFFF00000000FFFFFFFFFFFFFFFFA0
S1133830BCE6FAADA7179E84F3B9CAC2FC6325514E
S11338406B17D1F2E12C4247F8BCE6E563A440F2E1
S113385077037D812DEB33A0F4A13945D898C29626
S11338604FE342E2FE1A7F9B8EE7EB4A7C0F9E16E3
S11338702BCE33576B315ECECBB6406837BF51F594
S1133880FFFFFFFF00000001000000000000000037
S113389000000000FFFFFFFFFFFFFFFFFFFFFFFC33
S11338A05AC635D8AA3A93E7B3EBBD55769886BC89
S11338B0651D06B0CC53B0F63BCE3C3E27D2604BE0
S11338C000380000C00000000000000000001000EC
S11338D02000000010141C20304020404040408054
S10F38E080401014202040402000000014
S10F38ECF8380000081000200200000062
S10B38F865010000410100001C
S90301C536
