S019000062745F616F615F6E63705F6C6F6361746F722E73333782
S214006000C00A0020696F0000656F0000656F000021
S21400601021A90000656F0000656F0000656F000035
S214006020656F0000656F0000656F0000656F00001B
S214006030656F0000EC7903004D620000656F00009C
S214006040656F0000656F0000656F0000AD740000AE
S214006050656F0000656F0000656F0000656F0000EB
S214006060656F0000656F0000656F0000656F0000DB
S2140060707DB80000656F0000656F00004564000095
S214006080656F0000656F0000656F0000656F0000BB
S214006090656F0000B57A0000656F0000656F000050
S2140060A0656F0000D97B0000B57B0000656F0000BF
S2140060B0656F0000A9670300656F00008971030023
S2140060C0417103003D710300796903008571030087
S2140060D0457103005D71030049710300E971030017
S2140060E0594C0300214E0300C9710300656F000080
S2140060F0ADA70000656F0000656F0000656F0000CB
S214006100656F0000656F0000656F0000656F00003A
S214006110656F0000656F0000656F0000656F00002A
S214006120656F0000656F0000656F0000656F00001A
S214006130656F0000656F0000656F0000656F00000A
S21400614010B5054C237833B9044B13B1044800E06E
S21400615000BF0123237010BDB40F00200000000014
S214006160E8CB030008B5034B1BB10349034800E026
S21400617000BF08BD00000000B80F0020E8CB0300F9
S214006180154B002B08BF134B9D46A3F5803A002104
S2140061908B460F461348144A121A31F020FB0F4B59
S2140061A0002B00D098470E4B002B00D098470020BD
S2140061B0002104000D000D48002802D00C4800E025
S2140061C000BF31F0A5FA2000290000F033F831F0C6
S2140061D08BFA00BF00000800C00A00200000000084
S2140061E000000000B40F00206846002000000000F9
S2140061F0000000007047704738B543780446012B0E
S21400620005D0022B0AD000220120114602E0421CD3
S21400621001780020BDE8384000F0E6B9451C01785A
S2140062202A46002000F0E0F929462078BDE83840EC
S21400623000F0DDB908B505F03EFBFFF7DBFF05F023
S21400624047FBFFF7D8FF04F0D5FCF8E709F04CBB96
S21400625005F088BB00B5C3B009F05AFA09F083FA16
S21400626048B100F0FBF930B101A821F0D4FA10B91A
S21400627001A800F0BFF943B05DF804FB00F075BD5F
S21400628008B50321802003F06DF803214FF48060E9
S21400629003F068F803214FF4906003F063F80821D8
S2140062A04FF4C06003F05EF808214FF4F06003F08E
S2140062B059F808213E2003F055F808212D2003F058
S2140062C051F8002008BD0000194B10B51B68C3F339
S2140062D00743012B10D1174B4FF48022596E41F221
S2140062E0640049034FF0040458BF42F264011A5098
S2140062F01148046058BF5A5004F070F900F049FD88
S21400630004F0F8F804F088F904F016F904F04AF9F5
S21400631004F04EF9FFF7B4FF04F0FCF800F02EFD91
S21400632001F08EF801F06AFCBDE8104004F070BB86
S2140063300080E00F008000502020015008B501F0DA
S21400634043F901F00DFC00F089F8BDE8084000F0C4
S21400635055BD08B500F007FD04F0B6FF04F05EF981
S21400636007F08DFE04F038FA06F04CFBBDE8084056
S21400637008F08EB808B504F0B5F804F0A3F8BDE848
S2140063800840FFF765BF08B500F06CFABDE80840A6
S21400639000F0B0B8704700F0A5BCFFF75BBF00F098
S2140063A0B9B8012070470120704710B509F01CFAF3
S2140063B0044600F0BBF9002808BF002400F0C2FC29
S2140063C0002808BF0024FFF7ECFF002814BF204673
S2140063D0002010BD38B504F017FD044609F012FA87
S2140063E0042825D002284FF0000508BF012400F03D
S2140063F0B5F904281ED0022808BF012400F098FC36
S214006400042819D0022808BF012402F083FA0428C1
S21400641014D0022808BF0124FFF7C5FF04280FD0B8
S214006420022808BF0124002D18BF0024204638BDCE
S2140064300125DCE70125E1E70125E6E70125EBE795
S2140064400024F3E700F0CCBA18B1034B1860002024
S21400645070472520704700BFD00F002010B5054CB0
S2140064600549206802F016F92068BDE81040FFF7DD
S214006470EBBF00BFE40A0020C00A0020014B1868EA
S214006480704700BFD00F002038B503F0F0F8084C76
S21400649005462046002130F8022B31F0A0F90023F3
S2140064A02846238084F80631BDE8384003F0E5B876
S2140064B0D60F002038B503F0DAF8084C05464FF43E
S2140064C08272A01C002131F08AF90023284623801E
S2140064D084F80631BDE8384003F0CFB81411002028
S2140064E0002208B511464A201FF000FDBDE808400E
S2140064F0FFF7CABF08B5FFF7C7FFFFF7DBFF00F0DF
S21400650005FA0022014B1A7008BD00BFD40F002008
S214006510012070472F4970B591F806312E4C6BB3A9
S2140065202E4E327852BB94F806313BBBD1F80200AF
S21400653081F806312A4A20F47F4323F0070393426A
S21400654039D002F1807293423FD002F17E429342EC
S21400655026D0063120F0A2F920F01EF90546FFF7F6
S21400656093FF01232A683370130203F4E063C2F337
S214006570072213432946181D00F0AEF994F8063199
S21400658033B3164B1A781ABB84F8062101222088EA
S21400659014491A7000F0A0F9BDE87040FFF78ABFF2
S2140065A08A791AB1881DFFF727FED5E71146012024
S2140065B01FF0ECFFD0E78B791BB1881D00F0D6F8F2
S2140065C0CAE701201FF0F4FFC6E700F0C5FDC3E7E9
S2140065D070BD00BFD60F002014110020D40F00207D
S2140065E02000FF011611002080B21FF0CFBF1FF061
S2140065F0D7BF0000F8B50646006820F47F4020F0BC
S214006600070000F017F928BB3046FFF781FF08B3F4
S2140066103368114D1C0204F4E064C3F307231C43E3
S21400662003F025F8074628880434C0F582739C4298
S2140066300BD8023022463146284431F0ACF82B887D
S2140066401C4401232C8085F806313846BDE8F84006
S21400665003F013B8F8BD00BF14110020084A1388D1
S214006660C3F58273984208D892F806312BB9054BC9
S21400667093F8060180F0010070470020704700BFC5
S21400668014110020D60F00200022014B1A7070470C
S214006690D40F00202DE9F3419046044600B1FEE7F2
S2140066A08DB202F0E4FF1E4F064638882A46C0F533
S2140066B082739D4219D802304146384431F06BF857
S2140066C03B882B449BB2032B3B8018D9D7F802108B
S2140066D001240A0202F4E062C1F307210A430432ED
S2140066E09A4202D887F806410224304602F0C5FFD7
S2140066F0022C06D10B4800F031FA70B1FEE70124F7
S214006700F3E7012C09D10023074A00934FF4FA71EE
S214006710044800F03DFA00B1FEE702B0BDE8F081A3
S214006720D60F0020E0100020E1640000084B93F82C
S214006730060150B9074B93F806311BB9064B18787B
S21400674080F0010000F0010070470020FAE700BF6B
S214006750D60F002014110020D40F002008B5FFF734
S214006760E5FF00280CBF0420012008BDF8B54278DC
S2140067700378012A19D006D3022A24D00120BDE8C6
S214006780F8401FF015BF052BF8D1284A1378082BC0
S21400679047D00021D0F802402548CDB2AB421DD8E4
S2140067A040F823400133137030E0052BE6D11F4C30
S2140067B02378C3B30021D0F802501D48CAB29342D2
S2140067C015D82D20DBE7012BD8D120220021184830
S2140067D031F005F80020154B1870D0E7013100EBBA
S2140067E0810555F8045CAC42D7D12E20C7E70E468B
S2140067F0013100EB810757F8047CBD42DED1002151
S214006800013B40F8261023709A4201DB0020B6E7D1
S214006810541C50F8245040F8225040F82410E2B29D
S214006820F2E71C20ABE71B20A9E700BF3C120020C4
S2140068301C12002010B5094B094C19780023DAB257
S214006840914201D8002010BD013304EB830252F8B8
S214006850042C9042F3D10120F5E700BF3C12002043
S2140068601C12002038B54FF482720021134830F015
S214006870B6FF4FF482720021114830F0B0FFFFF7E8
S214006880FDFD10490268104D8A42286014D00F4B57
S2140068909A4210D10F230E4A0020137002F00AFA13
S2140068A02B680446186803F0E1FBB4FBF0F0094BD4
S2140068B08000186038BDFEE70D23ECE73E1200208E
S2140068C04813002000C005504C140020000006505D
S2140068D03D12002044130020B0F5827F10B5044618
S2140068E000D9FEE70246064830F055FF0548064B3D
S2140068F022460349006801F0CFFF00B1FEE710BD55
S214006900481300204C1400207969000008B5144B89
S21400691093F90030002B0CDB012203F01F015B090A
S2140069209B0003F160438A4003F56143C3F880216E
S2140069301A600C4B0C4A18680C4903685A6642F2F7
S21400694048029950DA6C0A4942F42042DA64094B4C
S2140069504FF4827201F0F6FD00B1FEE708BD00BFFD
S2140069603D1200204C140020FF002400FFFF010011
S2140069703E120020BD690000F8B507460D4600240B
S2140069800C4E384601F0EAFC830605D43268A3B202
S2140069909A4204F10104F4D8281C18BF0120FFF71E
S2140069A073FEBDE8F8404FF482720021024830F0D2
S2140069B016BF00BF441300204813002008B5081C6B
S2140069C018BF01201946FFF765FEBDE808404FF4E2
S2140069D082720021014830F002BF00BF3E12002044
S2140069E02DE9F843504C23681B689B6C1B0440F150
S2140069F0988002F03CFE24684FF400412368064667
S214006A005A6E22F4E0225A665A6E42F480225A6681
S214006A1042F24802995002F02AFEA36A07469B8873
S214006A209BB243B902F029FEFFF770FF3046BDE87F
S214006A30F84302F022BEE06800F0D2FF0023A56A09
S214006A4084F8303002F013FEAB889BB2002BE9D0FE
S214006A504FF01409B5F8028002F00FFE1FFA88F80E
S214006A6009FB08F808F110012944E06801F000F875
S214006A702E4B4544AB61A56AAB889BB2B3B994F87C
S214006A803530032B10D094F83630002B3ED142F22E
S214006A901C62042123795B0103F1A04303F57033E4
S214006AA09950022223685A613846BBE702F0DFFDA0
S214006AB0B5F804801FFA88F8B8F1000F04D102F088
S214006AC0DCFDD8F80C30FFDEB5F802806B88E9886C
S214006AD05A1C92FBF1F301FB13239BB26B80AB882D
S214006AE01FFA88F8013B9BB2AB8009FB085502F001
S214006AF0C4FDD5F81480B8F1000FBCD0EA682B6945
S214006B000021D31A2046AA68C047B4E7022BCBD18F
S214006B102068016C11F0020118BF062102F0CDFFBB
S214006B20C2E7BDE8F88300BF4C140020097000F0EF
S214006B300021094A13684BB1834204D1436A49B124
S214006B404B620120704719465B6AF4E70028F5D0CF
S214006B50184670471360F4E75014002010B504463A
S214006B6090B104F0EBFB2046FFF7E2FF58B194F833
S214006B70280040B102F07BFD044A1368013B136015
S214006B8002F07BFD002010BD2220FCE754140020FC
S214006B902DE9F04F85B0054693469A469DF8387025
S214006BA00E4609B9002F61D12846FFF7D7FF0446E5
S214006BB0002857D185F82800286304F0E3FC8642B5
S214006BC02FD904F0BBFC40F2E7384FF00009E0FB99
S214006BD00689274A40F2E7334046494630F0F2FB42
S214006BE04FF47A72688600234046494630F0EAFB46
S214006BF04FF0FF32002330F0E5FB2B46CDE9004492
S214006C0011461C4A284604F034FC044650BB1A4A77
S214006C10C5E907BA136885F82970EE62E3B915600E
S214006C201EE003A930464FB104F08EFC0446C8B9F6
S214006C30CDE900002B460F4A0399E3E704F084FCF5
S214006C40044678B9CDE900772B460A4A03992846C8
S214006C5004F0ECFBD9E713465A6A002AFBD15D62C2
S214006C6000236B62204605B0BDE8F08F2124F9E7CB
S214006C7018FCFFFF7D6C00005014002091F82830AF
S214006C8013B50C4683B90B8E4A8E93420ED243B987
S214006C90CDE90033114A0B4620464FF0FF3104F091
S214006CA08FFB238E0133238602B010BD52B191F8BC
S214006CB029307BB101230093D1E907232046C96A16
S214006CC0FFF766FF0123064A84F82830136801336D
S214006CD01360E9E7084604F031FBF3E77D6C00003B
S214006CE05414002070B5104D2B681BB100260F4BB6
S214006CF01C6804B970BD94F8283093B102F0B7FC54
S214006D002B6884F82860013B2B6002F0B6FC94F8F0
S214006D10293013B92046FFF70BFFD4E90731204688
S214006D209847646AE5E700BF54140020501400201A
S214006D30034B1B68002B0CBF01200420704700BFCC
S214006D4054140020024B1868B0FA80F040097047CF
S214006D505414002008B5042201231146184602F0F8
S214006D606FFF002008BDFFF7F5BF042208B51146E7
S214006D700023012002F064FF002008BD08B50121B1
S214006D803A2001F077FFFFF779FABDE8084000F0F7
S214006D9057B801213A2001F06DBF70B500240646B1
S214006DA025465B21082000F067FC631C112B01D1EF
S214006DB0002070BD012B15D0022B15D0032B15D04B
S214006DC0042B15D0052B04D16A1C2946D5B21C46C7
S214006DD0E8E70D3C012C0DD9102B0DD0F21812F857
S214006DE0061CF4E70C21F2E7D121F0E78021EEE75C
S214006DF00021ECE75A21EAE75D21E8E713B5082011
S214006E0000F02EFCFFF73AFB01220C4C8DF8002018
S214006E1090F8362020607AB9006803F027F92368D6
S214006E2020F07F4093F8353040EA83700190684642
S214006E30FFF7B3FF02B010BD0020F0E758140020A3
S214006E402DE9F047434D88B001AC0FCD0FC495E84F
S214006E500700012584E8070001213A2001F00AFF17
S214006E60DFF8FC800121282001F004FF3A4B01A93D
S214006E70404603938DF8125003F0D8F92B460422AF
S214006E800021022002F0DCFE2A46294600230220CA
S214006E9002F0D6FE02212B460846042202F0D0FE5F
S214006EA004222B461146002002F0CAFE4FF00213C1
S214006EB02A4C0226C4F83036A3F58033C4F82C36A4
S214006EC01C23102742F2100A41F21009C4F8346657
S214006ED04FF44870C4F81C3604F006FD44F80A70F7
S214006EE0142004F001FD44F80970232004F0FCFC93
S214006EF044F80A70B921404603F0F8F900233046FA
S214006F001A46194644F8097002F09AFE00232946EC
S214006F101A46304602F094FE2B4631463046002292
S214006F2002F08EFE00222B461046042102F088FE58
S214006F30404603F0CBF800212820C4F83016C4F8E9
S214006F402C16C4F83416C4F81C1601F093FE08B0CC
S214006F50BDE8F087D079030000127A0000C0035025
S214006F6000C00550FEE7000008B500F035F8164BE7
S214006F701649A3F10C028A4217D30020144B154978
S214006F80A3F108028A421DD3FFF7FAF853F80C0C57
S214006F9050F8224053F8080C40F82240013253F8CB
S214006FA0040C8242F2D30C33E3E70022F7E753F8EF
S214006FB0084C44F82200013253F8044CA242F6D39F
S214006FC00833DDE70022F7E7FCCB0300FCCB030029
S214006FD004CC0300FCCB0300164B174A10B59A608E
S214006FE0D3F888204FF4004142F47002C3F888209A
S214006FF041F26803114AD15042F260024FF0FF316D
S2140070000F4B995042F264024FF6DF7199500221FD
S2140070100C4A1160BFF34F8FBFF36F8F08204FF4F9
S214007020403242F20C040849C1F880011A51086047
S2140070301A6110BD00ED00E0006000000080005006
S21400704000800044D0ED00E000E100E0014B18684D
S214007050704700BFEC0B0020084B1B6F03F00703C4
S214007060022B04D0032B05D0012B05D0FEE7044BE2
S21400707018687047034BFBE70348704700800050D2
S214007080EC0B0020F00B0020002D310108B5FFF7B7
S214007090E3FF054B1B6FC3F303330133B0FBF3F081
S2140070A0024B186008BD00BF00800050E80B0020AF
S2140070B00048704700B4C404014B1868704700BF0E
S2140070C0F00B0020054B1860054B1B6F03F0070301
S2140070D0032B01D1FFF7DABF704700BFF00B00208B
S2140070E0008000500020704700487047002D310196
S2140070F04FF4004070474FF47A707047014B1868A1
S214007100704700BFF40B0020BFF34F8F0549064BB6
S214007110CA6802F4E0621343CB60BFF34F8F00BF30
S214007120FDE700BF00ED00E00400FA0528231B6819
S214007130B3F5C04F03D21968064A914203D0002324
S214007140037083607047012202709A689B694260F0
S214007150F7E700BF07B0CD5E08B54FF00053024A10
S2140071601A60FFF7D1FF00BF02020FF07FB5282498
S21400717023680546B3F5C04F0E4610D201238DF89E
S2140071800430002301A8CDE90233FFF7CFFF039BAD
S2140071905B0504D5236831461B6C2846984704B027
S2140071A070BD00005D4BF7B51A7804461AB102228E
S2140071B01A7003B0F0BDCDE900220028F9D00126F0
S2140071C01E7002F054FA564D564B18602DF01AFDFC
S2140071D02B785BB900F012FD40B953480823534A98
S2140071E05349006828F070FA00B92E70514A41F2EF
S2140071F06801536E2361936E63614FF400435350EE
S21400720003F188435868A0614B489860186E206068
S214007210586E6060186CA060586CE0604748046C5C
S2140072201C64406C0124586441F2640014504FF40E
S214007230005050501A6E560449D54149CA68D407C2
S214007240FCD45B6E5A0447D53E4AD36B13F0430F0B
S214007250FBD13D4B3D4C1A68531C43D04FF40013F2
S21400726093402360042323604FF48063236000F080
S21400727069F901300BD000F065F940F2011398422D
S2140072801FBF4FF4804323604FF400432360102356
S21400729023604FF4005323604FF0804341F26406AE
S2140072A023604FF480432A4F01A9BB516846FFF77D
S2140072B05DFF009B2360019BBB512B78002B3FF4A6
S2140072C078AF1A4B1A6822605B68BB5171E7214998
S2140072D0CA68D007FCD4B4E71F4AD36B13F0430F39
S2140072E0FBD1B6E71D4B1B78002BBBD141F26402E5
S2140072F04FF480710F4B9950194A526812B94FF4E7
S2140073000012226041F264024FF400719950154B4E
S2140073105B68002BA6D14FF48003A2E782140020FE
S2140073208014002084140020000C00207814002014
S214007330007108000080005055CEAC0000C000541C
S214007340000004400000024CF80B0020609000444F
S21400735000800044000004500000025C81140020FD
S21400736000C00550000006502B4B70B51E78044632
S214007370012E1D4602D001221A7070BD0028FCD0D6
S21400738000F0E0F801300ED000F0DCF840F2011317
S214007390984208D041F26403204AD65002F5603283
S2140073A0D368DE07FCD44FF4005141F268031B4A51
S2140073B0D1501B49CA6B12F04302FBD12168194B0E
S2140073C0196661685966A1681964E1685964A1691B
S2140073D0C80748BF9A60144B1A6801320DD1134A89
S2140073E0127852B912494968C90748BF1A60114A4B
S2140073F05268D20744BF01221A6022690E4B5A66B1
S21400740062699A662DF01AFC0C4B186802F035F982
S21400741000232B70B1E700BF8214002000800040DC
S2140074200000024C00800044F80B0020811400206D
S21400743000C0055000000650008000508414002054
S21400744070B528242368B3F5C04F21D2134D2B788E
S21400745013F0FD0F1FD11248FFF7A4FE42F20C06F0
S21400746008204FF480320F490F4BC1F880019A5123
S214007470086041F210015A502368DB6998470446B9
S2140074800748FFF771FF0CB901232B70204670BD2B
S2140074904FF48174FAE70024F8E700BF8114002057
S2140074A05C14002000E100E0008000441F4B13B590
S2140074B01B7803B9FEE700231D4CCDE900336A466E
S2140074C008231C49206828F0FFF8F0B91A4AD2F8B9
S2140074D04031D2F840211F2B4FF0010310D9203A3B
S2140074E09340019A1343019308236A461149206882
S2140074F028F0A0F84FF00053104A1A60FFF704FE79
S2140075009340009A13430093EEE70D4B9842F1D157
S214007510094AD2F84031D2F840211F2B4FF0010320
S21400752002D9203A9340DEE79340ECE7821400202D
S214007530000C002000710800008000440B020FF0D1
S2140075400BE000F01FB528231B68B3F5C04F04D32B
S21400755040F2011005B05DF804FB1B6BB3F5C04F9D
S214007560F6D201238DF80430002301A8CDE90233BA
S214007570FFF7DCFD039BDB03EAD5029B1A0EE7D080
S214007580012A03D1C3F307430A2BE1D928231B683A
S2140075901B6B1B6C9847DDE700230360704703688E
S2140075A00B60016070470000054A064913681844DE
S2140075B088428CBF4FF0FF3310601846704700BFFC
S2140075C0FC0B00200080002008B501213A2001F0C5
S2140075D051FB032101230422002002F031FB00208E
S2140075E002F0D0FA0122164B4FF460701A6001F0D8
S2140075F061FB144B00F5D5201A6800F2FC4042F0FF
S21400760001021A60DA6842F08072DA600E4B0F4AA6
S2140076101A600F4B0222B0FBF3F00E4B01381861D4
S214007620C3F8F0204FF48072C3F804234FF0604391
S214007630094A0020C3F8B02F084AC3F8802E08BDB8
S21400764044D40350F0ED00E0001000E0FF030040DB
S214007650F8590D00000004E055CEACC50900010045
S2140076604FF060420123D2F8001E03FA00F00843F0
S214007670C2F8000E002070474FF06043D3F8802E0B
S21400768030B5D20713D501240A4D84408000184433
S214007690EA6842F08072EA60D3F8002E2243C3F80C
S2140076A0002E0268002AF3D00170002030BD1120A1
S2140076B0FCE700BFF0ED00E02DE9F04F9B46584B8D
S2140076C085B01B78064689461546109F9DF844A04F
S2140076D0DDF85080002B00F09280072A00F291809F
S2140076E00E9B002B00F08D800F9B002B00F08980F6
S2140076F0129BB3F5006F00F38480012801D1002FA0
S2140077007FD0484B03EB05131B7B002B7BD0464CEE
S21400771010220021684630F062F804EB451410226F
S214007720B9F1000F5CD14946204630F058F8A378EE
S21400773043F01003A370E37843F03003E370BAF12C
S214007740000F03D1DBB243F00303E37036496A014E
S214007750129B885A013B63F30E100E9B01EB020C42
S2140077608852CCF808300F9B9DF84C10CCF80430AB
S2140077709CF80330012E61F38303CDF800B08CF83B
S214007780033042D113230CF1100ECCF80C309CE8D9
S2140077900F008EE80F006FF00301DCF81C20B9F133
S2140077A0010F61F39F02CCF81C20CCF8147004D1B2
S2140077B00F9BCCF80470CCF81830002719492A0122
S2140077C08B1841F80280159A28465A609F605E73AF
S2140077D02246694602F0BAFA384605B0BDE8F08F90
S2140077E0002120462FF0FBFF1023A3700323E37035
S2140077F0BAF1000FAAD1DBB243F03003A5E70B487D
S214007800EBE70B48E9E70B48E7E7B8F1000FD4D100
S2140078109CF8023068F304138CF80230CDE700BF02
S214007820081600208814002008150020028000F0AA
S214007830018000F0078000F038B5104B05461B7835
S214007840BBB1C0B101F013FF00230D4901EB0312D9
S214007850147B3CB92B6001231460137301F00DFFF9
S214007860204638BD0133082BF0D101F006FF05484D
S214007870F7E70548F5E70548F3E700BF08160020D8
S21400788088140020048000F0028000F0018000F0E0
S214007890154B13B51868002301908DF8043001F0DD
S2140078A0E6FE124B1C7824B101F0E7FE104802B049
S2140078B010BD01221A7001F0E0FE0E4B01A81C73E9
S2140078C01C7783F82C4083F83C4083F84C4083F8C0
S2140078D05C4083F86C4083F87C4008238DF80730C2
S2140078E002F002FA2046E2E73C7A0300081600207F
S2140078F0038000F08814002010B588B00E9C00921B
S21400790007940D9C024606949DF8304005940B9C07
S21400791004949DF8284003940024CDE901342046C1
S2140079200B462146FFF7C8FE08B010BD10B588B05C
S2140079300E9C009207940D9C024606949DF83040DB
S21400794005940B9C04949DF8284003940024CDE9EC
S214007950013420460B460121FFF7AEFE08B010BDED
S21400796008B50A4B1B785BB107280BD8084B03EB0E
S21400797000131B7B43B1002102F0A6F9002008BDCE
S2140079800448FCE70448FAE70448F8E7081600202D
S21400799088140020028000F0018000F0078000F0CC
S2140079A008B50A4B1B785BB107280BD8084B03EBCE
S2140079B000131B7B43B1012102F086F9002008BDAD
S2140079C00448FCE70448FAE70448F8E708160020ED
S2140079D088140020028000F0018000F0078000F08C
S2140079E008B50A4B1B7853B107280AD8084B03EB97
S2140079F000131B7B3BB102F0F9F9002008BD0548D7
S214007A00FCE70548FAE70548F8E700BF0816002037
S214007A1088140020028000F0018000F0078000F04B
S214007A200D4B1B7893B1072812D889B10B4B03EB8B
S214007A3000131B7B73B10A4BDA6A012303FA00F0CA
S214007A4010401ABF00200B7008707047054870473A
S214007A50054870470548704708160020881400201F
S214007A6000000450028000F0018000F0078000F063
S214007A700B4B10B51B780C4663B107280CD859B1D0
S214007A80084B03EB00131B7B43B102F0C1F92060E7
S214007A90002010BD0448FCE70448FAE70448F8E76D
S214007AA00816002088140020028000F0018000F0F4
S214007AB0078000F02DE9F843174B1F6D5B6D1F40E4
S214007AC000D5FEE701260025144CDFF85480DFF8C9
S214007AD05490374217D02368C8F800609BB1A1685D
S214007AE062680131A16028469847637B012B0AD162
S214007AF048B909EB4513197B1A7F60F3410160F31F
S214007B00410219731A770135082D4FEA460604F12B
S214007B101004DED1BDE8F88300000450881400206D
S214007B20502004500815002070B5044601250B4E61
S214007B3004B970BD94FAA4F0B0FA80F005FA00F328
S214007B4006EB001224EA03045368002BF0D0117BE6
S214007B5011B191689847EBE79847E9E70C160020C3
S214007B6008B5192001F08CFD28B14FF00072074BC4
S214007B70C3F880211A601A2001F082FD28B14FF068
S214007B808062024BC3F880211A6008BD00E100E065
S214007B9038B505460C4601F06AFD0022044B03EB9F
S214007BA005135C601A73BDE8384001F066BD00BF7F
S214007BB00C160020074BD3F82404D3F820241040DA
S214007BC042F2204200F0553020F050209850FFF747
S214007BD0ABBF00BF00C00350074BD3F82404D3F854
S214007BE02024104042F2204200F0AA3020F0A020CC
S214007BF09850FFF799BF00BF00C00350024B1968AA
S214007C00024B186827F046BC040C0020000C00202D
S214007C107047000070B59400224605460E462FF0C9
S214007C20CFFE431C02D018B1064800E0064870BDDF
S214007C302246314628462FF09FFD0028034808BFFD
S214007C400020F4E724E000F021E000F010E000F06F
S214007C5013B5044601A802F095F99DF806300122F6
S214007C6023804FF4807300206380054B9B680A33A3
S214007C7003F01F0302FA03F3636002B010BD00BFF7
S214007C800080E00F02F0F6B808B502F0DFF800203A
S214007C9008BD10B5044644EA010313F00303084682
S214007CA009D1934201D1002010BD54F8231040F8AA
S214007CB023100133F5E7920021462FF06CFDF2E722
S214007CC010B504462FF06CFE431C02D018B10C48C9
S214007CD000E00C4810BD0C4B20469B680A3303F0AE
S214007CE01F020123934023F003032344984201D14B
S214007CF00020EFE750F8042B0132F7D00348E9E7FD
S214007D0024E000F021E000F00080E00F0EE000F03C
S214007D1008B501F0A5FC014B186008BDA845002079
S214007D20014B186801F0A0BCA84500200A4601399E
S214007D30014402F0A3BD000038B141B1013AB2F5EA
S214007D40006F044838BF002070470348704701485A
S214007D50704700BF037000F0027000F038B50446AC
S214007D600D4601F084FCA28892B222B92A6001F086
S214007D7084FC064838BD1422638802FB034308339C
S214007D802B6001F07AFC0020F4E700BF0B7000F0D7
S214007D9038B504460D4601F06AFCA3889BB223B9A9
S214007DA02B6001F06AFC0C4838BD14226388E18819
S214007DB002FB034308332B6063885A1C92FBF1F3E3
S214007DC001FB13239BB26380A388013B9BB2A38075
S214007DD001F053FC0020E7E70B7000F073B5044693
S214007DE00D46C07EE67F00293AD0012304223146A4
S214007DF001F026FF0123022294F82010207F01F0D4
S214007E001FFF94F83530022B19D10023012294F875
S214007E102110607F01F014FF00230422A07F94F855
S214007E20221001F00DFF012394F82120607F0193BA
S214007E300093114601F0A8FE002002B070BD032B8F
S214007E40FAD10023012294F82110607F01F0F8FE99
S214007E500023042294F82210A07F01F0F1FEEBE745
S214007E600B460A46314601F0EBFE2B462A4694F8AE
S214007E702010207F01F0E4FE94F83530022B13D159
S214007E802B462A4694F82110607F01F0D9FE2B4637
S214007E902A46A07F94F8221001F0D2FE94F8212002
S214007EA0607F01950123C3E7032BC5D12B462A46E5
S214007EB094F82110607F01F0C3FE2B462A46C9E7DE
S214007EC0F8B5044617460D4601F0D1FBA388E288B4
S214007ED006469A4205D800233B6001F0CEFB1648C2
S214007EE0F8BD1422238805F1100C02FB0343083367
S214007EF02A4603CA624518605960154603F108030E
S214007F00F6D11068142218602388E18802FB034328
S214007F1008333B60238830465A1C92FBF1F301FB82
S214007F2013239BB22380A38801339BB2A38001F066
S214007F30A4FB0020D4E700BF0A7000F0034610B58B
S214007F4093F836300068022B0CD101F0C5FD0446CC
S214007F5030B103F0F3FA24235843B0FBF4F40134B1
S214007F60204610BD02F082F8F1E790F83530022B7B
S214007F7010D114223023417F90F8210013FB0123F7
S214007F8003F1A04303F570331B6823FA00F000F0FA
S214007F900100704700207047002313B51C4A52F8B2
S214007FA0234094F8211081420ED00133042BF6D1E1
S214007FB002B010BD0028FBD19DF80730002BF7D08B
S214007FC0A068FFF7CDFCF3E794F83530022BEFD12D
S214007FD02046FFF7CAFF637E2076022BE8D194F88E
S214007FE0323003F0FF02002BE2D102A901F8012D86
S214007FF0A068FFF715FD237E1BB194F83330002BE5
S214008000D8D00023A06884F83330FFF7C9FCCFE748
S2140080104C1E00200F49104B0A782AB9C3E90022EB
S214008020C3E9022201220A70002253F8221081427C
S21400803008D00132042AF8D1002153F821201AB9B9
S21400804043F821000020704701310429F5D1034888
S214008050704700BF5C1E00204C1E0020027000F01F
S21400806010B50446FFF714FC002104F10800FFF7E2
S214008070E3FB014608B1044810BD04F10C00FFF70D
S214008080DBFB0028F8D0F6E70E7000F090F83630EC
S2140080906BB942F21C62042103795B0103F1A04331
S2140080A003F570339950022203685A617047022B19
S2140080B007D10068016C11F0020118BF062101F01B
S2140080C0FCBC704790F8363083B9012203685A61C9
S2140080D09A69D207FCD541F21C62042103795B0140
S2140080E003F1A04303F5703399507047022B07D174
S2140080F00068036C9B074CBF0521092101F0DDBC1D
S2140081007047000008B590F8363083B9042203683B
S2140081105A619A699207FCD541F21C6210210379D4
S2140081205B0103F1A04303F57033995008BD022BA1
S214008130FCD10068036CDB074CBF0521062101F06B
S214008140BCFC0222014B1A60F0E700BFC0D403500B
S21400815070B50446836B01F08AFAA36B0546013BB3
S214008160A363A46B4CB901F07BFA064621460120B6
S21400817002F07EFC304601F077FA2846BDE87040F3
S21400818001F07BBA37B591F836200B68022A0CBF8F
S2140081901C6C9C690D46C4F3401408462CB1FFF7CE
S2140081A0D7FF0223AB6503B030BDFFF7C7FECDE9AE
S2140081B0004401462B46034A05F13C0003F036F91D
S2140081C0F1E700BF8581000070B5044601F04FFA64
S2140081D0A36B05464BB901F043FA01210646084653
S2140081E002F046FC304601F03FFAA36B2846013306
S2140081F0A363BDE8704001F040BA0000012370B5EB
S21400820080F8303090F8363086B004460E46A3B973
S214008210056824352046FFF7D7FF0D4B04940393DB
S2140082200023029373683268019301236169009307
S214008230E0682B46FFF77AFB07E0022B02D10568C1
S2140082403435E7E7002380F8303006B070BD00BF55
S2140082509D85000001232DE9F04180F8313090F82B
S214008260363088B004460E4663BB256801F0FFF939
S21400827004F13C0780460DF11F0138463C3503F0FB
S214008280B9F840B99DF81F302BB1384603F056F8C0
S2140082902046FFF75DFF0127404601F0EEF9204635
S2140082A0A765FFF791FF0B4B0494039300230293FB
S2140082B073682A46CDE9007321693368A068FFF722
S2140082C01BFB04E0022BD0D0002380F8313008B02E
S2140082D0BDE8F081D9820000F0B585B003A9D06A68
S2140082E01446FFF73BFD06462046FFF727FE00250F
S2140082F023460146CDE90055164A04F13C0003F03A
S21400830095F8154B9E421FD0039B1D619D6001F0A2
S214008310AEF9039A0746D66826B1D2E90023294665
S2140083202046B04703A9E06AFFF732FDE06A83887B
S2140083309BB263B103A9FFF711FD03992046FFF72F
S21400834089FF384601F099F9012005B0F0BD84F8A0
S2140083503130F6E7858100000B7000F090F836307B
S21400836013B9036898697047022B06BF0368186C38
S214008370002070472DE9F04104460E461746FFF7E9
S214008380DBFC8046002834D1152001F087F905462D
S214008390E26A93889BB213B194F8323063B394F8D0
S2140083A0363073BB23689D6905F002051DB920466B
S2140083B0FFF7A8FE0025012384F8343094F8363001
S2140083C04BBB3744BE42206820D183699A06FCD551
S2140083D07DB994F8363083BB42F21C6210212379B3
S2140083E05B0103F1A04303F570339950082223681C
S2140083F05A614046BDE8F081002DCAD0FFF75AFB0F
S214008400C6E7022BD3D123681D6CCDE716F8011BF7
S21400841001F076FFD6E7022BEBD13744B74220684F
S21400842006D142F22003026C33EA0202FBD1CFE708
S21400843016F8011B01F04AFBF0E7022BD9D12068A1
S214008440036CDB074CBF0921294601F036FB0222EC
S214008450014B1A60CDE700BFC0E4035010B50446D8
S21400846080B190F832302BB9FFF77FFD10B9A068C5
S214008470FFF776FA002094F832300133DBB284F846
S214008480323010BD0048FCE7027000F010B504461C
S214008490A0B190F832309BB190F83230012B05D164
S2140084A0FFF763FD10B9A068FFF77AFA002094F88A
S2140084B03230013BDBB284F8323010BD0148FCE7B5
S2140084C00148FAE7027000F0057000F037B590F842
S2140084D035500446022D1ED1012190F82220457EFB
S2140084E0837F01FA02F23020154925B900FB0313F9
S2140084F042F2100105E0012D07D100FB031341F203
S21400850010015A50002003B030BD247E00FB031338
S214008510002CF4D1ECE7012DF4D1037E73B91123BE
S2140085208DF80730FFF79AFF2A460DF1070120461F
S214008530FFF720FF2046FFF7A9FFE3E71323EFE747
S21400854000C00350F0B587B004461646FFF7F4FBAC
S2140085500546F0B90493104BCDE901166A4601A909
S214008560A06A03960593FFF7ABFC054688B994F816
S214008570303073B92046FFF7A5FD00992046FFF777
S2140085803DFE94F83530032B03D025762046FFF7C2
S2140085909DFF284607B0F0BD017000F073B5906AE5
S2140085A001A91446FFF7DAFB05462046FFF7D0FD83
S2140085B0354B9D423BD094F83600019B002839D1BC
S2140085C02268916C11F4007107D0304998601961E7
S2140085D042F248034FF4007109E0906CC50540D59F
S2140085E02B489960186142F248034FF48071D150CD
S2140085F001F03DF801990646CD6835B14A688B68AA
S2140086002046D31A0A680969A84701A9A06AFFF795
S214008610BFFBA06A8588ADB23DB301A9FFF79EFBFC
S21400862001992046FFF7EAFD304601F026F80120C2
S21400863002B070BD022814D12268516C11F400718A
S21400864006D0124919610021996042F24403C1E73D
S214008650506CC00505D50E489960186142F2440377
S214008660C3E700221A619A60C2E7012320462376F8
S214008670FFF72CFF94F8353084F83050032BD3D016
S2140086802046FFF703FDCFE70B7000F00D7000F0FB
S2140086900C7000F02DE9F041044688B0754F01AE2D
S2140086A00D460FCF0FC697E8070086E80700002C98
S2140086B000F0DD8025B9704E304608B0BDE8F08188
S2140086C05C22002120462FF08AF800232046A36370
S2140086D0FFF7A0FC06460028EED12B7D84F8353047
S2140086E02B6884F8360023602A7B22710122A2655B
S2140086F0624A934240F09F8028236362604B236166
S2140087004FF4802300266361D5E90723A262168012
S2140087105680968084F83060E3621E805E809E807D
S2140087206B6884F831600393EB8984F83360ADF8A6
S21400873014302B8A0121ADF81230AB7C3A208DF82C
S2140087401030EB7C4F4F8DF8163005238DF8113026
S21400875000F090FA0121606A00F08CFA01A92868FE
S2140087608DF8046001F0E0FC14222B7B07EB43132A
S214008770C3F81C262E7AA87A46EA0042C3F83426A6
S214008780697AEA7A41EA024CC3F82CC6E676E077C4
S214008790217784F820206B7D01216377AB7D20460E
S2140087A084F82130EB7DA3772B7E84F82230FFF708
S2140087B015FB064600287FF47FAF00F058FF2B7DA0
S2140087C08046032B42D141F21C6202212B7B0420FF
S2140087D007EB4317B95041F25C0229685B018850E9
S2140087E0297EEA7D03F1A04342EA014241F2286174
S2140087F003F570335A50A97D6A7D42EA014241F280
S21400880024615A504FF0FF3242F248032868C250A3
S2140088102B7D032B0CBF0521042101F048FC4FF4EF
S21400882040622B6820465A61FFF71AFC064640460F
S21400883000F023FF40E7144A93427FF43CAF29231D
S2140088406362124B23614FF4A0235BE7022BD9D15E
S21400885094F821000E49FFF79BF9FFF781F94FF4D2
S2140088600073A67623832046FFF730FECAE7094E3C
S21400887022E700BF847A0300037000F000C00550B2
S2140088800200040000C0035000000650020005006D
S214008890997F0000027000F0F0B587B004461646D7
S2140088A0FFF74AFA054658BB0493194BCDE9011663
S2140088B0059394F8363003962BBB23689B6903F028
S2140088C0020313B92046FFF71DFC6A4601A9E06AB9
S2140088D0FFF7F6FA054698B994F8313083B900F0F8
S2140088E0C6FEE36A06469B889BB233B100992046D3
S2140088F0FFF7B0FC012384F83430304600F0BDFEAC
S214008900284607B0F0BD022BDCD123681B6CD6E7E7
S214008910017000F00B4B30B51B7883B101200023AB
S2140089200546094C54F823202AB192F8581002291B
S21400893004BF084695650133042BF3D130BD0120F2
S214008940FCE700BF5C1E00204C1E0020044A136893
S214008950DB06FCD4034BD3F88400C0F381107047C9
S214008960844000500040005038B5104B0546D3F800
S21400897020310C4603F00303022B0BD0032B0DD043
S214008980012B0FD1FEF762FB052305B1286004B169
S214008990236038BDFEF790FB0323F6E7FEF7A4FB43
S2140089A00223F2E700231846EFE700BF00800050DE
S2140089B073B50D4600210E4B0191D3F88041064653
S2140089C004F00304012C08D0022C0BD00EB1019B3E
S2140089D0336005B1296002B070BD01A8FFF7C4FF7F
S2140089E00F21F3E7FEF780FB21460190EEE700BF7C
S2140089F00080005038B5174B0546D3F824310C4696
S214008A0003F00703013B052B20D8DFE803F0030F34
S214008A10171B0B13FEF71AFB052305B1286004B1DC
S214008A20236038BDFEF712FB0623F6E7FEF744FB8D
S214008A300323F2E7FEF740FB0423EEE7FEF754FBC2
S214008A400223EAE7FEF74EFB0723E6E70023184675
S214008A50E3E700BF0080005038B5104B0546D3F85A
S214008A6040310C4603F00303022B0BD0032B0DD032
S214008A70012B0FD1FEF73CFB092305B1286004B19A
S214008A80236038BDFEF73AFB0823F6E7FEF733FB14
S214008A900B23F2E700231846EFE700BF00800050E4
S214008AA038B5134B0546D3F800320C4603F00703DF
S214008AB0013B032B18D8DFE803F0020A0E12FEF77C
S214008AC017FB092305B1286004B1236038BDFEF703
S214008AD015FB0823F6E7FEF70EFB0B23F2E7FEF77F
S214008AE0D5FA0E23800AEDE700231846EAE700BF12
S214008AF00080005038B5104B0546D3F840320C467F
S214008B0003F00303022B0BD0032B0DD0012B0FD148
S214008B10FEF7EEFA092305B1286004B1236038BDDC
S214008B20FEF7ECFA0823F6E7FEF7E5FA0B23F2E782
S214008B3000231846EFE700BF0080005038B5104B02
S214008B400546D3F860310C4603F00303022B0BD026
S214008B50032B0DD0012B0FD1FEF7CAFA092305B15E
S214008B60286004B1236038BDFEF7C8FA0823F6E78C
S214008B70FEF7C1FA0B23F2E700231846EFE700BF23
S214008B80008000500D4B10B4D3F820320A4603F094
S214008B900303012B0AD0022B0CD008B1002303607C
S214008BA00AB1002313605DF8044B70475DF8044B70
S214008BB0FFF7DABE5DF8044BFFF74EBF00800050AB
S214008BC0B0F5007F18D005D880B1B0F5C07F0DD0C5
S214008BD000200FE0B0F5207F14D0B0F5607FF7D10D
S214008BE00B4BD3F88000C0F3011003E0084B186F5E
S214008BF0C0F3033001307047054BD3F89000C0F344
S214008C000460F7E7024B186FC0F38020F2E700BF5E
S214008C1000800050014641F268034FF400300E4ACF
S214008C2010B5D0500020FFF7CBFF41F67132484315
S214008C300A490B4B88428CBF4FF480100020DC6939
S214008C40DA639A6822F4401202439A60E20344BF51
S214008C500022DA6310BD00BF00800050005A620296
S214008C600000035008B5FEF723FABDE808400021CF
S214008C70FFF7D0BF430910B507D0012B0FD00A4C21
S214008C800A4A022B14BF2346134600F01F0041B1C8
S214008C9003F58053012202FA00F0186010BD044B61
S214008CA0F3E703F50053F5E7608200506880005054
S214008CB0648000501FB500233E280446019300F050
S214008CC0C18042D82B2828D01FD8232813D00CD8F0
S214008CD0202849D004D8002846D0019804B010BDFA
S214008CE0212808D022283FD0F7E7292800F29080D4
S214008CF02828C0F08380FEF7C9F902464FF420709A
S214008D00FFF75EFFB2FBF0F071E0312810D82F2895
S214008D10F1D22D2800F0918056D9FEF7B7F9024619
S214008D204FF42070FFF74CFFB2FBF0F040085EE017
S214008D303C2855D83A28DED2382864D03928CCD1F9
S214008D40002101A8FFF756FEC7E7B0F5007F50D018
S214008D501BD8522852D00AD84D2805D002D83F2812
S214008D60C9D0BAE74F28B8D3FEF790F93FE080287D
S214008D703BD004D8A0F16004012CF5D9ADE7B0F5DE
S214008D80807F4AD0B0F5C07FADE7B0F5A06F3AD08F
S214008D9010D8B0F5607F2CD006D8B0F5207FAAD0CA
S214008DA0B0F5407FB9D098E7B0F5806F26D0B0F523
S214008DB0906FC4E7B0F5D06F3FD00AD8B0F5B06F6B
S214008DC026D0B0F5C06F88D1002101A8FFF744FE79
S214008DD083E7B0F5E06F35D0B0F5F06F7FF47DAF88
S214008DE0002101A8FFF7AAFE77E7FEF735F9019004
S214008DF073E7FEF731F90246204681E7002101A815
S214008E00FFF7B2FD69E7002101A8FFF7BBFE64E7A4
S214008E10002101A8FFF7CCFD5FE702930C4B1B680F
S214008E205B0705D5FEF732F90290029B019354E7E3
S214008E3003A902A8FFF710FEF7E7002101A8FFF735
S214008E402FFE4AE7002101A8FFF754FE45E700BFC2
S214008E5010E000E008B58020FFF72CFF044B984296
S214008E609FBF42F270034FF48031024AD15008BDD2
S214008E70005A6202008000501FB50023B0F5807FC4
S214008E80019374D02FD82D2800F0868010D82A2879
S214008E903FD006D82438032830D9019805B05DF8AD
S214008EA004FB2C28F9D101A90020FFF7D5FDF4E733
S214008EB03E283DD008D838287DD03D28EDD101A9E0
S214008EC00020FFF73BFEE8E7522817D08028E4D1C1
S214008ED03B4B1B6F03F00703013B032BDDD8DFE89A
S214008EE003F044413F66B0F5C06FDCD016D8B0F54D
S214008EF0906F4CD007D8B0F5806FCED101A9002076
S214008F00FFF732FDC9E7B0F5A06F54D0B0F5B06FEB
S214008F10C3D101A90020FFF74BFDBEE7B0F5F06F07
S214008F20CDD00AD8B0F5D06F36D0B0F5E06FB4D15A
S214008F3001A90020FFF7DEFDAFE7B0F5006F26D0F1
S214008F40B0F5086FA9D11E4BD3F8003103F0030328
S214008F50022B26D0032B28D0012B2AD1FEF7ACF803
S214008F60032300E00523019397E70223FBE7029320
S214008F70144B1B685B0705D5FEF788F80C23039394
S214008F80039BF0E703A902A8FFF766FDF8E701A92F
S214008F900020FFF72FFD80E701A90020FFF780FDE6
S214008FA07BE7FEF7ABF80823DDE7FEF79BF8072321
S214008FB0D9E70123D7E701A90020FFF7E3FD6CE717
S214008FC00080005010E000E008B5FFF755FF0828C5
S214008FD005D001D30A2805D94FF6FF7001E0094BEA
S214008FE0188808BD41F264034FF40011064A4FF694
S214008FF0FF70D150054B5B6A13F0010F18BF4FF49A
S214009000FA70EEE7240C002000800050004002506A
S21400901070B504468020FFF72FFF032800F08B80F2
S21400902041F264034FF40021484AD15045F60E033E
S21400903002F58042C2F88030022141F22803D15066
S21400904042F228030121D150916D11F48031FBD1F9
S214009050D4E900031B0543EA0063E07B0343207B5F
S21400906043EA0043607B43EA0033A07B43EA801375
S21400907013619069D4E904531B0643EA856300F044
S21400908000400343A07E94F823500343207E43EA27
S2140090900043607E43EA00239361136AE269E07E40
S2140090A0002A18BF082123F00D0343EA020343EA0F
S2140090B0800341EA030194F82020254B4FEA42162C
S2140090C0196294F8220037D1996A94F8212021F089
S2140090D0330141F00101314341EA02119962194618
S2140090E01C4A9E6D32EA0606FBD1022241F2280691
S2140090F09A511A658B6D5B00FCD40B69A26823F449
S214009100700343EA02530B614FF0004241F218032A
S214009110CA5018B942F228030222CA5025B942F2B0
S214009120280301210A4AD15094F824301BB1084B79
S214009130094AC3F8802070BD9A6A22F033022A4397
S214009140324342EA40029A62EEE700BF00800050D7
S21400915000C0005003000140F1A7FFFF014B93F948
S214009160000070475D1E0020F0B5D0E9014241F2D4
S21400917064034FF480071A4E41780578F7504FF491
S214009180D156184B02275E6241F204064F299F51C2
S21400919042F204064FF0010728BF4F219F511E6977
S2140091A0F603FCD441EA052159611201417B42EAEB
S2140091B004220A43017B42EA41029A60C27B817B19
S2140091C0120142EA4112417C0A43017C42EA410212
S2140091D05A60827C12B16FF4D1525A62F0BD00BF61
S2140091E00080005000000250014B1880704700BFFE
S2140091F0240C002008B54FF4001141F26403174A0E
S214009200D1500222164B5A609A6812F48032FBD173
S214009210012815D1FDF750FF124B984215D003F5E3
S214009220122303F5F863984213D00F4B00EB80022D
S214009230400AB3FBF0F0520A094BDA6201221863C7
S2140092405A620022064B5A6008BD45F67A10074A55
S214009250F2E745F61A00064AEEE700BF0080005027
S2140092600040025000F0490264666666D8B8050001
S214009270BBCF05000029CCBF01210021FFF7CABCE7
S21400928010B50446FFF7EEFC00F054F841F2700308
S2140092904FF480310C4A013CD150106F20F47040DE
S2140092A040EA04301067FDF7F1FE0446FFF74EFB78
S2140092B0C0F102012046FFF7DDFF00F041F8BDE8EF
S2140092C01040FFF7C7BD00BF00800050B0F5007F1C
S2140092D01AD004D850B1B0F5C07F07D07047B0F5AB
S2140092E0207F1CD0B0F5607F03D070470846FFF79C
S2140092F0C7BF0F4A0139D2F8803023F0300343EA63
S2140093000111C2F880107047094A0139D2F890302E
S21400931023F0F85343EA0161C2F890107047044AFC
S2140093200139136F23F4806343EA81211167704784
S2140093300080005002214FF42070FFF7C7BF0000E6
S21400934008B54FF4C070FFF7B5FCBDE80840044907
S21400935088428CBF022101214FF42070FFF7B6BF70
S21400936080F0FA02B0F5807F70B50C4600F0F4800D
S21400937041D82D2800F03C8118D82A285ED003D882
S2140093802438032843D970BD2C28FCD1083C032C74
S2140093908CBF0021A74BA84A98BF195DD2F8403170
S2140093A023F003030B43C2F84031ECE73E285FD0BE
S2140093B014D8382800F02C813D28E4D1083C032C32
S2140093C08CBF00219D4B9C4A98BF195DD2F8603136
S2140093D023F003030B43C2F86031D4E7522816D0BB
S2140093E08028D0D18B1E052B00F2B380DFE803F077
S2140093F0AE9BB168B1ABB0F5C06FC7D02DD8B0F595
S214009400906F00F0E58012D8B0F5806FBBD1023CBB
S214009410032C8CBF00218A4B874A98BF195DD2F86F
S214009420203123F003030B43C2F82031ABE7B0F53D
S214009430A06F00F0ED80B0F5B06FA4D1022C03D081
S214009440A4F10F056C426C417B4AD2F8803123F0C0
S21400945003031C43C2F8804195E7B0F5F06FADD02A
S21400946016D8B0F5D06F00F0C380B0F5E06F8AD1A3
S214009470083C032C8CBF0021724B6F4A98BF195DC5
S214009480D2F8403223F003030B43C2F840327AE7A7
S214009490B0F5006F00F09C80B0F5086F7FF473AFF6
S2140094A0CC1E052C8CBF0021674B634A98BF195D04
S2140094B0D2F8003123F003030B43C2F8003162E711
S2140094C0002502260121022000F0DEF9FFF7CAFB84
S2140094D0FFF730FF4FF4803141F27003564AD15007
S2140094E0136F23F0070333431367FDF7CFFD0646DC
S2140094F0FFF72CFAC0F102013046FFF7BBFE012150
S214009500002000F001FAFFF71BFFFFF7A3FC002D79
S2140095107FF439AF032C7FF436AF42F228030121E3
S2140095204A4AD1502FE741F264034FF40021424AE1
S2140095300326D15041F228020121444B9D6A9950DE
S214009540C5F34005BEE700250426BBE70025012637
S214009550B8E700252E46B5E7A1F10804082C3FF62B
S21400956012AF012303FA04F440F20B131C4218D185
S214009570E4067FF508AF4FF4803141F264022E4BCB
S21400958033485C6E9950026A22F001020262E203DE
S2140095905CBF42F2640299502E4A136843F00403FB
S2140095A014E04FF4803141F26402234B28485C6E8D
S2140095B09950026A42F001020262E0035CBF42F286
S2140095C064029950234A136823F004031360DAE612
S2140095D0023C052C8CBF00211F4B174A98BF195D13
S2140095E0D2F8243123F007030B43C2F82431CAE62D
S2140095F0083C062C8CBF0021184B0F4A98BF195DFB
S214009600D2F8003223F007030B43C2F80032BAE662
S2140096100F2C0CD0102C0CBF02210021064AD2F8C9
S214009620203223F003030B43C2F82032ABE60121BD
S214009630F4E700BFA47A030000800050A47A030079
S214009640A07A0300A47A0300B57A030000C0005095
S21400965000C0075010E000E0A87A0300AE7A0300CE
S214009660EFF3108072B6704700B962B67047EFF33A
S2140096701180302383F31188704780F31188704778
S214009680054A410900F01F0352F82100D840C043A4
S21400969000F00100704700BF00E100E010B504468E
S2140096A0EFF31083DB0733D4FFF7EAFF00282ED151
S2140096B0002CABBF04F16044164B04F5614404F083
S2140096C00F04ACBF94F800231A5D1209EFF3118360
S2140096D013B1B2EB131F1BD20F4C6368C3F308031E
S2140096E0ABB1103BDBB259B20029B5BF03F00F0394
S2140096F001F16043043B03F56143B6BF1B1993F8C1
S2140097000003187E0009824234BF0020012010BDED
S2140097100120FCE714ED00E000ED00E010B5234B5F
S21400972070B9186041F264014FF40030204A50507E
S21400973020494968012902D1D2F800211A6010BDDB
S2140097401B68002BFBD01B4C6268012AF7D0184A16
S2140097508020C2F80031FFF78FFB052820D14FF498
S214009760C070FFF72DFA0128044604D102214FF4F9
S214009770C070FFF7ABFD42F2100207210D4B995067
S21400978041F20402012199501A69D207FCD5012C36
S214009790D5D12146BDE810404FF4C070FFF796BD06
S2140097A041F204030122E250C9E700BF601E002018
S2140097B00080005000C00150044A4178536F23F4E3
S2140097C0407343EA01235367704700BF00400050D0
S2140097D07047704710B5044610B10020FFF79EFF93
S2140097E00E4A136943F00403136101F0E3FBFFF72D
S2140097F0EFFFFFF735FF2EF0DBF8FFF735FFFFF73B
S214009800E8FF01F0EBFB24B1BDE810400120FFF7B4
S21400981085BFBDE81040FDF739BC00BF00ED00E095
S21400982010B5044610B10020FFF778FF0C4A136904
S21400983043F00403136101F0BDFBFFF711FF2EF0A8
S214009840B7F8FFF711FF01F0C9FB24B1BDE81040DF
S2140098500120FFF763BFBDE81040FDF717BC00BF4F
S21400986000ED00E00020FFF759BF0120FFF756BFCC
S214009870034A0179D36E23F030030B43D366704757
S2140098800040005070470000F8B504461C4A1368B4
S214009890D806FCD41B4DD5F88430C3F381139C4204
S2140098A02DD0FDF7D9FB012C064602D12146FFF745
S2140098B0E1FCFFF7D5FE42F264034FF00072074664
S2140098C0EA502046FFF7DEFF4FF48063621E9340A7
S2140098D02B670C4B5A6E910103D4D3F88420920662
S2140098E00AD53846FFF7C0FE022C08D13046BDE840
S2140098F0F8400021FFF7BEBCD3F88420EAE7F8BDA5
S214009900844000500040005010B50C4608B9FDF7E2
S214009910A3FB074B21461B783BB1064B984204D865
S2140099200120BDE81040FFF7AFBF0220F9E700BFF7
S214009930641E0020005A62020278034B01210020B8
S2140099401A70FFF7E1BF00BF641E002041F26403F7
S2140099504FF00041184A10B5D150012141F20402DF
S2140099604AF6CD34154B99505A6C1C640A4098B987
S2140099709868C40705D542F208001950D96AC80786
S214009980FCD542F204010120585012B10B4B0C4A90
S2140099901A6426F0BFFE10BDD96A0907FCD442F24D
S2140099A024012020585041F2080101205850034954
S2140099B04B6A9B06FCD5E8E7008000500040095043
S2140099C03254FFFF38B54FF0004141F26403194AA4
S2140099D0194CD150012241F20403E2504AF6CD332D
S2140099E0656C23644378154093401343134AD3634E
S2140099F0A368827823F0740343EA0213C278002A2D
S214009A0014BF042200221343A3600279837943EA39
S214009A10022323614279C379007843EA0223636113
S214009A20FFF794FF0DB1064B236426F073FE01206A
S214009A3038BD00BF00800050004009500040005074
S214009A403254FFFFC36C0B42FCD1704708B50A23A3
S214009A50502103630246FFF7F5FF136C9907FCD10C
S214009A60936A012193621046FFF7ECFF136C1B0606
S214009A7004D442F204030121D15008BD536BF5E72C
S214009A8038B50C4641F204030121C15040F2FF7183
S214009A900246FFF7D7FF04F00F0578210563FFF7AE
S214009AA0D1FF04F00103610748BF43F00203116CC5
S214009AB001F003019942FAD138BD21B94368DB07AA
S214009AC003D5FFF7C3BFFFF7DBBF7047036C5B062A
S214009AD0FCD5C16370470000F8B504461F488442B1
S214009AE00CBF38200020FFF7E5F8A26AA4681C4BDC
S214009AF004F0E004402C03EA020310D004D854B368
S214009B00202C08D0002023E0602C22D0802CF9D115
S214009B104FF4807600E026460024012502E08026E9
S214009B200024032503F580735D4300232A46194667
S214009B302DF048FC02FB04F100FB06F706FB0313BE
S214009B40A2FB06012A46194400232DF03BFC3844AC
S214009B50F8BD4026E0E71026DFE700BF0000035A06
S214009B60F8FF7F0070B5054614460E46FFF778FDF1
S214009B702A68544004EA060151402960BDE8704056
S214009B80FFF772BD70470000072A2DE9F041164620
S214009B901F4601F003084FF003042DD89500AC4093
S214009BA000FA05F221461C48FFF7DCFF21461B4859
S214009BB008FA05F2FFF7D6FF194A1A4B9DF8180067
S214009BC0002F18BF13460122B2401A601649174BE1
S214009BD0002818BF0B461A6042F2204314499DF82D
S214009BE01C00CA50134B01F5A1510431002818BFC0
S214009BF00B461A60BDE8F081A2F10805AD00AC4046
S214009C0000FA05F221460C48FFF7ACFF08FA05F209
S214009C1021460A48CEE700BF00C4035008C40350DC
S214009C2010D4035010E4035014D4035014E403502B
S214009C3000C0035024E4035004C403500CC4035073
S214009C40F8B504460D461E4617464AB10122302393
S214009C508A401A4903FB0013FEB141F210015A5024
S214009C6004EB4403072D4FEA031319D80F20A9006D
S214009C7007FA01F200FA01F111481844FFF772FFE3
S214009C8057B9012303FA05F530230C4A03FB0424D5
S214009C908EB141F21003E550F8BD42F21001DEE746
S214009CA00F2005F180410839890007FA01F200FA11
S214009CB001F10448E1E742F21003ECE700C003506C
S214009CC004C003500CC00350054B064A00290CBFC5
S214009CD019461146012303FA00F00860704700BFDA
S214009CE0401004504020045010B5012104462020A6
S214009CF0FEF7C0FF01212120FEF7BCFF0122114B19
S214009D005A60227812069A606178A27842EA014286
S214009D109A61FF229A6200229A631A644FF0004208
S214009D204FF0FF315A6542F2500299504FF400113D
S214009D30054AC2F88011E3781B01DBB282F81533BE
S214009D40116010BD0000045000E100E02DE9F04174
S214009D5001260C4642F2500E214DC3B29E408F7A29
S214009D60CB7AD1F8008094F80DC0097B45F80E60D8
S214009D70DFF874E01B054EF820804FF0300E0EFB27
S214009D80005043EA074343EA415322F00302C0F877
S214009D9060C0C3650267FFF76AFC6B6D33436B6593
S214009DA0237A13B12B6C33432B64637A13B1AB6BFA
S214009DB03343AB6342F218012379A27942EA0342A5
S214009DC0074B5A506179E27942EA014241F21801A2
S214009DD05A50044A16609E64BDE8F041FFF74DBC39
S214009DE000000450342004500040045010B50124F4
S214009DF0C0B28440FFF73BFC044B5A6D22EA0402D3
S214009E005A659C62BDE81040FFF737BC000004505E
S214009E10F8B50125C3B29D400446FFF728FC302262
S214009E20094B02FB04341E6D5F6B646EFFF725FC66
S214009E303D4206D1C4F30A1008B9354200D10130BC
S214009E40F8BD0020FCE700BF0000045041F26803A4
S214009E504FF40031054AD15041F67132044B0121CE
S214009E60DA6342F20C029950704700BF008000503F
S214009E700000035041F67132074B0121DA6342F2CB
S214009E800C02995000224FF40031DA6342F2680364
S214009E90024AD150704700BF0000035000800050B7
S214009EA04FF0B0435A6812B19A6A002AFAD1704746
S214009EB0CB784A7810B55B010C7843EA82030A79BE
S214009EC0234343EA02130C22424302F1B0421363D7
S214009ED0012C02BF8A78024B43F8202010BD00BF39
S214009EE0E880035008B54FF0B0435A6802B960B135
S214009EF05B680BB1FFF7D4FF4FF0B04130B10120E3
S214009F00074B1860FFF7CCFFC86008BDFFF7C8FF17
S214009F100223CB60FFF7C4FF0122024B1A60F4E76E
S214009F2004100058042000584FF0B0435B6870B52A
S214009F300BB1FFF7B5FF0121104B06791960837846
S214009F404578002BC37814BF02240024002B14BFCE
S214009F50042200224379DB0043EA06132B43234303
S214009F6013434FF0B0429360054B19600378002B03
S214009F7014BF0B460223D36070BD00BF04200058F8
S214009F800410005841F264034FF48031064AD15061
S214009F90064B5B69C3F38512827003F03F021B0B0E
S214009FA042700370704700BF0080005000C007502A
S214009FB070B5054616461C4621B94FF42070FEF7CC
S214009FC079FE0146202C08D001D8E4B170BD402CA3
S214009FD017D0602CFAD1042300E0082373435A08F4
S214009FE002EB4112B2FBF3F2084B203A03EAC2023C
S214009FF0AB6823F06003AB60AB681C43AC60EA61FF
S21400A000E4E70623EAE71023E8E700BFF8FF7F004F
S21400A010F8B5154F14460F401ABB202B07D0402B1F
S21400A02007D0002B0CBF10254025012603E01D4657
S21400A030FBE780250326002307F580777E43194635
S21400A04032462DF0BFF9544300FB05F705FB0344E9
S21400A050A2FB05010023214432462DF0B3F9384413
S21400A060F8BD80250024E0E7F8FF7F0070B50446C1
S21400A07085684FF42070FEF71DFEA36805F0010208
S21400A080E16903F06003BDE87040FFF7C1BF38B573
S21400A0900546144621B94FF42070FEF70BFE014624
S21400A0A001396400B1FBF4F10902E96138BD01220F
S21400A0B041F20403C250CB43934003F00A034361CA
S21400A0C0416111B942F20403C250704741F20403E1
S21400A0D00122C25040F6AA6341F205024361002302
S21400A0E08360C365C26042F248020C490361C361E3
S21400A0F0C36481500A4A8365904202D00949884267
S21400A10007D19042036502D0064B984201D1002346
S21400A110436542F204030122C2507047FFFF01006C
S21400A12000C005500000065038B50D460446FFF73F
S21400A130CDFF41F204030122C250AB7C1BB1836801
S21400A14043F080438360EB7C5BB1354A2B7D9442C1
S21400A15049D1A2F51032C2F88C31E36D43F080038A
S21400A160E3652A8A6B7B20461343EA891343E36040
S21400A170D5E901122B7BFFF71BFF6B7D1BB1A36894
S21400A18043F48033A360AB7D1BB1A36843F4004364
S21400A190A360EB7D2A7E1B07120502F4E00203F0A3
S21400A1A0E043697E1343A3658B1E012B1C4A1D4B9F
S21400A1B023D894421FD002F5804294420CBF01225D
S21400A1C04FF0FF3203EB4213022041F21C620329D8
S21400A1D098500CBF41F25C0342F25C030422E2504A
S21400A1E02B78636138BD104A944204BFA2F5203232
S21400A1F0C2F89C31B1E70022E4E794420DD00A4A47
S21400A20094420CBF01224FF0FF3203EB42130220B0
S21400A21042F21C6201299850DBE70022F5E700BFF6
S21400A22000C0055000C003500000065038B50D466B
S21400A2300446FFF74BFF41F204030122A97BC250FC
S21400A2402A8A8368002942F0010214BF4FF4806115
S21400A250002113432A7D0B43002A14BF4FF00052FF
S21400A26000228360836813438360AB7C5BB11D4A26
S21400A270EB7C90422DD1A2F51032C2F88C31E36D02
S21400A28043F08003E3652B7BD5E9011243F480534A
S21400A290E3602046FFF7FBFE6B7B0BB11023636188
S21400A2A06B7D1BB1A36843F48033A360AB7D1BB109
S21400A2B0A36843F40043A360EB7D2A7E1B071205C8
S21400A2C003F0E04302F4E0021343A3652B786361D6
S21400A2D038BD054A904204BFA2F52032C2F89C3130
S21400A2E0CDE700BF00C005500000065083695A063F
S21400A2F0FCD5C16383699B06FCD5406AC0B2704733
S21400A30083695B06FCD5C1637047000038B5044618
S21400A310054D26F025FA0FCC0FC594E8030085E816
S21400A3200300002038BD00BF681E002047F6FF73FC
S21400A3309A42F0B564D0022964D8334BCE0013F8A5
S21400A340311098190129847813D10025C3781B1B76
S21400A350AB4202D8E018C0B2F0BD591B4668A3EB6A
S21400A360510136F911609642CCBF01F1FF330D461C
S21400A370EEE740680028EFD0B0F90050954204DBC5
S21400A380B0F902509542B8BF154682883344FF2A7A
S21400A39019BFC8214FF0280CB0F90610B0F908C054
S21400A3A0A1EB05020CBF0127002792FBFCF25E78AA
S21400A3B03A44731E9A4228BF1A464FF47A7E00EB40
S21400A3C0C2039F68D9889C4615FB0171571C21EA79
S21400A3D0E17101F5FA71BE42B1FBFEF104D9BCF899
S21400A3E00CC008338C4509D200EBC2008088884236
S21400A3F028BF0846A04238BF2046ACE73A46E0E70A
S21400A400FF20A9E70020A7E7681E00200229F0B574
S21400A41051D82A4800EBC10310F831105C680129B6
S21400A4200FD1D9789B78914294BFC3EB0102C3EB5E
S21400A4300202C91AD2B28A42C8BF002234F91200F8
S21400A440F0BD002C37D09978914202D3B4F90200BF
S21400A450F6E7D978B4F900009142F1D95D78A3887F
S21400A460013DA3F1FF06734204F10401EDB273410E
S21400A47097B2DEB2B5424FEAC30606D901EB060C28
S21400A480BCF808C00133BC45F3D24FF47A735A4384
S21400A49031444B68B1F90250D21A022395FBF3F30C
S21400A4A01A4492FBF5F29042CADBB4F902009042DD
S21400A4B0C6DC10B2C4E70248C2E700BF681E002030
S21400A4C00080FFFF08B50448FFF720FFBDE80840FE
S21400A4D0012026F047B900BFBC7A03000048704749
S21400A4E0260C002002494FF0FF3026F08FBC00BF3C
S21400A4F02C0C002007B56B46054A1068516803C34C
S21400A5006846FFF75FFA002003B05DF804FB00BF63
S21400A510407B030013B50024064A6846536F43F099
S21400A5200103536700948DF80440FFF7A1F9204615
S21400A53002B010BD0040005030B58BB06C46154DD3
S21400A5400FCD0FC40FCD0FC495E8030084E80300B9
S21400A550114BD3F84C21120314D4D3F85041E4B273
S21400A5608DF81940FEF7FAFD204480F308008DF8B8
S21400A57018000A48FCF7A6FD6846FEF749FD0020CD
S21400A5800BB030BD4FF6FF70054B1C88844208BFE9
S21400A5907824E5E7487B03000080E00F00F04902DE
S21400A5A00001E00F08B50120FEF724FE002008BDDC
S21400A5B030B5094D87B001AC0FCD0FC42B6801A88C
S21400A5C0236025238DF80530FEF7CEFD6420FEF7C8
S21400A5D00BFE002007B030BD707B03006FF0040256
S21400A5E0502110B50A480B4C12F0800FD3B21BBF97
S21400A5F003F00F03043BA3181B1802F101020CBF63
S21400A60083F800131976402AEED1002010BD00BF53
S21400A61000ED00E000E100E000F078B838B500F0AA
S21400A62053FE0446D8B900F089FF4FF4167358431A
S21400A6300C4B00F5742000F23F20B0FBF3F02246EE
S21400A640094B0A4D18600A4B196845F8220001327A
S21400A6500A2AFAD100EBC0020844104418602046CB
S21400A66038BD00BF40420F00BC1E00208C1E0020DC
S21400A670881E0020012208B5034B1A7000F052FF16
S21400A680024B186008BD00BF841E0020B81E0020C4
S21400A690F8B5144C23781BB300F044FF124B134D4F
S21400A6A01B68134EC01A08BF0120124B124F1860C9
S21400A6B02B7856F8232046F82300111A3A680F48DC
S21400A6C0521A0A213A600932B2FBF1F20133DBB2C8
S21400A6D00260B3FBF1F201FB12332B7000232370F0
S21400A6E0F8BD00BF841E0020B81E0020B41E002047
S21400A6F08C1E0020801E0020881E0020BC1E00200D
S21400A700014B1868704700BFBC1E002020230D496F
S21400A7104FF4002081F82C3341F264030A4AD050EB
S21400A72042F27400094B0A4A1A5042F270001A505C
S21400A7304FF48050C1F88401486041F274015A50C9
S21400A740704700BF00E100E00080005000C00050ED
S21400A750010000A0044B9A6DD20702D40028FAD15B
S21400A76070470120704700BF00C000500E4B10B568
S21400A7701C6FE20707D542F2700201219950FFF7DD
S21400A78087FF00F051FB14F000511EBF42F2700329
S21400A790054AD150002CBFBF42F270034FF0004173
S21400A7A0014AD15010BD00BF00C00050FFF7DEBF09
S21400A7B0BFF35F8F074A536A23F480335362D2F89D
S21400A7C0943023F00103C2F89430BFF34F8FBFF3E9
S21400A7D06F8F704700ED00E070B5FFF7E9FF1F4C84
S21400A7E01F48204B844208BF4FF08042196B1CBFA5
S21400A7F020F01F02203A21F0FF0141F0A001B2F143
S21400A800005F196309D3184D184E296842F00102FB
S21400A81099600131DE601A61296084420CD01248CA
S21400A820134A016822F01F0242F003029960DA60C0
S21400A830104A01311A610160BFF35F8F05225A602A
S21400A8400D4A536A43F480335362BFF34F8FBFF30E
S21400A8506F8FBFF34F8FBFF36F8F70BDAC0F0020AD
S21400A860CC0D002090ED00E0C01E0020030000206C
S21400A870CB0F0020E1FFFF3F00ED00E010B51446CF
S21400A880FFF796FF1F2C1A4B1ED91A6BC40622F42C
S21400A8907F4242F4807218BF20F01F00154C1A63E6
S21400A8A018BF2030CA0618BF21F01F01226820F00A
S21400A8B01F0021F01F019A6040F0030041F00301E1
S21400A8C00132D86019612260BFF35F8F05225A609B
S21400A8D0094A536A43F480335362BFF34F8FBFF382
S21400A8E06F8FBFF34F8FBFF36F8F002010BD00BF79
S21400A8F090ED00E0C01E002000ED00E0BFF34F8F9B
S21400A9000549064BCA6802F4E0621343CB60BFF306
S21400A9104F8F00BFFDE700BF00ED00E00400FA0522
S21400A92008B5FFF7EBFF08BD034B1B78002B14BFE1
S21400A93001200220704700BFF41E00200329F8B54E
S21400A94098BF124B06460F4694BF5C5C0024032853
S21400A95005D8DFE800F002080B0E44F002040C4BAA
S21400A9601D684DB9F8BD44F00804F8E744F020042B
S21400A970F5E744F08004F2E76B681A68144203D0E7
S21400A9805B683946304698472D68EAE7847B0300C3
S21400A990F01E002038B5104C2278AAB10F4D2B7847
S21400A9A01BB100F049FB00232B70002000F068FB71
S21400A9B00B4D50B100F06EFB002301212878237068
S21400A9C0FFF7BCFF01232B7038BD0122054B1A7020
S21400A9D02A78054B1A70F7E7EE1E0020E91E0020C5
S21400A9E0E01E0020ED1E0020001F002010B5FEF720
S21400A9F037FE064B04461B781BB1BDE81040FEF739
S21400AA0033BEFFF7C7FF2046F7E700BFE81E00206B
S21400AA1070B5FEF725FE114D06462A788AB900F075
S21400AA2053FC044620B13046FEF71EFE204670BD9D
S21400AA300B48FCF7B1FD0B4B1C6000F07FFD0A4B8A
S21400AA40186000F039FA00F059FB084B0024186033
S21400AA50012330462B70FEF707FEE7E7EA1E0020CC
S21400AA60F01E0020041F0020FC1E0020E41E002014
S21400AA70002914BF0121FF212DE9F843264A00F1E1
S21400AA80FF30135C0B4413543CD0244D2A78012A23
S21400AA9038D9FFF749FF0128064635D8FEF7E0FD0E
S21400AAA01F4B07461A78994612B31E4C23781BB9DB
S21400AAB0012222701C4A1370DFF8708098F800306C
S21400AAC023B100F0B9FA002388F800303846FEF7C4
S21400AAD0CBFD012000F0D4FAFEF7C2FD237807462E
S21400AAE01BB100F0D7FA00232370002389F800304A
S21400AAF03846FEF7B9FD2878B04203D03146FFF756
S21400AB001DFF2E70BDE8F883032AF4D10228F2D187
S21400AB1000F00EFBEFE700BFF41E0020E01E002052
S21400AB20EE1E0020E81E0020ED1E0020E91E00207C
S21400AB3010B50446FEF794FD002C14BF0121FF213A
S21400AB40064A13780B44DBB21370B3FA83F3BDE8FE
S21400AB501040034A5B091370FEF786BDF71E0020FF
S21400AB60F61E002038B5FEF77BFD094B05461B7820
S21400AB70012B04D8FEF778FD0024204638BD054B8F
S21400AB801C6800F0BFFA04442846FEF76DFDF4E7A3
S21400AB90E01E0020041F002010B5FEF761FD0446ED
S21400ABA0FFF7F8FE2046BDE81040FEF75DBD00004A
S21400ABB038B541600446FEF753FD05462146044875
S21400ABC0FCF7EDFC2846BDE83840FEF74DBD00BF5B
S21400ABD0F01E0020054B1B685843054B00F57420FB
S21400ABE000F23F20B0FBF3F0704700BFFC1E0020D1
S21400ABF040420F002DE9F04F85B0FEF731FD0546C7
S21400AC0000E000BFFBF7D1FB002800F0BB80DFF8B8
S21400AC10EC91DFF8ECA14E4699F8003033B16C4A5F
S21400AC201378013B1370002389F80030FFF77CFE91
S21400AC30684C694FE0B10238012820D803A90020EB
S21400AC4000F03CFC8346D0B9644B039A1B689A42DA
S21400AC5000F2A0805E4A1378013313702378012B2C
S21400AC6003D93B780BB9FFF795FE0123337006E056
S21400AC70337823B1564A30701378013B1370FFF7D0
S21400AC8053FE0128804604D9554B1B780BB900F0BB
S21400AC908FF92078DFF86CB1404509D000238BF897
S21400ACA000303B7813B94146FFF748FE84F8008031
S21400ACB09BF800303BB12378022B04D100238BF89D
S21400ACC0003026F07DFAB8F1010F0FD9DFF81081B9
S21400ACD098F8003053B9434B1B7823B900F0A6F917
S21400ACE00122414B1A70012388F80030207800F0CA
S21400ACF0EFF93B7813B13D4B1B78237000E000BFA3
S21400AD002846FEF7B1FCFEF7ABFC394B05461A7831
S21400AD1052B100221A70354A23781078984203D12F
S21400AD2001212170FFF70AFE504600F007FBFBF7F3
S21400AD3051FB804600287FF46FAF294B8BF800004C
S21400AD401A78994682B13870274F3B781BB100F0CD
S21400AD5073F987F80080002000F092F970B300F0D5
S21400AD6099F9002389F8003033782BB1184A137804
S21400AD70013B13700023337000212078FFF7DEFDBF
S21400AD800023237000E000BF2846FEF76DFC05B0E8
S21400AD90BDE8F08F174BD3F8008000F0B3F90399A5
S21400ADA040448842BFF456AF0223091ACDE900B3E7
S21400ADB0114A5B46504600F0E9FA60E7012000F0D1
S21400ADC087F92846FEF750FCFEF74AFC0546C2E720
S21400ADD0F41E0020E01E0020ED1E0020E41E0020D1
S21400ADE0EE1E0020F71E0020E91E0020001F002097
S21400ADF0EC1E0020041F0020EDA90000F81E002015
S21400AE00C41E0020F61E002010B5FEF729FC002206
S21400AE10044B1C781A70FEF727FC00F06BFC2043EE
S21400AE20C0B210BDEB1E0020094B10B51B786BB1ED
S21400AE30084C237853B100F02DF90023064A2370FE
S21400AE4013700123054A1370054A137010BD00BF26
S21400AE50E01E0020ED1E0020EE1E0020EB1E00204F
S21400AE60EC1E00207047000073B5114E0446327881
S21400AE70824212D000238DF8043080B102238DF870
S21400AE80053001A8FEF798FC0A4D402054B1FFF7A4
S21400AE90A1FE2B68181A2860347002B070BD8DF8B9
S21400AEA00500EEE7FFF796FE2B681844F3E700BFB1
S21400AEB03C0C00200C1F0020F7B5002402A800F868
S21400AEC0044DFEF739FD4FF40025204641F2640498
S21400AED0FFF7CAFF304A314B116F01F007011960C6
S21400AEE0D2F82031D2F8240115514FF4003515510F
S21400AEF002F5A0329269032900F0070002F0020270
S21400AF0042D003F003039C1E63426341022808BF3D
S21400AF1043F001032249234C0B706AB31E4A3BB927
S21400AF20D2F8003103F00303581E434243410B702E
S21400AF30D2F8003103F00303022B27D0032B28D0CE
S21400AF40012B19D1FCF7B8F8B0B10027164B024612
S21400AF50DB68461EC3F30B030133144803EB83017F
S21400AF60E0FB01670023304639462CF02BFAFFF74A
S21400AF7031FE2368184420606420FFF72BFE236808
S21400AF801844206003B0F0BD0123BFE7FCF7B6F815
S21400AF90DAE7FCF7A7F8D7E7008000505C46002009
S21400AFA00A1F00200C1F002000C0015040420F0066
S21400AFB0FEF758BC074B1A7852B100221A70064AA0
S21400AFC0136F23F0070343F001031367FCF75EB823
S21400AFD0704700BF081F002000800050104B10B5BF
S21400AFE01B788BB1022000F039FC68B100F094FAAF
S21400AFF050B10C4B9A6DD10307D5DA6D920704D584
S21400B00041F228020121995010BD0124064B1C7004
S21400B010FFF730FB41F22803024AD450F4E700BFA2
S21400B0200A1F002000C00050091F00200122014B0B
S21400B0301A707047081F002038B50E4B1B787BB17E
S21400B0400D4C22789AB90D4B9A6D1D4612F4803F2E
S21400B05007D0DA6D920704D541F2280201219950F3
S21400B06038BDFFF707FB41F228030122EA50002310
S21400B0702370F5E70A1F0020091F002000C00050BB
S21400B080034B1B780BB1FFF765BB0120704700BF71
S21400B0900A1F002008B5FEF7E8FB0A4A0A49136FA4
S21400B0A0096823F007030B431367084B1B782BB183
S21400B0B042F22803012102F58042D150BDE8084043
S21400B0C0FBF7E4BF008000505C4600200A1F00200B
S21400B0D002280AD003280BD001280CD1064A13698F
S21400B0E023F00403136130BF70470020FEF772BBE5
S21400B0F00020FEF795BB704700ED00E04FF4C870E7
S21400B100FFF768BD08B5054B187818B1FFF7F8FAD1
S21400B11000EBD000024B1B68184408BD0A1F002035
S21400B1200C1F00200122014B1A7070470A1F0020D6
S21400B1307047000038B500F02BFB0025094B0A4C81
S21400B1401A682368C31A02B10BB9206038BD51696A
S21400B150994225BFCB1A53615561002338BF5B1A4D
S21400B1609268F0E7281F0020141F0020C38870B5DF
S21400B17004460D463BB9FFF7F5FC8542064602D26B
S21400B180FFF70AFD3546104A656113681046ABB9ED
S21400B1901460A36011E06D1A996865611A4679B16A
S21400B1A00B465969A942F6D90029F4D052B19460E9
S21400B1B0A36013B15969491B596170BD0022F0E7BD
S21400B1C00B46F4E70460F3E7281F002038B5134C5D
S21400B1D02268526992B1124B02201D68154400F095
S21400B1E011FB284600F0DCFA00230E4922680B709B
S21400B1F0D088800709D501230B7038BD022000F0E7
S21400B20001FB022000F022FBEEE79268002AF4D051
S21400B21050690344012BEBD9EFE700BF281F00203D
S21400B220141F00201C1F002070B516469DF8142021
S21400B230C0E903360271049ABDF818300260002295
S21400B240C380826004460D4600F0A2FA3044A06136
S21400B2503DB9E368656113B121682046984796B109
S21400B2603546FEF7FDF90646FFF764FF29462046F9
S21400B270FFF77CFF054B1B68A34201D1FFF7A6FF33
S21400B2803046FEF7F1F9002070BD00BF281F0020F1
S21400B29000210C4A13687BB183420AD1836879B1D6
S21400B2A08B6083681BB15A6941690A445A61002061
S21400B2B0704719469B68EEE70028EFD002207047DB
S21400B2C01360EEE7281F002070B5FEF7D0F9144E85
S21400B2D005463478FCB9134B1C60134B1C60134BAB
S21400B2E01C8000F013FA012000F08CFA00F0E0FA5F
S21400B2F00F4B0246186020B92846FEF7BEF92320F9
S21400B30070BD23460B4840F2E7312CF05BF80A4B41
S21400B3101860012333702846FEF7AFF90020EFE7E8
S21400B320101F0020281F0020141F00201E1F0020B2
S21400B330241F002018FCFFFF181F00202DE9F041F5
S21400B3400546F8B1FEF78CF90F4F0646FFF7F2FEFA
S21400B3502846D7F80080FFF79BFF044628B1304602
S21400B360FEF782F92046BDE8F081A8453B6803D188
S21400B37023B1FFF72BFFF2E7002BF0D1022000F0FD
S21400B3804DFAECE72224EDE7281F0020F0B50D4625
S21400B39085B016461F46044680B1FFF7CFFFBDF8BE
S21400B3A02C30002202939DF828302946CDE9007300
S21400B3B020463346FFF738FF05B0F0BD2220FBE7F6
S21400B3C0F0B50D4685B016461F46044680B1FFF719
S21400B3D0B5FFBDF82C302A4602939DF82830294642
S21400B3E0CDE9007320463346FFF71EFF05B0F0BDDB
S21400B3F02220FBE738B50C46054698B191B10023EC
S21400B4000B70FEF734F90121074B1B680BB122784D
S21400B4101AB1FEF732F9002038BD9D420CBF2170EC
S21400B4209B68F3E72220F7E7281F0020F0B51F46A9
S21400B430002387B00D4616468DF817300446A0B197
S21400B4400DF11701FFF7D6FF9DF817207AB9BDF862
S21400B4503430294602939DF830302046CDE90073FB
S21400B4603346FFF7E1FE07B0F0BD2220FBE70320DE
S21400B470F9E7F0B51F46002387B00D4616468DF84F
S21400B48017300446A8B10DF11701FFF7B3FF9DF87A
S21400B490173083B9BDF834302A4602939DF8303011
S21400B4A02946CDE9007320463346FFF7BDFE07B0B8
S21400B4B0F0BD2220FBE70220F9E70000F8B50746BA
S21400B4C00E46FEF7D4F800240546114B1B6823B938
S21400B4D02846FEF7D2F81B2015E05A691444DA888D
S21400B4E0BA4213D100F054F90A4F3B68C01AA04282
S21400B4F00AD200F04DF93B68C01A201A3060284680
S21400B500FEF7BBF80020F8BD0020F7E79B68DEE7F3
S21400B510281F0020141F0020014B1878704700BF1A
S21400B5201C1F002038B5FEF7A2F8054600F030F9DB
S21400B53004462846FEF7A1F8204638BD014B186899
S21400B540704700BF241F00200C4BD0B51B680C466C
S21400B550834210D340F2E7360027094B4FF47A7245
S21400B56019680023E1FB0067304639462BF02AFFB6
S21400B57020600020D0BD2120FCE700BF181F00205F
S21400B580241F0020014B1868704700BF181F0020BA
S21400B590104B10B51A68B2B14FF47A73A0FB0301D2
S21400B5A0531E134211D1B2FA82F2C2F11F02C2F147
S21400B5B02004A2F1200301FA04F420FA02F2224346
S21400B5C021FA03F31A43104610BD00232BF0FAFEAF
S21400B5D00246F8E7241F0020C2072DE9F04704467C
S21400B5E00BD5414A138801339BB21380FFF7A2FDA7
S21400B5F03E4B1B680BB1FFF7E9FDA30771D5FEF7BD
S21400B60036F800260546B046FFF794FDDFF8DC90D6
S21400B610D9F800400CB1636993B10022344BB8F1FD
S21400B620010F1A7003D1022E08BF83F80080002C89
S21400B63046D0FFF7CBFD2846BDE8F047FEF71DB81D
S21400B64023465A693AB91A792179914288BF1C462D
S21400B6509B68002BF5D12846FEF70FF825699DB3A9
S21400B66000231F4600F094F82E46A169451AEB17F2
S21400B670AE4277EB030329DA23690B44A361012367
S21400B68022697AB173B9761BFDF7F1FF054631469C
S21400B6902046FFF76BFDA369226928461344A36181
S21400B6A0FDF7EBFFE368E68808F1010813B12168AF
S21400B6B020469847FDF7DBFF0546FFF73BFDA7E76B
S21400B6C0022000F0ABF8B6E700221646FDF7CFFFE3
S21400B6D082462046FFF7DCFD5046FDF7CEFF0023EE
S21400B6E0CEE7BDE8F08700BF1E1F0020281F002001
S21400B6F0201F002010B5FDF7BAFF034B1C78FDF79E
S21400B700BCFF204610BD00BF201F00201FB5002430
S21400B7101C4B012118689A88029053F8060FADF862
S21400B7200C201B7900903E208DF80430FDF7A2FA1D
S21400B73002A88DF808408DF80C40FEF7F5FB694628
S21400B74001208DF80040FEF7B3FB4FF0B04340F207
S21400B750FF319A6922F47F7222F003029A610A4A44
S21400B76011609A6A12F00802FBD11A620120FEF7F5
S21400B770B9FB4FF48052054BC3F880211A6004B021
S21400B78010BD00BF887B03001420005800E100E0D5
S21400B7904FF0B0439A6A1207FCD4186A704700004C
S21400B7A010B50446FDF75CFF4FF0B042936A1907E8
S21400B7B0FCD4136A116C5269520604D4CA1A032ABE
S21400B7C001D899420ED1E21A022A98BFDC1CB4F1C5
S21400B7D0FF3F38BF013C4FF0B0431C649A6942F00B
S21400B7E040029A61FDF740FF054A13783BB14FF0DF
S21400B7F0B041CB6B43F00203CB630023137010BD44
S21400B8003D0C002082074FF0B04200F00103916922
S21400B81048BF43F040030B4393617047830700F033
S21400B82001020AD50121084B42F0400219704FF080
S21400B830B041CB6B23F00303CB634FF0B0418B6971
S21400B84023EA02038B6170473D0C0020830742BF4A
S21400B8504022014B1A607047141000584FF0B04356
S21400B86001285B6904D0022805D1C3F38010704715
S21400B87003F00100704700207047000010B5FDF788
S21400B880F6FE4FF0B04304465B695A06074A03F0DB
S21400B890010003F0510348BF40F002001360FFF7B9
S21400B8A09BFE2046BDE81040FDF7E7BE142000587A
S21400B8B03E20FDF7FFB908B5FAF706FDFAF73EFD9C
S21400B8C0FAF747FDFAF756FDBDE80840FAF75BBD04
