S01B000062745F616F615F736F635F61737365745F7461672E733337B5
S214012000C00A0020B1310100AD310100AD3101003F
S2140120108D580100AD310100AD310100AD31010037
S214012020AD310100AD310100AD310100AD3101002E
S214012030AD31010028E103002D280100AD3101007A
S214012040AD310100AD310100AD310100AD3101000E
S214012050AD310100AD310100AD310100AD310100FE
S214012060AD310100AD310100AD310100AD310100EE
S21401207061670100AD310100AD310100492A01005F
S214012080552A0100AD310100AD310100AD3101002D
S214012090AD310100AD310100AD310100AD310100BE
S2140120A0AD310100AD310100AD310100AD310100AE
S2140120B0AD31010039BC0300AD31010019C6030082
S2140120C0D1C50300CDC5030009BE030015C6030034
S2140120D0D5C50300EDC50300D9C5030079C60300C5
S2140120E0E9A00300B1A2030059C60300AD31010007
S2140120F0414F0100AD310100AD310100AD310100AC
S214012100AD310100AD310100AD310100AD3101004D
S214012110AD310100AD310100AD310100AD3101003D
S214012120AD310100AD310100AD310100AD3101002D
S214012130AD310100AD310100AD310100AD3101001D
S21401214010B5054C237833B9044B13B1044800E0AD
S21401215000BF0123237010BDB00E00200000000058
S214012160942D040008B5034B1BB10349034800E056
S21401217000BF08BD00000000B40E0020942D04002E
S214012180154B002B08BF134B9D46A3F5803A002143
S2140121908B460F461348144A121A2AF02CFD0F4B91
S2140121A0002B00D098470E4B002B00D098470020FC
S2140121B0002104000D000D48002802D00C4800E064
S2140121C000BF2AF0B1FC2000290000F023FB2AF012
S2140121D097FC00BF00000800C00A002000000000B5
S2140121E000000000B00E00201029002000000000B2
S2140121F0000000007047704770B50368AC4A23F4CE
S2140122007F4323F0070393428CB0044600F0B2816B
S21401221002F18072934200F04D82A64A934240F04A
S214012220A781032000F098FE90B1A34DA34928682A
S21401223002F0C9FE00F0B0FE00F0AFFE6189E3884F
S214012240A28801912189009128689D4902F0BBFE70
S2140122500DF11F0108A81CF0B1F8054630B3964CE5
S2140122609849206802F0AFFE9749206802F0ABFE5D
S21401227000F092FE00F091FE944B954A009395492A
S2140122805D23206802F09FFE2B46934A93492068FF
S21401229002F099FE284600F0A7FE9149206802F058
S2140122A092FE8849206802F08EFEFEE79DF82530F2
S2140122B001468DF828309DF8243008228DF8293003
S2140122C09DF8233012208DF82A30FF238DF82B300D
S2140122D0FE238DF82C309DF822308DF82D309DF898
S2140122E021308DF82E309DF820308DF82F300AAB36
S2140122F01CF036F8054630B36F4C7249206802F080
S21401230062FE7149206802F05EFE00F045FE00F0B4
S21401231044FE6E4B6E4A00936E496D23206802F0B0
S21401232052FE2B466C4A6D49206802F04CFE284648
S21401233000F05AFE6A49206802F045FE61492068AD
S21401234002F041FEFEE7032000F006FE20B35A4CE1
S2140123505A49206802F037FE00F01EFE00F01DFE0E
S2140123609DF82020206804929DF821205D49039263
S2140123709DF822209DF81F4002929DF823209DF88B
S214012380253001929DF824200092574A002C08BF60
S2140123900A46564902F017FE554C20461BF0D0FE61
S2140123A0054630B3444C4749206802F00CFE4649C6
S2140123B0206802F008FE00F0EFFD00F0EEFD434B52
S2140123C0434A009343497A23206802F0FCFD2B46DA
S2140123D0414A4249206802F0F6FD284600F004FE14
S2140123E03F49206802F0EFFD3649206802F0EBFD18
S2140123F0FEE7022120781BF0EFFE054630B32E4C97
S2140124003049206802F0DFFD2F49206802F0DBFD2D
S21401241000F0C2FD00F0C1FD2C4B2D4A00932D4962
S2140124207F23206802F0CFFD2B462B4A2B492068DC
S21401243002F0C9FD284600F0D7FD2949206802F0C0
S214012440C2FD2049206802F0BEFDFEE7A0222078EA
S2140124502B46009511461BF08BFE0546002849D0F9
S214012460154C1849206802F0AEFD1749206802F0A5
S214012470AAFD00F091FD00F090FD144B144A009364
S21401248014498823206802F09EFD2B46124A134900
S214012490206802F098FD284600F0A6FD1049206845
S2140124A002F091FD0749206802F08DFDFEE700BFAE
S2140124B0A0000600A0000100640F0020CBDB030093
S2140124C0D0DB03006DDC0300F7DB0300A0DB0300B9
S2140124D0FCDB030005DC030011DC030014DC030055
S2140124E029DC0300BDDB0300AFDB03003ADC03009D
S2140124F0C00A0020022120781BF082FE054630B378
S214012500A54CA649206802F05EFDA549206802F0A8
S2140125105AFD00F041FD00F040FDA24BA24A009397
S214012520A2498C23206802F04EFD2B46A04AA14901
S214012530206802F048FD284600F056FD9E492068B6
S21401254002F041FD9549206802F03DFDFEE70320BB
S21401255000F002FD60B1904C9849206802F033FD0E
S21401256000F01AFD00F019FD9549206802F02BFDD8
S2140125700CB070BD032000F0EFFC68B1864D8F49AA
S214012580286802F020FD00F007FD00F006FD227B22
S2140125908C49286802F017FD032000F0DDFCB0B17D
S2140125A07D4D8649286802F00EFD00F0F5FC00F02E
S2140125B0F4FC2179237A627A039161790291A179F7
S2140125C00191E179009128687F4902F0FCFC7F4A7D
S2140125D013780133DBB2032B1370C9D87C4C02216C
S2140125E020781BF0F9FD054630B36B4C6B4920682B
S2140125F002F0E9FC6A49206802F0E5FC00F0CCFC38
S21401260000F0CBFC674B684A00936849A123206819
S21401261002F0D9FC2B46664A6649206802F0D3FCD4
S214012620284600F0E1FC6449206802F0CCFC5B49D6
S214012630206802F0C8FCFEE7022120781BF0E0FDCE
S214012640054630B3544C5549206802F0BCFC544949
S214012650206802F0B8FC00F09FFC00F09EFC514B95
S214012660514A00935149A523206802F0ACFC2B4641
S2140126704F4A5049206802F0A6FC284600F0B4FCF8
S2140126804D49206802F09FFC4449206802F09BFCFB
S214012690FEE7032000F060FC00283FF469AF3E4CE3
S2140126A04649206802F08FFC00F076FC00F075FCCD
S2140126B048495AE7032000F04FFC68B1364D3F49C0
S2140126C0286802F080FC00F067FC00F066FCA27946
S2140126D04149286802F077FC3D4E022130781BF014
S2140126E07BFD054630B32C4C2C49206802F06BFC70
S2140126F02B49206802F067FC00F04EFC00F04DFC10
S214012700284B294A00932949B323206802F05BFC31
S2140127102B46274A2749206802F055FC284600F038
S21401272063FC2549206802F04EFC1C49206802F033
S2140127304AFCFEE7254C2378032B60D9022130782A
S2140127401BF05EFD0546002848D0134C134920684F
S21401275002F039FC1249206802F035FC00F01CFC3E
S21401276000F01BFC0F4B104A00931049B923206858
S21401277002F029FC2B460E4A0E49206802F023FC83
S214012780284600F031FC0C49206802F01CFC034985
S214012790206802F018FCFEE7640F00206DDC0300E1
S2140127A0F7DB0300A0DB0300FCDB030005DC030012
S2140127B011DC030014DC030029DC0300CBDB03007F
S2140127C06FDC030084DC03009BDC0300CC0E0020DE
S2140127D0C00A0020CADC0300E0DC0300032000F08E
S2140127E0BBFB60B1084D0949286802F0ECFB00F01C
S2140127F0D3FB00F0D2FB0649286802F0E4FB2378FD
S214012800013B2370B4E600BF640F0020CBDB03005E
S214012810F7DC030008B503F0C0FFFFF7EBFC03F09D
S214012820C9FFFFF7E8FC03F09BF9F8E707F0BCBF28
S21401283004F006B810B5044600F0FEFA204600F093
S21401284047F9204600F074F92046FFF7D5FC10BD85
S2140128500120704700B5C3B007F0C8FE07F0F1FECF
S21401286048B1FFF7F5FF30B101A81BF062FC10B9C3
S21401287001A8FFF7DFFF43B05DF804FB08B50120B0
S21401288000F0D4FB202000F0D1FBBDE8084040203A
S21401289000F0CCBB08B50321802001F04BFB0321DF
S2140128A04FF4806001F046FB03214FF4906001F085
S2140128B041FB08214FF4C06001F03CFB08214FF4B6
S2140128C0F06001F037FB08213E2001F033FB0821C0
S2140128D02D2001F02FFB002008BD0000194B10B57C
S2140128E01B68C3F30743012B10D1174B4FF480220B
S2140128F0596E41F2640049034FF0040458BF42F296
S21401290064011A501148046058BF5A5002F030FA58
S21401291000F0B5FB02F0B8F902F048FA02F0D6F979
S21401292002F00AFA02F00EFAFFF7B4FF02F0BCF961
S21401293000F09AFB00F00CFD00F052FDBDE81040DF
S21401294003F01CB80080E00F0080005020200150EA
S214012950704708B500F068FB03F06CFC02F028FA3B
S21401296002F07CFB06F0F9FA02F0ECFE04F0B8FF88
S21401297006F0FCFCBDE8084000F058B808B502F0C7
S21401298053F902F061F9BDE80840FFF751BF00F0C6
S21401299005BB70477047FFF75DBF704770B5124EB5
S2140129A092B035460BAC0FCD0FC495E80700032354
S2140129B084E8070006F11C0506AC8DF845300FCDFE
S2140129C00FC42B68236002AC06F130030FCB84E8FA
S2140129D00F00064B0BAA0093214606AB044802F0F3
S2140129E0B1FD12B070BD00BFB4DF0300D00E0020F1
S2140129F03C0F0020831E012B0AD8012908D8042287
S214012A00094B1B68C3F340130521002001F0C4BD28
S214012A100239012907D8012805D8034B00221B6873
S214012A20C3F34013F0E7704710C0035008B50449DC
S214012A30044803F073F8BDE80840FFF7AFBF00BFD6
S214012A40080B0020140F0020014B186802F03EBE50
S214012A503C0F0020FFF7F8BF014B1A6A18681047B1
S214012A603C0F0020012070470120704710B507F089
S214012A7029FE0446FFF7F6FF002814BF2046002073
S214012A8010BD38B503F076F9044607F029FE042890
S214012A9017D002284FF0000508BF0124FFF7DCFF1E
S214012AA0042810D0022808BF0124FFF7DDFF042800
S214012AB00BD0022808BF0124002D18BF0024204691
S214012AC038BD0125EAE70125EFE70024F7E7000016
S214012AD00368164A23F47F4323F00703934210B595
S214012AE022D1B0F80530222B1ED1817A0479012932
S214012AF017D1C37ADB0710D5002320461A461BF0F0
S214012B00E9FB41F2FC13002818BF1846C2B2222185
S214012B102046BDE810401BF039BC20461BF0F0FBF8
S214012B20EFE741F20D10F1E710BD00BFA0000A0269
S214012B30036837B523F47F43384A23F007039342EB
S214012B40014607D002F1027202F58032934206D0A6
S214012B5003B030BD03B0BDE8304000F0ADB8B0F80A
S214012B6005400579A4F11803827A082BF0D801A054
S214012B7050F823F0992B0100512B0100AB2B0100DB
S214012B80512B01000B2C0100512B0100BB2B010026
S214012B90512B0100FD2B0100012A39D1CB7A9A1E57
S214012BA0122A38D81E4A137019E0012A30D1CB7A7E
S214012BB05A1E0E2A2FD81B4AF5E7531E012B27D87B
S214012BC0002302A820F8023D0B3129F0F0FF164A37
S214012BD0BDF8063012889A421DD8144A138000F0B8
S214012BE029F841F2FC12002808BF00222146284697
S214012BF0D2B203B0BDE830401BF0C8BB012A07D1F2
S214012C00CB7A012B07D80A4ACDE741F2FC12EDE751
S214012C1041F20D12EAE741F2FF12E7E7A0000100D8
S214012C20FA270020F8270020F8DF0300FC27002001
S214012C30F92700201A4B13B51B781A4C53B91A4BB7
S214012C4020781A880023114600931BF091FA38B1B8
S214012C5002B010BD20781BF0ADFA0028EFD0F7E7E0
S214012C60124B01211B782078012B14BF012202226E
S214012C701BF0DAFA0028EBD10146022220781BF07D
S214012C80FFFA0028E4D12478094A0A4B11781B7808
S214012C900246CDE9000020461BF044FBD8E700BF02
S214012CA0600F0020100B0020FC270020F9270020D1
S214012CB0FA270020F82700201421F0B54E4B85B0E6
S214012CC01A880126ADF80C204C4A9B7811702021F9
S214012CD08DF80E3000234A4A4A4F16704A4A4B4C2A
S214012CE011804B4A3846237013701BF029FA0546AB
S214012CF030B3484C4849206802F065F947492068D6
S214012D0002F061F900F048F900F047F9444B454AF2
S214012D10009345494023206802F055F92B46434A63
S214012D204349206802F04FF9284600F05DF9414911
S214012D30206802F048F93849206802F044F9FEE7B5
S214012D4003AA032138781BF085FA054630B3314CC7
S214012D503149206802F037F93049206802F033F92A
S214012D6000F01AF900F019F92D4B2E4A00932E495E
S214012D704623206802F027F92B462C4A2C49206866
S214012D8002F021F9284600F02FF92A49206802F0BE
S214012D901AF92149206802F016F9FEE7FFF74AFF03
S214012DA0054630B31B4C1C49206802F00CF91B4940
S214012DB0206802F008F900F0EFF800F0EEF8184B82
S214012DC0184A009318494A23206802F0FCF82B465B
S214012DD0164A1749206802F0F6F8284600F004F96A
S214012DE01449206802F0EFF80B49206802F0EBF86E
S214012DF0FEE7267005B0F0BDF4DF0300FA270020D9
S214012E00F8270020100B0020FC270020600F002070
S214012E10F9270020640F00206DDC0300F7DB0300B8
S214012E20FADF030007E0030005DC030011DC030002
S214012E3014DC030029DC0300036837B523F47F4361
S214012E403A4A23F007039342044664D002F18272A1
S214012E50934268D1B0F80510152964D10122344B8C
S214012E6000791A7000221BF091FA054630B3314CF6
S214012E703149206802F0A7F83049206802F0A3F82B
S214012E8000F08AF800F089F82D4B2E4A00932E495F
S214012E903F23206802F097F82B462C4A2C492068DD
S214012EA002F091F8284600F09FF82A49206802F0BF
S214012EB08AF82149206802F086F8FEE720791BF09F
S214012EC0F7F9054600282ED01A4C1B49206802F057
S214012ED07AF81A49206802F076F800F05DF800F0FA
S214012EE05CF8174B174A009317494323206802F0F2
S214012EF06AF82B46154A1649206802F064F82846F7
S214012F0000F072F81349206802F05DF80A4920685B
S214012F1002F059F8FEE7064B1B7823B103B0BDE873
S214012F20304003F079BC03B030BD00BFA0000601FD
S214012F30610F0020640F00206DDC0300F7DB030047
S214012F407AE003009AE0030005DC030011DC0300CD
S214012F5014DC030029DC03000B4B1B7893B10B4BED
S214012F601B78834234BF00230123094A12783AB101
S214012F70084A127842FA00F010F0010F08BF002349
S214012F80184670470123F0E7110B0020120B0020B2
S214012F90680F0020130B002070477047012208B508
S214012FA0074B1A700022074B1A700422064B1A7040
S214012FB01F22064B1A7001F0D1FF054B186008BDA1
S214012FC0110B0020680F0020120B0020130B0020AD
S214012FD0640F0020024B0349186801F0F4BF00BFDC
S214012FE0640F00200AE1030070B50C4C0C4906463C
S214012FF0206801F0E8FF01F0B1FF0546206801F006
S214013000A1FF3046FFF7E6FF284601F09BFF206848
S2140130100449BDE8704001F0D6BF00BF640F002030
S21401302005E1030007E103000F207047082808B5F3
S2140130300DD004DC0138012809D90E2013E0202820
S2140130400AD04028F9D100230422194602E00422BE
S21401305000231146184603E00422002311460120EE
S21401306001F09AFA002008BD08B501213A2000F0C7
S214013070E9FBFFF703FCBDE8084000F005B80121B5
S2140130803A2000F0DFBB00002DE9F047434D88B041
S21401309001AC0FCD0FC495E80700012584E80700B1
S2140130A001213A2000F0CEFBDFF8FC800121282028
S2140130B000F0C8FB3A4B01A9404603938DF8125025
S2140130C001F060FC2B4604220021022001F064FA84
S2140130D02A4629460023022001F05EFA02212B46E9
S2140130E00846042201F058FA042203212B46022046
S2140130F001F052FA4FF002132A4C0226C4F8303679
S214013100A3F58033C4F82C361C23082742F2700A34
S21401311041F27009C4F834664FF44870C4F81C369E
S21401312003F054FB44F80A70142003F04FFB44F8F4
S2140131300970232003F04AFB44F80A70B92140467F
S21401314001F086FC002330461A46194644F80970F9
S21401315001F022FA002329461A46304601F01CFAED
S2140131602B4631463046002201F016FA2B46002245
S2140131700321304601F010FA404601F053FB0021CE
S2140131802820C4F83016C4F82C16C4F83416C4F82F
S2140131901C1600F057FB08B0BDE8F0870CE10300F1
S2140131A000127A0000C0035000C00550FEE7000080
S2140131B008B500F035F8164B1649A3F10C028A4201
S2140131C017D30020144B1549A3F108028A421DD3D8
S2140131D0FEF7D6FF53F80C0C50F8224053F8080CB3
S2140131E040F82240013253F8040C8242F2D30C33E9
S2140131F0E3E70022F7E753F8084C44F822000132CF
S21401320053F8044CA242F6D30833DDE70022F7E771
S214013210A82D0400A82D0400B02D0400A82D04003C
S214013220164B174A10B59A60D3F888204FF4004120
S21401323042F47002C3F8882041F26803114AD15063
S21401324042F260024FF0FF310F4B995042F2640296
S2140132504FF6DF71995002210C4A1160BFF34F8F70
S214013260BFF36F8F08204FF4403242F20C04084936
S214013270C1F880011A5108601A6110BD00ED00E026
S214013280002001000080005000800044D0ED00E0E6
S21401329000E100E0014B1868704700BF180B0020E2
S2140132A0084B1B6F03F00703022B04D0032B05D03A
S2140132B0012B05D0FEE7044B18687047034BFBE76C
S2140132C00348704700800050180B00201C0B00209C
S2140132D0002D310108B5FFF7E3FF054B1B6FC3F364
S2140132E003330133B0FBF3F0024B186008BD00BF97
S2140132F000800050140B00200048704700B4C4043E
S214013300014B1868704700BF1C0B0020054B186066
S214013310054B1B6F03F00703032B01D1FFF7DABF41
S214013320704700BF1C0B0020008000500020704733
S21401333000487047002D31014FF4004070474FF4AC
S2140133407A707047014B1868704700BF200B002049
S21401335028231B6810B5B3F5903F0AD2074C227894
S21401336012F0FD0F08D1DB69984708B901232370D5
S21401337010BD4FF48170FBE70020F9E7690F0020CC
S2140133804FF00053074A1A60BFF34F8F0649074BA9
S214013390CA6802F4E0621343CB60BFF34F8F00BFED
S2140133A0FDE700BF02020FF000ED00E00400FA05A1
S2140133B000230360704703680B60016070470000DC
S2140133C0054A06491368184488428CBF4FF0FF33FC
S2140133D010601846704700BF240B002000800020B4
S2140133E0024B1968024B186821F072BB2C0B0020A7
S2140133F0280B00207047000070B594002246054651
S2140134000E462AF0C5FB431C02D018B1064800E060
S214013410064870BD22463146284629F0B9FB0028E9
S214013420034808BF0020F4E724E000F021E000F0A4
S21401343010E000F013B5044601A801F08DF99DF8DF
S2140134400630012223804FF4807300206380054BF1
S2140134509B680A3303F01F0302FA03F3636002B0AA
S21401346010BD00BF0080E00F01F0EEB808B501F016
S214013470D7F8002008BD10B5044644EA010313F04E
S2140134800303084609D1934201D1002010BD54F828
S214013490231040F823100133F5E79200214629F066
S2140134A086FBF2E710B504462AF06AFB431C02D0FD
S2140134B018B10C4800E00C4810BD0C4B20469B6828
S2140134C00A3303F01F020123934023F0030323442E
S2140134D0984201D10020EFE750F8042B0132F7D0D3
S2140134E00348E9E724E000F021E000F00080E00F67
S2140134F00EE000F008B500F09BFE014B186008BD19
S21401350050280020014B186800F096BE5028002075
S2140135100A460139014402F067B90000044A1368FB
S214013520DB06FCD4034BD3F88400C0F3811070474C
S214013530844000500040005038B5104B0546D3F883
S21401354020310C4603F00303022B0BD0032B0DD0C6
S214013550012B0FD1FFF79EFE052305B1286004B1AC
S214013560236038BDFFF7CCFE0323F6E7FFF7E0FE46
S2140135700223F2E700231846EFE700BF0080005061
S21401358073B50D4600210E4B0191D3F880410646D6
S21401359004F00304012C08D0022C0BD00EB1019BC1
S2140135A0336005B1296002B070BD01A8FFF7C4FF02
S2140135B00F21F3E7FFF7BCFE21460190EEE700BFBF
S2140135C00080005038B5174B0546D3F824310C4619
S2140135D003F00703013B052B20D8DFE803F0030FB8
S2140135E0171B0B13FFF756FE052305B1286004B120
S2140135F0236038BDFFF74EFE0623F6E7FFF780FE91
S2140136000323F2E7FFF77CFE0423EEE7FFF790FEC5
S2140136100223EAE7FFF78AFE0723E6E700231846B8
S214013620E3E700BF0080005038B5104B0546D3F8DD
S21401363040310C4603F00303022B0BD0032B0DD0B5
S214013640012B0FD1FFF778FE092305B1286004B1DD
S214013650236038BDFFF776FE0823F6E7FFF76FFE17
S2140136600B23F2E700231846EFE700BF0080005067
S21401367038B5134B0546D3F800320C4603F0070362
S214013680013B032B18D8DFE803F0020A0E12FFF7FE
S21401369053FE092305B1286004B1236038BDFFF746
S2140136A051FE0823F6E7FFF74AFE0B23F2E7FFF782
S2140136B011FE0E23800AEDE700231846EAE700BF55
S2140136C00080005038B5104B0546D3F840320C4602
S2140136D003F00303022B0BD0032B0DD0012B0FD1CC
S2140136E0FFF72AFE092305B1286004B1236038BD1F
S2140136F0FFF728FE0823F6E7FFF721FE0B23F2E784
S21401370000231846EFE700BF0080005038B5104B85
S2140137100546D3F860310C4603F00303022B0BD0A9
S214013720032B0DD0012B0FD1FFF706FE092305B1A0
S214013730286004B1236038BDFFF704FE0823F6E7CE
S214013740FFF7FDFD0B23F2E700231846EFE700BF66
S214013750008000500D4B10B4D3F820320A4603F017
S2140137600303012B0AD0022B0CD008B100230360FF
S2140137700AB1002313605DF8044B70475DF8044BF3
S214013780FFF7DABE5DF8044BFFF74EBF008000502E
S214013790B0F5007F18D005D880B1B0F5C07F0DD048
S2140137A000200FE0B0F5207F14D0B0F5607FF7D190
S2140137B00B4BD3F88000C0F3011003E0084B186FE1
S2140137C0C0F3033001307047054BD3F89000C0F3C7
S2140137D00460F7E7024B186FC0F38020F2E700BFE2
S2140137E000800050014641F268034FF400300E4A53
S2140137F010B5D0500020FFF7CBFF41F67132484399
S2140138000A490B4B88428CBF4FF480100020DC69BC
S214013810DA639A6822F4401202439A60E20344BFD4
S2140138200022DA6310BD00BF00800050005A620219
S2140138300000035008B5FFF75FFDBDE80840002112
S214013840FFF7D0BF430910B507D0012B0FD00A4CA4
S2140138500A4A022B14BF2346134600F01F0041B14B
S21401386003F58053012202FA00F0186010BD044BE4
S214013870F3E703F50053F5E76082005068800050D7
S214013880648000501FB500233E280446019300F0D3
S214013890C18042D82B2828D01FD8232813D00CD873
S2140138A0202849D004D8002846D0019804B010BD7D
S2140138B0212808D022283FD0F7E7292800F2908057
S2140138C02828C0F08380FFF705FD02464FF42070DC
S2140138D0FFF75EFFB2FBF0F071E0312810D82F2819
S2140138E0F1D22D2800F0918056D9FFF7F3FC02465D
S2140138F04FF42070FFF74CFFB2FBF0F040085EE09B
S2140139003C2855D83A28DED2382864D03928CCD17C
S214013910002101A8FFF756FEC7E7B0F5007F50D09B
S2140139201BD8522852D00AD84D2805D002D83F2895
S214013930C9D0BAE74F28B8D3FFF7CCFC3FE08028C0
S2140139403BD004D8A0F16004012CF5D9ADE7B0F561
S214013950807F4AD0B0F5C07FADE7B0F5A06F3AD012
S21401396010D8B0F5607F2CD006D8B0F5207FAAD04D
S214013970B0F5407FB9D098E7B0F5806F26D0B0F5A6
S214013980906FC4E7B0F5D06F3FD00AD8B0F5B06FEE
S21401399026D0B0F5C06F88D1002101A8FFF744FEFC
S2140139A083E7B0F5E06F35D0B0F5F06F7FF47DAF0B
S2140139B0002101A8FFF7AAFE77E7FFF771FC019047
S2140139C073E7FFF76DFC0246204681E7002101A858
S2140139D0FFF7B2FD69E7002101A8FFF7BBFE64E728
S2140139E0002101A8FFF7CCFD5FE702930C4B1B6893
S2140139F05B0705D5FFF76EFC0290029B019354E727
S214013A0003A902A8FFF710FEF7E7002101A8FFF7B8
S214013A102FFE4AE7002101A8FFF754FE45E700BF45
S214013A2010E000E008B58020FFF72CFF044B984219
S214013A309FBF42F270034FF48031024AD15008BD55
S214013A40005A6202008000501FB50023B0F5807F47
S214013A50019374D02FD82D2800F0868010D82A28FC
S214013A603FD006D82438032830D9019805B05DF830
S214013A7004FB2C28F9D101A90020FFF7D5FDF4E7B6
S214013A803E283DD008D838287DD03D28EDD101A963
S214013A900020FFF73BFEE8E7522817D08028E4D144
S214013AA03B4B1B6F03F00703013B032BDDD8DFE81D
S214013AB003F044413F66B0F5C06FDCD016D8B0F5D0
S214013AC0906F4CD007D8B0F5806FCED101A90020F9
S214013AD0FFF732FDC9E7B0F5A06F54D0B0F5B06F6F
S214013AE0C3D101A90020FFF74BFDBEE7B0F5F06F8B
S214013AF0CDD00AD8B0F5D06F36D0B0F5E06FB4D1DE
S214013B0001A90020FFF7DEFDAFE7B0F5006F26D074
S214013B10B0F5086FA9D11E4BD3F8003103F00303AB
S214013B20022B26D0032B28D0012B2AD1FFF7E8FB46
S214013B30032300E00523019397E70223FBE70293A3
S214013B40144B1B685B0705D5FFF7C4FB0C230393D7
S214013B50039BF0E703A902A8FFF766FDF8E701A9B2
S214013B600020FFF72FFD80E701A90020FFF780FD69
S214013B707BE7FFF7E7FB0823DDE7FFF7D7FB072324
S214013B80D9E70123D7E701A90020FFF7E3FD6CE79A
S214013B900080005010E000E008B5FFF755FF082848
S214013BA005D001D30A2805D94FF6FF7001E0094B6D
S214013BB0188808BD41F264034FF40011064A4FF617
S214013BC0FF70D150054B5B6A13F0010F18BF4FF41D
S214013BD0FA70EEE74C0B00200080005000400250C7
S214013BE070B504468020FFF72FFF032800F08B8076
S214013BF041F264034FF40021484AD15045F60E03C2
S214013C0002F58042C2F88030022141F22803D150E9
S214013C1042F228030121D150916D11F48031FBD17C
S214013C20D4E900031B0543EA0063E07B0343207BE2
S214013C3043EA0043607B43EA0033A07B43EA8013F8
S214013C4013619069D4E904531B0643EA856300F0C7
S214013C5000400343A07E94F823500343207E43EAAA
S214013C600043607E43EA00239361136AE269E07EC3
S214013C70002A18BF082123F00D0343EA020343EA92
S214013C80800341EA030194F82020254B4FEA4216AF
S214013C90196294F8220037D1996A94F8212021F00C
S214013CA0330141F00101314341EA0211996219469B
S214013CB01C4A9E6D32EA0606FBD1022241F2280614
S214013CC09A511A658B6D5B00FCD40B69A26823F4CC
S214013CD0700343EA02530B614FF0004241F21803AE
S214013CE0CA5018B942F228030222CA5025B942F234
S214013CF0280301210A4AD15094F824301BB1084BFD
S214013D00094AC3F8802070BD9A6A22F033022A431A
S214013D10324342EA40029A62EEE700BF008000505A
S214013D2000C0005003000140F1A7FFFF014B93F9CB
S214013D3000007047AC150020F0B5D0E9014241F211
S214013D4064034FF480071A4E41780578F7504FF414
S214013D50D156184B02275E6241F204064F299F5145
S214013D6042F204064FF0010728BF4F219F511E69FA
S214013D70F603FCD441EA052159611201417B42EA6E
S214013D8004220A43017B42EA41029A60C27B817B9C
S214013D90120142EA4112417C0A43017C42EA410295
S214013DA05A60827C12B16FF4D1525A62F0BD00BFE4
S214013DB00080005000000250014B1880704700BF81
S214013DC04C0B002008B54FF4001141F26403174A6A
S214013DD0D1500222164B5A609A6812F48032FBD1F7
S214013DE0012815D1FFF78CFA124B984215D003F52E
S214013DF0122303F5F863984213D00F4B00EB8002B1
S214013E00400AB3FBF0F0520A094BDA62012218634A
S214013E105A620022064B5A6008BD45F67A10074AD8
S214013E20F2E745F61A00064AEEE700BF00800050AA
S214013E300040025000F0490264666666D8B8050084
S214013E40BBCF05000029CCBF01210021FFF7CABC6A
S214013E5010B50446FFF7EEFC00F054F841F270038B
S214013E604FF480310C4A013CD150106F20F4704061
S214013E7040EA04301067FFF72DFA0446FFF74EFBC1
S214013E80C0F102012046FFF7DDFF00F041F8BDE872
S214013E901040FFF7C7BD00BF00800050B0F5007F9F
S214013EA01AD004D850B1B0F5C07F07D07047B0F52E
S214013EB0207F1CD0B0F5607F03D070470846FFF71F
S214013EC0C7BF0F4A0139D2F8803023F0300343EAE6
S214013ED00111C2F880107047094A0139D2F89030B2
S214013EE023F0F85343EA0161C2F890107047044A80
S214013EF00139136F23F4806343EA81211167704708
S214013F000080005002214FF42070FFF7C7BF000069
S214013F1008B54FF4C070FFF7B5FCBDE8084004498A
S214013F2088428CBF022101214FF42070FFF7B6BFF3
S214013F3080F0FA02B0F5807F70B50C4600F0F48090
S214013F4041D82D2800F03C8118D82A285ED003D805
S214013F502438032843D970BD2C28FCD1083C032CF7
S214013F608CBF0021A74BA84A98BF195DD2F84031F3
S214013F7023F003030B43C2F84031ECE73E285FD041
S214013F8014D8382800F02C813D28E4D1083C032CB5
S214013F908CBF00219D4B9C4A98BF195DD2F86031B9
S214013FA023F003030B43C2F86031D4E7522816D03E
S214013FB08028D0D18B1E052B00F2B380DFE803F0FA
S214013FC0AE9BB168B1ABB0F5C06FC7D02DD8B0F518
S214013FD0906F00F0E58012D8B0F5806FBBD1023C3F
S214013FE0032C8CBF00218A4B874A98BF195DD2F8F3
S214013FF0203123F003030B43C2F82031ABE7B0F5C1
S214014000A06F00F0ED80B0F5B06FA4D1022C03D004
S214014010A4F10F056C426C417B4AD2F8803123F043
S21401402003031C43C2F8804195E7B0F5F06FADD0AD
S21401403016D8B0F5D06F00F0C380B0F5E06F8AD126
S214014040083C032C8CBF0021724B6F4A98BF195D48
S214014050D2F8403223F003030B43C2F840327AE72A
S214014060B0F5006F00F09C80B0F5086F7FF473AF79
S214014070CC1E052C8CBF0021674B634A98BF195D87
S214014080D2F8003123F003030B43C2F8003162E794
S214014090002502260121022000F090F9FFF7CAFB55
S2140140A0FFF730FF4FF4803141F27003564AD1508A
S2140140B0136F23F0070333431367FFF70BF9064625
S2140140C0FFF72CFAC0F102013046FFF7BBFE0121D3
S2140140D0002000F0B3F9FFF71BFFFFF7A3FC002D4C
S2140140E07FF439AF032C7FF436AF42F22803012167
S2140140F04A4AD1502FE741F264034FF40021424A65
S2140141000326D15041F228020121444B9D6A995061
S214014110C5F34005BEE700250426BBE700250126BA
S214014120B8E700252E46B5E7A1F10804082C3FF6AE
S21401413012AF012303FA04F440F20B131C4218D108
S214014140E4067FF508AF4FF4803141F264022E4B4E
S21401415033485C6E9950026A22F001020262E20361
S2140141605CBF42F2640299502E4A136843F004037E
S21401417014E04FF4803141F26402234B28485C6E10
S2140141809950026A42F001020262E0035CBF42F209
S21401419064029950234A136823F004031360DAE695
S2140141A0023C052C8CBF00211F4B174A98BF195D96
S2140141B0D2F8243123F007030B43C2F82431CAE6B0
S2140141C0083C062C8CBF0021184B0F4A98BF195D7E
S2140141D0D2F8003223F007030B43C2F80032BAE6E6
S2140141E00F2C0CD0102C0CBF02210021064AD2F84D
S2140141F0203223F003030B43C2F82032ABE6012141
S214014200F4E700BFA0E1030000800050A0E1030036
S2140142109CE10300A0E10300B1E1030000C00050EF
S21401422000C0075010E000E0A4E10300AAE103008B
S214014230EFF3108072B6704700B962B67047EFF3BD
S2140142401180302383F31188704780F311887047FB
S21401425010B5234B70B9186041F264014FF4003079
S214014260204A505020494968012902D1D2F800213C
S2140142701A6010BD1B68002BFBD01B4C6268012A1C
S214014280F7D0184A8020C2F80031FFF7DDFB052879
S21401429020D14FF4C070FFF77BFA0128044604D101
S2140142A002214FF4C070FFF7F9FD42F21002072118
S2140142B00D4B995041F20402012199501A69D20717
S2140142C0FCD5012CD5D12146BDE810404FF4C07075
S2140142D0FFF7E4BD41F204030122E250C9E700BF43
S2140142E0B01500200080005000C00150044A4178FB
S2140142F0536F23F4407343EA01235367704700BFAB
S214014300004000507047704710B5044610B10020B9
S214014310FFF79EFF0E4A136943F00403136101F091
S214014320FFFDFFF7EFFFFFF783FF29F021FCFFF703
S21401433083FFFFF7E8FF01F007FE24B1BDE8104058
S2140143400120FFF785BFBDE81040FEF7C3BF00BFE1
S21401435000ED00E010B5044610B10020FFF778FF2D
S2140143600C4A136943F00403136101F0D9FDFFF70A
S2140143705FFF29F0FDFBFFF75FFF01F0E5FD24B1CC
S214014380BDE810400120FFF763BFBDE81040FEF70F
S214014390A1BF00BF00ED00E00020FFF759BF0120DC
S2140143A0FFF756BF034A0179D36E23F030030B4360
S2140143B0D36670470040005070470000F8B50446C9
S2140143C01C4A1368D806FCD41B4DD5F88430C3F3B9
S2140143D081139C422DD0FEF763FF012C064602D1C5
S2140143E02146FFF72FFDFFF723FF42F264034FF04C
S2140143F000720746EA502046FFF7DEFF4FF480635F
S214014400621E93402B670C4B5A6E910103D4D3F86E
S214014410842092060AD53846FFF70EFF022C08D1F3
S2140144203046BDE8F8400021FFF70CBDD3F88420E4
S214014430EAE7F8BD844000500040005010B50C4635
S21401444008B9FEF72DFF074B21461B783BB1064BFB
S214014450984204D80120BDE81040FFF7AFBF022004
S214014460F9E700BFB4150020005A62020278034B38
S214014470012100201A70FFF7E1BF00BFB41500202C
S21401448041F264034FF00041184A10B5D1500121A2
S21401449041F204024AF6CD34154B99505A6C1C640D
S2140144A00A4098B99868C40705D542F20800195021
S2140144B0D96AC807FCD542F204010120585012B14E
S2140144C00B4B0C4A1A6421F02DFC10BDD96A090762
S2140144D0FCD442F224012020585041F20801012068
S2140144E0585003494B6A9B06FCD5E8E7008000500C
S2140144F0004009503254FFFF38B54FF0004141F2F9
S2140145006403194A194CD150012241F20403E250C6
S2140145104AF6CD33656C23644378154093401343C4
S214014520134AD363A368827823F0740343EA021321
S214014530C278002A14BF042200221343A360027922
S214014540837943EA022323614279C379007843EAF7
S21401455002236361FFF794FF0DB1064B236421F03C
S214014560E1FB012038BD00BF00800050004009502B
S214014570004000503254FFFF70B5054614460E4603
S214014580FFF756FE2A68544004EA060151402960A6
S214014590BDE87040FFF750BEF8B504460D461E460E
S2140145A017464AB1012230238A401A4903FB0013F9
S2140145B0FEB141F210015A5004EB4403072D4FEAB5
S2140145C0031319D80F20A90007FA01F200FA01F126
S2140145D011481844FFF7D0FF57B9012303FA05F530
S2140145E030230C4A03FB04248EB141F21003E5503C
S2140145F0F8BD42F21001DEE70F2005F180410839CF
S214014600890007FA01F200FA01F10448E1E742F2F3
S2140146101003ECE700C0035004C003500CC0035065
S21401462041F268034FF40031054AD15041F6713228
S214014630044B0121DA6342F20C029950704700BF25
S214014640008000500000035041F67132074B0121F3
S214014650DA6342F20C02995000224FF40031DA6319
S21401466042F26803024AD150704700BF000003506F
S214014670008000504FF0B0435A6812B19A6A002A7F
S214014680FAD17047CB784A7810B55B010C7843EACB
S21401469082030A79234343EA02130C22424302F1BE
S2140146A0B0421363012C02BF8A78024B43F82020E4
S2140146B010BD00BFE880035008B54FF0B0435A68FC
S2140146C002B960B15B680BB1FFF7D4FF4FF0B041A0
S2140146D030B10120074B1860FFF7CCFFC86008BD5A
S2140146E0FFF7C8FF0223CB60FFF7C4FF0122024B8E
S2140146F01A60F4E704100058042000584FF0B04345
S2140147005B6870B50BB1FFF7B5FF0121104B067959
S214014710196083784578002BC37814BF02240024DF
S214014720002B14BF042200224379DB0043EA061360
S2140147302B43234313434FF0B0429360054B19605C
S2140147400378002B14BF0B460223D36070BD00BF55
S214014750042000580410005841F264034FF48031DD
S214014760064AD150064B5B69C3F38512827003F08B
S2140147703F021B0B42700370704700BF0080005061
S21401478000C0075070B5054616461C4621B94FF4C1
S2140147902070FFF777F80146202C08D001D8E4B145
S2140147A070BD402C17D0602CFAD1042300E00823FA
S2140147B073435A0802EB4112B2FBF3F2084B203A5C
S2140147C003EAC202AB6823F06003AB60AB681C432C
S2140147D0AC60EA61E4E70623EAE71023E8E700BFF6
S2140147E0F8FF7F0038B50546144621B94FF420700E
S2140147F0FFF748F8014601396400B1FBF4F10902FC
S214014800E96138BD012241F20403C250CB43934013
S21401481003F00A034361416111B942F20403C25035
S2140148207047000041F204030122C25040F6AA6319
S21401483041F20502436100238360C365C26042F210
S21401484048020C490361C361C36481500A4A836507
S214014850904202D00949884207D19042036502D0AE
S214014860064B984201D10023436542F2040301221C
S214014870C2507047FFFF010000C0055000000650FF
S21401488038B50D460446FFF7CDFF41F20403012279
S214014890C250AB7C1BB1836843F080438360EB7CE2
S2140148A05BB1354A2B7D944249D1A2F51032C2F84C
S2140148B08C31E36D43F08003E3652A8A6B7B2046E7
S2140148C01343EA891343E360D5E901122B7BFFF713
S2140148D059FF6B7D1BB1A36843F48033A360AB7DA6
S2140148E01BB1A36843F40043A360EB7D2A7E1B073C
S2140148F0120502F4E00203F0E043697E1343A36568
S2140149008B1E012B1C4A1D4B23D894421FD002F547
S214014910804294420CBF01224FF0FF3203EB421358
S214014920022041F21C62032998500CBF41F25C033D
S21401493042F25C030422E2502B78636138BD104AD0
S214014940944204BFA2F52032C2F89C31B1E700229E
S214014950E4E794420DD00A4A94420CBF01224FF07C
S214014960FF3203EB4213022042F21C6201299850E7
S214014970DBE70022F5E700BF00C0055000C003508A
S2140149800000065038B50D460446FFF74BFF41F2CE
S21401499004030122A97BC2502A8A8368002942F0B7
S2140149A0010214BF4FF48061002113432A7D0B439B
S2140149B0002A14BF4FF0005200228360836813431D
S2140149C08360AB7C5BB11D4AEB7C90422DD1A2F596
S2140149D01032C2F88C31E36D43F08003E3652B7B24
S2140149E0D5E9011243F48053E3602046FFF7FAFE4F
S2140149F06B7B0BB1102363616B7D1BB1A36843F422
S214014A008033A360AB7D1BB1A36843F40043A3606E
S214014A10EB7D2A7E1B07120503F0E04302F4E00259
S214014A201343A3652B78636138BD054A904204BFE2
S214014A30A2F52032C2F89C31CDE700BF00C0055078
S214014A400000065083691B06FCD5406AC0B2704759
S214014A5083695A06FCD5C16383699B06FCD5406A07
S214014A60C0B2704783695B06FCD5C163704700001E
S214014A7038B50446054D21F07BF90FCC0FC594E8F7
S214014A80030085E80300002038BD00BFB8150020EC
S214014A9047F6FF739A42F0B564D0022964D8334BC7
S214014AA0CE0013F8311098190129847813D1002506
S214014AB0C3781B1BAB4202D8E018C0B2F0BD591B2D
S214014AC04668A3EB510136F911609642CCBF01F15D
S214014AD0FF330D46EEE740680028EFD0B0F90050EE
S214014AE0954204DBB0F902509542B8BF154682885C
S214014AF03344FF2A19BFC8214FF0280CB0F906101D
S214014B00B0F908C0A1EB05020CBF0127002792FBF4
S214014B10FCF25E783A44731E9A4228BF1A464FF456
S214014B207A7E00EBC2039F68D9889C4615FB01710B
S214014B30571C21EAE17101F5FA71BE42B1FBFEF1A3
S214014B4004D9BCF80CC008338C4509D200EBC2006E
S214014B508088884228BF0846A04238BF2046ACE776
S214014B603A46E0E7FF20A9E70020A7E7B8150020AE
S214014B700229F0B551D82A4800EBC10310F83110CC
S214014B805C6801290FD1D9789B78914294BFC3EB19
S214014B900102C3EB0202C91AD2B28A42C8BF00227E
S214014BA034F91200F0BD002C37D09978914202D327
S214014BB0B4F90200F6E7D978B4F900009142F1D9C8
S214014BC05D78A388013DA3F1FF06734204F1040159
S214014BD0EDB2734197B2DEB2B5424FEAC30606D9CB
S214014BE001EB060CBCF808C00133BC45F3D24FF408
S214014BF07A735A4331444B68B1F90250D21A0223F0
S214014C0095FBF3F31A4492FBF5F29042CADBB4F932
S214014C1002009042C6DC10B2C4E70248C2E700BFF9
S214014C20B81500200080FFFF08B50448FFF720FFF5
S214014C30BDE80840012021F09DB800BFB8E103009F
S214014C40004870474E0B00207FB51422002101A8B2
S214014C5027F0D1FF02230B4A8DF80430029204227A
S214014C608DF80D308DF8133005230DEB02014FF052
S214014C70FF308DF80E208DF8143021F0E1F807B0E2
S214014C805DF804FB006A180007B56B46054A106814
S214014C90516803C36846FFF72FFC002003B05DF898
S214014CA004FB00BF3CE2030013B50024064A684635
S214014CB0536F43F00103536700948DF80440FFF7E8
S214014CC071FB204602B010BD0040005030B58BB0DD
S214014CD06C46154D0FCD0FC40FCD0FC495E80300DC
S214014CE084E80300114BD3F84C21120314D4D3F8F3
S214014CF05041E4B28DF81940FFF718F8204480F3CC
S214014D0008008DF818000A48FEF700FB6846FEF713
S214014D1067FF00200BB030BD4FF6FF70054B1C88B7
S214014D20844208BF7824E5E744E203000080E00FF0
S214014D3000F049020001E00F08B50120FFF742F834
S214014D40002008BD30B5094D87B001AC0FCD0FC4AA
S214014D502B6801A8236025238DF80530FEF7ECFFAC
S214014D606420FFF729F8002007B030BD6CE203008D
S214014D706FF00402502110B50A480B4C12F0800F58
S214014D80D3B21BBF03F00F03043BA3181B1802F199
S214014D9001020CBF83F800131976402AEED10020D9
S214014DA010BD00BF00ED00E000E100E000F078B8C3
S214014DB038B501F03FFA0446D8B901F037FB4FF495
S214014DC0167358430C4B00F5742000F23F20B0FBDD
S214014DD0F3F02246094B0A4D18600A4B196845F84C
S214014DE0220001320A2AFAD100EBC002084410441C
S214014DF01860204638BD00BF40420F000C16002048
S214014E00DC150020D8150020012208B5034B1A70C6
S214014E1001F000FB024B186008BD00BFD41500204E
S214014E2008160020F8B5144C23781BB301F0F2FAEB
S214014E30124B134D1B68134EC01A08BF0120124BAC
S214014E40124F18602B7856F8232046F82300111AC3
S214014E503A680F48521A0A213A600932B2FBF1F257
S214014E600133DBB20260B3FBF1F201FB12332B70AC
S214014E7000232370F8BD00BFD415002008160020BB
S214014E8004160020DC150020D0150020D8150020BF
S214014E900C160020014B1868704700BF0C16002046
S214014EA020230D494FF4002081F82C3341F264038E
S214014EB00A4AD05042F27400094B0A4A1A5042F28A
S214014EC070001A504FF48050C1F88401486041F2D6
S214014ED074015A50704700BF00E100E000800050A6
S214014EE000C00050010000A0044B9A6DD20702D406
S214014EF00028FAD170470120704700BF00C000505B
S214014F000E4B10B51C6FE20707D542F27002012165
S214014F109950FFF787FF00F03DFF14F000511EBFC8
S214014F2042F27003054AD150002CBFBF42F2700313
S214014F304FF00041014AD15010BD00BF00C00050E3
S214014F40FFF7DEBF10B50446FFF772F9024B1C608F
S214014F50FFF772F9002010BD1016002010B5FFF7FC
S214014F6067F9034B1C68FFF767F9204610BD00BFC1
S214014F701016002070B50C46154610B9FFF7EEFF67
S214014F8038B143682BB12A462146BDE87040006817
S214014F901847232070BDF7B50E4617461C4638B98C
S214014FA0FFF7DCFF04B901AC20B9232003B0F0BD44
S214014FB003B901AC8568002DF7D023463A46314641
S214014FC00068A847F2E70EB477B507AB53F8046B51
S214014FD005460193B0B9FFF7C1FF044605463046C2
S214014FE0019927F083FFAC42064602D02046FFF720
S214014FF0A9FF002ED4BF3720002003B0BDE87040C3
S21401500003B07047FFF7AAFF85420446E7D028465B
S214015010FFF798FFE3E700207047FEE74FF40053E1
S21401502000204B607047012070470020704707B58D
S214015030002002AB43F8040DFFF7ADFF01980028EE
S21401504008BF4FF0FF3003B05DF804FB10B51446FF
S2140150500020FFF78FFF204610BD0000034B022201
S214015060186800238068194627F094BE640C002057
S21401507080F82410704790F82400704790F82B00B1
S21401508070472DE9F843044617460D4690F824600C
S214015090FFF7D5F894F82A2003469AB1FFF7D5F81A
S2140150A094F82D90FFF7C4F880460121484600F099
S2140150B095FC4046FFF7C0F8FFF7C1F8002203460B
S2140150C084F82A201846FFF7C0F82F44A6B1012617
S2140150D0BD4214D094F82630002BF9D02B780A2B39
S2140150E003D123680D2120469847236815F8011B34
S2140150F0204698470646EBE70126AF4204D163688F
S2140151000121204698470BE094F82630002BF4D076
S214015110236815F8011B2046984706460028ECD060
S2140151203046BDE8F88308B5FFF7ABFF002008BDA1
S2140151302DE9F3410026044690461D461E604F1E8B
S2140151402B68434505D2FFF77AF8A369BBB9FFF789
S2140151507CF894F8273053B9112302A901F8013DD0
S21401516001222046FFF78DFF012384F827302B68A4
S214015170002B0CBF1B20002002B0BDE8F081236984
S214015180E169CB5C07F8013F2369216A01338B4251
S2140151902361A36908BF2661013BA361FFF755F8A8
S2140151A0A368204698472B6801332B60C8E70000A8
S2140151B000280DDB0122430900F01F0002FA00F06F
S2140151C0044A203342F82300BFF34F8FBFF36F8F9B
S2140151D0704700BF00E100E0002809DB0122430917
S2140151E000F01F0002FA00F0024A603342F8230082
S2140151F0704700BF00E100E070B504460568FFF7A0
S214015200ADFE844202D10020FFF79CFE95F92800EE
S214015210FFF7E2FF95F92800FFF7CAFF95F9290085
S214015220FFF7DAFF95F92900FFF7C2FF00232846AA
S214015230C4E90033A360C4E90433EB68BDE87040F9
S214015240184790F82A3001223BB190F82E30022BF5
S21401525003D180F82E20184670471346FBE7F8B5B1
S214015260044690F82B300D4681B173B990F82C6046
S214015270FEF7DEFF05460121304600F0AFFB28466B
S214015280FEF7DAFF012384F82B30F8BD002BFCD0A3
S21401529090F82C70FEF7CCFF06462946384600F0FB
S2140152A09DFB3046FEF7C8FF84F82B50EDE7000063
S2140152B02DE9F0419846536806460C461546002BE4
S2140152C06ED09368002B6DD0012730220021204636
S2140152D027F091FC6B682046E361AB6823622B7B69
S2140152E084F82430AB7B84F8267084F82530069B3E
S2140152F084F827706360079BC4F80080A360089B4E
S214015300E3602B7884F828306B7884F82930264BB4
S21401531034607360254BB360254B3361254B736155
S214015320254BF360254B3362254B84F82E70B36111
S214015330244BF3619DF8283084F82D309DF82430F5
S214015340697B84F82C30002384F82A7084F82B308B
S214015350FFF785FF95F90100FFF73EFF95F901304C
S214015360002B06DB5A0903F01F039F40164B43F838
S214015370227095F90000FFF72FFF95F90030002BFA
S21401538008DB0122590903F01F0302FA03F30E4A50
S21401539042F821303046FFF7D5FD0020BDE8F08108
S2140153A02220FBE72120F9E72751010031510100B6
S2140153B07150010077500100F9510100435201007C
S2140153C05F5201007D50010000E100E010B5044687
S2140153D0FEF735FFA269236A9A4203D2FEF735FF2C
S2140153E0012010BDFEF731FF0020FAE737B504466D
S2140153F00D4600E000BFFEF722FF94F82530014677
S21401540063B1132D06D1002384F82630FEF71DFF65
S21401541003B030BD112D01D10123F5E76369E269BF
S2140154200846D554A26963690132A261226A013332
S2140154309342636104BF00236361FEF706FF042302
S214015440A26984F82E30236A9A42E1D1132302A975
S21401545001F8013D01222046FFF713FE002384F8E0
S2140154602730D5E7F8B590F82A30044603F0FF0553
S214015470A3B9436829469847012384F82A3094F84B
S2140154802D70FEF7D5FE06462946384600F0A6FAE8
S2140154903046FEF7D1FE022384F82E30F8BD026BAB
S2140154A0D36C43F00403D364704710B50446026B13
S2140154B093695906FCD5002394F839101A4694F8D6
S2140154C03800FFF769F8002394F83B101A4694F861
S2140154D03A00FFF761F894F84030DA0707D5002361
S2140154E094F83D101A4694F83C00FFF755F894F8E6
S2140154F040309B0707D5002394F83F101A4694F8CE
S2140155003E00FFF749F8206B0021FFF77BF9606B3F
S2140155100021FEF797F9002010BD08B5006BFFF7D4
S214015520A1FA002008BD036BDA6C19B142F0010242
S214015530DA64704722F00102DA64012142F248027D
S214015540995070472DE9F04101261C46594B86B00B
S2140155500293594B0C9D0193584B904600930A4673
S214015560CDE90366564B2946FFF7A2FE07460028FB
S2140155707AD1236831462B6363683A206B63637A7A
S21401558085F83930237A85F83830E37A85F83B3068
S214015590A37A85F83A30637B85F83D30237B85F81E
S2140155A03C30E37B85F83F30A37B85F83E30FEF741
S2140155B049F933460422617A207AFEF7EDFF334635
S2140155C00222E17AA07AFEF7E7FF31466068FEF72D
S2140155D039F9414688F800702068FFF751F914221E
S2140155E0237C5B0103F1A04303F57033C3F81C264B
S2140155F0617A227A42EA0142C3F83426E17AA27A33
S21401560042EA0142C3F82C2685F8407098F8193012
S214015610032B4CD8DFE803F01A022C4601230026A0
S21401562085F8403000230222617B207BFEF7B4FF21
S214015630637B227B217C42EA0342224B49015A507A
S21401564041F25C0304212268D150A6B9237A0521D0
S21401565085F83830637A85F839302068C36C43F0B2
S2140156600403C364FFF7CEF8384606B0BDE8F08100
S214015670022385F8403000230422E17BA07BFEF75D
S2140156808BFF022641F21C61227C0F4B03EB42107A
S2140156904650E07BA17BB13241EA004103EB421365
S2140156A09960D3E70323012685F84030BAE723271C
S2140156B0DAE700BFAB5401009F54010027550100F3
S2140156C01B55010024D6035000C00350036B10B5D0
S2140156D09B690446190609D5FFF778FEB0B1206B21
S2140156E0FFF7B0F901462046FFF780FE236B9A6C60
S2140156F0D20711D542F24802012199509B699B06B7
S2140157000AD52046BDE81040FFF7ACBE226BD36C2D
S21401571023F00403D364E9E710BD0000BFF35F8FF5
S214015720074A536A23F480335362D2F8943023F045
S2140157300103C2F89430BFF34F8FBFF36F8F7047EA
S21401574000ED00E070B5FFF7E9FF1F4C1F48204B46
S214015750844208BF4FF08042196B1CBF20F01F0225
S214015760203A21F0FF0141F0A001B2F1005F196378
S21401577009D3184D184E296842F00102996001318B
S214015780DE601A61296084420CD01248134A01680F
S21401579022F01F0242F003029960DA60104A0131DA
S2140157A01A610160BFF35F8F05225A600D4A536A82
S2140157B043F480335362BFF34F8FBFF36F8FBFF352
S2140157C04F8FBFF36F8F70BDA80E0020C80C00204E
S2140157D090ED00E01416002003000020C70E002004
S2140157E0E1FFFF3F00ED00E010B51446FFF796FF1E
S2140157F01F2C1A4B1ED91A6BC40622F47F4242F4A0
S214015800807218BF20F01F00154C1A6318BF203095
S214015810CA0618BF21F01F01226820F01F0021F0E0
S2140158201F019A6040F0030041F003010132D86085
S21401583019612260BFF35F8F05225A60094A536AD5
S21401584043F480335362BFF34F8FBFF36F8FBFF3C1
S2140158504F8FBFF36F8F002010BD00BF90ED00E0AB
S2140158601416002000ED00E0BFF34F8F0549064BEC
S214015870CA6802F4E0621343CB60BFF34F8F00BFE8
S214015880FDE700BF00ED00E00400FA0508B5FFF7EC
S214015890EBFF08BD034B1B78002B14BF0120022031
S2140158A0704700BF481600200329F8B598BF124B71
S2140158B006460F4694BF5C5C0024032805D8DFE843
S2140158C000F002080B0E44F002040C4B1D684DB9A3
S2140158D0F8BD44F00804F8E744F02004F5E744F086
S2140158E08004F2E76B681A68144203D05B68394695
S2140158F0304698472D68EAE780E203004416002008
S21401590038B5104C2278AAB10F4D2B781BB100F098
S21401591049FB00232B70002000F068FB0B4D50B1B3
S21401592000F06EFB0023012128782370FFF7BCFFEF
S21401593001232B7038BD0122054B1A702A78054BBE
S2140159401A70F7E7421600203D1600203416002094
S214015950411600205416002010B5FEF769FC064BD0
S21401596004461B781BB1BDE81040FEF765BCFFF787
S214015970C7FF2046F7E700BF3C16002070B5FEF7CC
S21401598057FC114D06462A788AB900F053FC0446A6
S21401599020B13046FEF750FC204670BD0B48FDF79F
S2140159A007FD0B4B1C6000F041FD0A4B186000F030
S2140159B039FA00F059FB084B0024186001233046E1
S2140159C02B70FEF739FCE7E73E1600204416002050
S2140159D0581600205016002038160020002914BF43
S2140159E00121FF212DE9F843264A00F1FF30135C1F
S2140159F00B4413543CD0244D2A78012A38D9FFF79A
S214015A0049FF0128064635D8FEF712FC1F4B07460C
S214015A101A78994612B31E4C23781BB901222270BC
S214015A201C4A1370DFF8708098F8003023B100F03C
S214015A30B9FA002388F800303846FEF7FDFB01204E
S214015A4000F0D4FAFEF7F4FB237807461BB100F00A
S214015A50D7FA00232370002389F800303846FEF772
S214015A60EBFB2878B04203D03146FFF71DFF2E70BE
S214015A70BDE8F883032AF4D10228F2D100F00EFB28
S214015A80EFE700BF4816002034160020421600201B
S214015A903C160020411600203D16002010B5044695
S214015AA0FEF7C6FB002C14BF0121FF21064A13781E
S214015AB00B44DBB21370B3FA83F3BDE81040034A1C
S214015AC05B091370FEF7B8BB4B1600204A16002080
S214015AD038B5FEF7ADFB094B05461B78012B04D8FC
S214015AE0FEF7AAFB0024204638BD054B1C6800F0D3
S214015AF0BFFA04442846FEF79FFBF4E7341600205D
S214015B005816002010B5FEF793FB0446FFF7F8FE83
S214015B102046BDE81040FEF78FBB000038B5416057
S214015B200446FEF785FB054621460448FDF743FC7F
S214015B302846BDE83840FEF77FBB00BF441600206C
S214015B40054B1B685843054B00F5742000F23F20B7
S214015B50B0FBF3F0704700BF5016002040420F0024
S214015B602DE9F04F85B0FEF763FB054600E000BF68
S214015B70FCF77CFF002800F0BB80DFF8EC91DFF833
S214015B80ECA14E4699F8003033B16C4A1378013BCC
S214015B901370002389F80030FFF77CFE684C694FCC
S214015BA0E0B10238012820D803A9002000F0FEFB4E
S214015BB08346D0B9644B039A1B689A4200F2A080D0
S214015BC05E4A1378013313702378012B03D93B788F
S214015BD00BB9FFF795FE0123337006E0337823B146
S214015BE0564A30701378013B1370FFF753FE0128B5
S214015BF0804604D9554B1B780BB900F08FF92078F5
S214015C00DFF86CB1404509D000238BF800303B78B3
S214015C1013B94146FFF748FE84F800809BF8003030
S214015C203BB12378022B04D100238BF8003020F0FF
S214015C30C3FDB8F1010F0FD9DFF8108198F80030D5
S214015C4053B9434B1B7823B900F0A6F90122414B07
S214015C501A70012388F80030207800F0EFF93B78BD
S214015C6013B13D4B1B78237000E000BF2846FEF7BA
S214015C70E3FAFEF7DDFA394B05461A7852B10022EF
S214015C801A70354A23781078984203D10121217081
S214015C90FFF70AFE504600F007FBFCF7F2FE8046CF
S214015CA000287FF46FAF294B8BF800001A789946CD
S214015CB082B13870274F3B781BB100F073F987F833
S214015CC00080002000F092F970B300F099F90023EB
S214015CD089F8003033782BB1184A1378013B1370DA
S214015CE00023337000212078FFF7DEFD00232370A8
S214015CF000E000BF2846FEF79FFA05B0BDE8F08F2A
S214015D00174BD3F8008000F0B3F90399404488425A
S214015D10BFF456AF0223091ACDE900B3114A5B4618
S214015D20504600F0E9FA60E7012000F087F92846BE
S214015D30FEF782FAFEF77CFA0546C2E7481600200F
S214015D403416002041160020381600204216002086
S214015D504B1600203D160020541600204016002049
S214015D6058160020595901004C160020181600201C
S214015D704A16002010B5FEF75BFA0022044B1C7889
S214015D801A70FEF759FA00F027FC2043C0B210BD86
S214015D903F160020094B10B51B786BB1084C2378D1
S214015DA053B100F02DF90023064A23701370012326
S214015DB0054A1370054A137010BD00BF3416002043
S214015DC041160020421600203F16002040160020F3
S214015DD07047000073B5114E04463278824212D0E5
S214015DE000238DF8043080B102238DF8053001A818
S214015DF0FEF77CFA0A4D402054B1FFF7A1FE2B684E
S214015E00181A2860347002B070BD8DF80500EEE7F0
S214015E10FFF796FE2B681844F3E700BF540B0020EB
S214015E2060160020F7B5002402A800F8044DFEF71E
S214015E301DFB4FF40025204641F26404FFF7CAFF1C
S214015E40304A314B116F01F007011960D2F8203149
S214015E50D2F8240115514FF40035155102F5A03240
S214015E609269032900F0070002F0020242D003F013
S214015E7003039C1E63426341022808BF43F00103EB
S214015E802249234C0B706AB31E4A3BB9D2F8003143
S214015E9003F00303581E434243410B70D2F800310E
S214015EA003F00303022B27D0032B28D0012B19D193
S214015EB0FDF726FAB0B10027164B0246DB68461EF0
S214015EC0C3F30B030133144803EB8301E0FB0167C3
S214015ED000233046394626F081FCFFF731FE236861
S214015EE0184420606420FFF72BFE236818442060C6
S214015EF003B0F0BD0123BFE7FDF724FADAE7FDF7AB
S214015F0015FAD7E700800050042900205E1600200D
S214015F106016002000C0015040420F00FEF73CBA58
S214015F20074B1A7852B100221A70064A136F23F0F3
S214015F30070343F001031367FDF7CCB9704700BFB1
S214015F405C16002000800050104B10B51B788BB1FA
S214015F50022000F0F5FB68B100F056FA50B10C4B88
S214015F609A6DD10307D5DA6D920704D541F228025E
S214015F700121995010BD0124064B1C70FEF744FF09
S214015F8041F22803024AD450F4E700BF5E1600200F
S214015F9000C000505D1600200122014B1A707047A8
S214015FA05C16002038B50E4B1B787BB10D4C227861
S214015FB09AB90D4B9A6D1D4612F4803F07D0DA6DE3
S214015FC0920704D541F228020121995038BDFEF707
S214015FD01BFF41F228030122EA5000232370F5E754
S214015FE05E1600205D16002000C00050034B1B7893
S214015FF00BB1FEF779BF0120704700BF5E16002087
S21401600008B5FEF7CCF90A4A0A49136F096823F066
S21401601007030B431367084B1B782BB142F2280387
S214016020012102F58042D150BDE80840FDF752B982
S21401603000800050042900205E16002002280AD0A5
S21401604003280BD001280CD1064A136923F0040358
S214016050136130BF70470020FEF756B90020FEF7E7
S21401606079B9704700ED00E04FF4C870FFF768BDDE
S21401607008B5054B187818B1FEF70CFF00EBD000F9
S214016080024B1B68184408BD5E16002060160020EF
S2140160900122014B1A7070475E16002070470000FF
S2140160A038B500F0E7FA0025094B0A4C1A68236850
S2140160B0C31A02B10BB9206038BD5169994225BF98
S2140160C0CB1A53615561002338BF5B1A9268F0E71B
S2140160D07C16002068160020C38870B504460D465D
S2140160E03BB9FFF7F5FC8542064602D2FFF70AFDEB
S2140160F03546104A656113681046ABB91460A36053
S21401610011E06D1A996865611A4679B10B465969AD
S214016110A942F6D90029F4D052B19460A36013B114
S2140161205969491B596170BD0022F0E70B46F4E737
S2140161300460F3E77C16002038B5134C22685269D8
S21401614092B1124B02201D68154400F0CDFA284684
S21401615000F098FA00230E4922680B70D088800759
S21401616009D501230B7038BD022000F0BDFA0220CC
S21401617000F0DEFAEEE79268002AF4D05069034494
S214016180012BEBD9EFE700BF7C1600206816002034
S2140161907016002070B516469DF81420C0E9033627
S2140161A00271049ABDF8183002600022C380826032
S2140161B004460D4600F05EFA3044A0613DB9E3683E
S2140161C0656113B121682046984796B13546FEF7BA
S2140161D02FF80646FFF764FF29462046FFF77CFFA7
S2140161E0054B1B68A34201D1FFF7A6FF3046FEF719
S2140161F023F8002070BD00BF7C16002000210C4A49
S21401620013687BB183420AD1836879B18B60836856
S2140162101BB15A6941690A445A6100207047194600
S2140162209B68EEE70028EFD0022070471360EEE788
S2140162307C16002070B5FEF702F8144E0546347839
S214016240FCB9134B1C60134B1C60134B1C8000F0F5
S214016250CFF9012000F048FA00F09CFA0F4B0246F5
S214016260186020B92846FDF7F0FF232070BD2346AD
S2140162700B4840F2E73126F0B1FA0A4B18600123C9
S21401628033702846FDF7E1FF0020EFE76416002093
S2140162907C16002068160020721600207816002052
S2140162A018FCFFFF6C1600202DE9F0410546F8B1F9
S2140162B0FDF7BEFF0F4F0646FFF7F2FE2846D7F85A
S2140162C00080FFF79BFF044628B13046FDF7B4FF78
S2140162D02046BDE8F081A8453B6803D123B1FFF70E
S2140162E02BFFF2E7002BF0D1022000F009FAECE7D1
S2140162F02224EDE77C160020F0B50D4685B0164643
S2140163001F46044680B1FFF7CFFFBDF82C300022B0
S21401631002939DF828302946CDE90073204633467E
S214016320FFF738FF05B0F0BD2220FBE738B50C4675
S214016330054698B191B100230B70FDF780FF01214E
S214016340074B1B680BB122781AB1FDF77EFF0020C0
S21401635038BD9D420CBF21709B68F3E72220F7E70A
S2140163607C160020F0B51F46002387B00D46164662
S2140163708DF817300446A0B10DF11701FFF7D6FFCF
S2140163809DF817207AB9BDF83430294602939DF856
S21401639030302046CDE900733346FFF7FBFE07B0E9
S2140163A0F0BD2220FBE70320F9E70000F8B5074619
S2140163B00E46FDF744FF00240546114B1B6823B922
S2140163C02846FDF742FF1B2015E05A691444DA8877
S2140163D0BA4213D100F04EF90A4F3B68C01AA042E8
S2140163E00AD200F047F93B68C01A201A30602846E6
S2140163F0FDF72BFF0020F8BD0020F7E79B68DEE7DE
S2140164007C16002068160020014B1878704700BFE4
S2140164107016002038B5FDF712FF054600F02AF980
S21401642004462846FDF711FF204638BD014B186883
S214016430704700BF781600200C4BD0B51B680C4681
S214016440834210D340F2E7360027094B4FF47A72A5
S21401645019680023E1FB00673046394626F0BEF98D
S21401646020600020D0BD2120FCE700BF6C16002074
S21401647078160020104B10B51A68B2B14FF47A7333
S214016480A0FB0301531E134211D1B2FA82F2C2F1EC
S2140164901F02C2F12004A2F1200301FA04F420FA3B
S2140164A002F2224321FA03F31A43104610BD0023D9
S2140164B026F094F90246F8E778160020C2072DE97F
S2140164C0F04704460BD5414A138801339BB213802B
S2140164D0FFF7E6FD3E4B1B680BB1FFF72DFEA3074A
S2140164E071D5FDF7ACFE00260546B046FFF7D8FD90
S2140164F0DFF8DC90D9F800400CB1636993B1002253
S214016500344BB8F1010F1A7003D1022E08BF83F87D
S2140165100080002C46D0FFF70FFE2846BDE8F04766
S214016520FDF793BE23465A693AB91A792179914201
S21401653088BF1C469B68002BF5D12846FDF785FED3
S21401654025699DB300231F4600F094F82E46A169E5
S214016550451AEB17AE4277EB030329DA23690B449E
S214016560A361012322697AB173B9761BFDF767FE31
S214016570054631462046FFF7AFFDA3692269284646
S2140165801344A361FDF761FEE368E68808F101089C
S21401659013B1216820469847FDF751FE0546FFF7DF
S2140165A07FFDA7E7022000F0ABF8B6E7002216460B
S2140165B0FDF745FE82462046FFF720FE5046FDF7D2
S2140165C044FE0023CEE7BDE8F08700BF7216002028
S2140165D07C1600207416002010B5FDF730FE034B24
S2140165E01C78FDF732FE204610BD00BF7416002051
S2140165F01FB500241C4B012118689A88029053F895
S214016600060FADF80C201B7900903E208DF8043063
S214016610FDF718F902A88DF808408DF80C40FEF732
S2140166206DF8694601208DF80040FEF72BF84FF013
S214016630B04340F2FF319A6922F47F7222F00302DE
S2140166409A610A4A11609A6A12F00802FBD11A622C
S2140166500120FEF731F84FF48052054BC3F8802134
S2140166601A6004B010BD00BF84E203001420005875
S21401667000E100E04FF0B0439A6A1207FCD4186AB2
S2140166807047000010B50446FDF7D2FD4FF0B0424A
S214016690936A1907FCD4136A116C5269520604D422
S2140166A0CA1A032A01D899420ED1E21A022A98BFC1
S2140166B0DC1CB4F1FF3F38BF013C4FF0B0431C6413
S2140166C09A6942F040029A61FDF7B6FD054A1378D1
S2140166D03BB14FF0B041CB6B43F00203CB630023D9
S2140166E0137010BD550B002082074FF0B04200F02A
S2140166F00103916948BF43F040030B439361704720
S214016700830700F001020AD50121084B42F040023E
S21401671019704FF0B041CB6B23F00303CB634FF0FE
S214016720B0418B6923EA02038B617047550B002049
S214016730830742BF4022014B1A607047141000586D
S2140167404FF0B04301285B6904D0022805D1C3F39A
S2140167508010704703F0010070470020704700006A
S21401676010B5FDF76CFD4FF0B04304465B695A0661
S214016770074A03F0010003F0510348BF40F002004E
S2140167801360FFF79BFE2046BDE81040FDF75DBD98
S214016790142000583E20FDF775B808B5FCF79EF8A2
S2140167A0FCF7D6F8FCF7D5F8FCF7E8F8BDE80840A2
S2140167B0FCF7EDB808B5FCF7ECF8FCF7EBF8FCF7DE
S2140167C0EAF8BDE80840FCF7E8B8000010B5044652
S2140167D0FCF780FD4FF47A73B0FBF3F078B1084A0A
S2140167E0B2FBF0F25AB103FB04F00323B0FBF2F064
S2140167F0B0FBF3F018B1BDE8104000F009B810BDC9
S21401680040420F00000000000000000000000000F1
S214016810013800D0FCE77047FCF7B2BD08B504F0BC
S2140168202FF905F0D7FD0CF085F808F06CF809F0A3
S2140168308FFE0CF00DFEBDE8084008F032BA0000ED
S214016840024A0349034803F09DBD00BF90E20300DE
S214016850E4E20300BCE2030038B50446FDF7E8FCB9
S2140168600546204626F084F904462846FDF7E4FC52
S214016870204638BD70B504460E46FDF7D9FC3146B4
S2140168800546204626F034F904462846FDF7D4FC92
S214016890204670BD38B50546FDF7CAFC04462846B5
S2140168A026F06EF92046BDE83840FDF7C5BC00006D
S2140168B00A4619B1024B00211B681847704700BFF2
S2140168C0580B002000F4E040B0F5805F04D0A0F53E
S2140168D00053584258417047012070470E4B034001
S2140168E0B3F1607F06D1B1F5885F14BF6FF0860003
S2140168F000207047B3F1707F0BD101F4E043B3F58C
S214016900005F06D111F4E06F0CBF6FF08600002027
S21401691070476FF0860070470000C07F38B500F002
S214016920FE43B3F1407F04460D8802D06FF0860027
S21401693038BD2946FFF7D2FF0028F9D114F47C1F91
S21401694005D0C4F30543032B13700DD86BE04C4BF5
S2140169502340B3F1607F69D1E3B24A4943F0007343
S2140169608B4231D11023137045492140B1F1607F2C
S2140169706AD1E2B2434942F000728A4276D002F10D
S2140169807E410439012973D93F498A4272D00131C7
S2140169908A4271D001318A4270D001318A4211D0C7
S2140169A001318A4266D001318A4265D003318A427A
S2140169B060D001318A425FD001318A425ED0013116
S2140169C08A42B3D140214DE003F17E4104390129C9
S2140169D001D81423C7E72C498B4201D11C23C2E7F7
S2140169E02A498B4201D12023BDE729498B4201D197
S2140169F03023B8E727498B4201D14023B3E7264924
S214016A008B42EBD001318B42EDD003318B42E5D086
S214016A1001318B42E7D001318B42E9D001318B4203
S214016A20EBD0002313706FF0850081E7B3F1707F20
S214016A30F7D105F4E043B3F5005FF2D10123C5F3C6
S214016A4002218B40DBB27EE7B1F1707F7FF46EAF3F
S214016A5005F4E042B2F5005F7FF468AF0121C5F3AB
S214016A60022291408B427FF663AF5FE71021F9E780
S214016A701421F7E71C21F5E72021F3E73021F1E7A0
S214016A800000C07F030000020800000209000002A7
S214016A900A0000020B0000020C00000230B400F0F5
S214016AA0FE45B5F1106F0BD120F01F6424F470245D
S214016AB044F00064B4F1006F02D130BC01F091B82B
S214016AC06FF0850030BC70479D4B70B50D4622F0C7
S214016AD0FF019942064610D022F4FF73994823F02D
S214016AE00103834209D0984B994206D022F47F7362
S214016AF0964923F003038B4225D1914B25F0FF01E4
S214016B00994210D025F4FF738E4823F00103834287
S214016B1009D08D4B994206D025F47F738B4923F01B
S214016B2003038B420FD115F0FF030CD0884943F0C5
S214016B3000738B4207D182EA050030F0FF030CBFD9
S214016B400120002070BD05F0FE43B3F1A06F17D100
S214016B5002F0FE43B3F1A06F40F0E38082EA050342
S214016B6033F47E1340F0DD8015F40040EAD0C5F31F
S214016B700540C2F3054398428CBF00200120E1E79F
S214016B80B3F1407F40F0B48002F0FE43B3F1407FA2
S214016B9040F0C78082EA050030F47E1440F0C180E0
S214016BA031462846FFF79AFE002840F0BA80694928
S214016BB012F47C1301EA020138D0B1F1607FC2F30E
S214016BC0054378D1D0B2644940F00070884276D04F
S214016BD000F17E410439012973D96049884274D095
S214016BE00131884273D00131884272D00131884226
S214016BF069D00131884268D00131884267D00331BB
S214016C00884262D00131884261D00131884260D029
S214016C10013188420CBF40200020C5F30541002900
S214016C205BD1984214BF002001208BE7B1F1607F51
S214016C302BD1D3B2484943F000738B4273D003F192
S214016C407E410439012970D944498B4271D0013102
S214016C508B4270D001318B426FD001318B4266D0AE
S214016C6001318B4265D001318B4264D003318B42B6
S214016C705FD001318B425ED001318B425DD0384806
S214016C8083420CBF402300239CE7B1F1707F22D1E1
S214016C9006F4E041B1F5005F03D10123C6F30220FB
S214016CA0834006F4E041B1F5005F14D10120C6F33C
S214016CB00226B040B1E7B1F1707FAED1F1E7102006
S214016CC0ABE71420A9E74020A7E71C20A5E7202072
S214016CD0A3E73020A1E700209FE712F47C1F01D133
S214016CE081421CD015F400403FF42CAF994243E793
S214016CF0B3F1106F15D125F01F6323F4702343F011
S214016D000063B3F1006F0CD102F0FE43B3F1106FD4
S214016D1007D11448104040F01060A84282E70120D5
S214016D2010E700200EE710234CE714234AE7402320
S214016D3048E71C2346E7202344E7302342E700BF09
S214016D400013000600020006000900060004000603
S214016D50FF0000020000C07F0300000208000002DE
S214016D60130000020000FFF600232DE9F341D0E9ED
S214016D70016804460F4613601146304601F05CF880
S214016D80054690B9304601F059F8054668B916F03F
S214016D90FF0F0ED1B8F1000F05D1E36823F47F434E
S214016DA023F0030363B16FF08605284602B0BDE801
S214016DB0F0810146A06800F03DFF0028EDD1F2E722
S214016DC04FF6F87362889A421CD8238B23F001038E
S214016DD0002BE8D1394601A800F098FF05460028A7
S214016DE0E3D10FCC3F683E460FC694E807003B79D7
S214016DF086E807000BB9019BBB603B8B23F00103C0
S214016E003B83D2E76FF08505CFE738B503790446B3
S214016E100D4633B9A36820462B6001F003F838B954
S214016E2038BDD0E9081201F0C3F80028F2D0F7E720
S214016E3000232B60F4E700002DE9F8430F46914646
S214016E401C4600F0A1FF054600285ED13E68B6F854
S214016E50008008F4E043B3F5804FF36808BF29F0DB
S214016E60010939EA030349D1002C4ED0314B24F0F5
S214016E70FF029A4211D024F4FF732F4923F0010335
S214016E808B420AD02D4B9A4207D024F47F7323F00D
S214016E90030301F500718B423AD114F0FF0337D09A
S214016EA024498A4211D024F4FF71234821F00101BC
S214016EB081420AD021498A4207D024F47F7222F007
S214016EC00302A1F5A0618A4207D11D4A43F000736F
S214016ED0934214BF0023012300E0002333BB316932
S214016EE08C4212D022464046FFF7EEFD68B9716922
S214016EF08C420AD04046FFF7E7FD30B96FF08405B3
S214016F00002330463B6000F08DFF2846BDE8F8833D
S214016F1004F0FE43B3F1407F02D1C4F3C033DDE792
S214016F20B3F1A06FF9D0064B9C42D2E76FF086050D
S214016F30E6E700BF0013000600020006000900068F
S214016F40FF0000022DE9F04F924624220F46002151
S214016F50044693B00DEB02009B46DDE91C868DF8D6
S214016F601F10DDF8789025F046FE1F9B2046002B6B
S214016F7018BF4FF480623B4608BF4FF4006208A971
S214016F80FFF75AFF044610BB089D09AC0FCD0FC48E
S214016F9095E8070084E807000DF11F0209A93846A5
S214016FA0FFF7BCFC044690B99DF81F30B34225D8C4
S214016FB0CDE90339CDE901B80899CDF800A03B46E3
S214016FC0D1E9081209A800F0B9FD044620B1002352
S214016FD0C9F800608DF81F309DF81F00B04204D23A
S214016FE0321A2121404425F006FE089800F01AFFC7
S214016FF0002C18BF204613B0BDE8F08F6FF089044F
S214017000E5E7B0F5885F04D00AD841F2010398425B
S21401701016D111F0070F14BF6FF0860000207047DD
S214017020B0F5905FF5D0B0F5105F09D121F04003BF
S214017030802BEED0B1F5807FEBD06FF086007047E5
S2140170406FF08500704770B5046A05460E463CB978
S2140170500120FFF70FFC286228B120466E6270BD42
S2140170606FF08A00FBE76FF08C00F8E7F8B50F4683
S214017070114606461546FFF7E6FF044620B92A469E
S2140170803946306A25F093FD2046F8BD2DE9F041DA
S214017090089D88461F4604880AB32046FFF712FC5F
S2140170A0E8B12B680BB9D3002B602E682046314619
S2140170B0FFF7A7FF044678B90736B2EBD60F11D112
S2140170C0069B9A4211D84146384625F070FD2B683A
S2140170D0079A0733DB0813602046BDE8F0816FF09E
S2140170E08504F9E76FF08604F6E76FF08904F3E7A5
S2140170F010B50446006A10B1616AFFF7D9FB206A31
S214017100FFF7C8FB0020C4E9080010BD38B50446E7
S214017110FFF7EEFFE3692822012B0CBF05466FF04F
S21401712096050021204625F066FD284638BD08B1A3
S214017130FFF7ECBF704713B5044660B101A900F034
S21401714023FE044638B90198C369012B06D900F01D
S21401715069FE6FF08304204602B010BD0379FF2B51
S2140171600BD01BB1806800F07BFE04460198FFF748
S214017170CDFF002818BF0446EDE76FF08404F5E75D
S21401718073B5044608460E4600F0CCFB002301A961
S2140171901A462046FFF750FE70B93446019D0FCDC2
S2140171A00FC495E8070084E80700338B019803F0C5
S2140171B00103338300F036FE02B070BD70B514468D
S2140171C002881D461046049EFFF77CFB50B944F228
S2140171D0010322F44050984204D002F44F42B2F523
S2140171E0824F0ED1B4420FD82246284625F0DFFC46
S2140171F0321B0021281925F0FEFC0020059B1C608F
S21401720070BD6FF08500FBE76FF08900F8E72DE9A8
S214017210F04389468DB09846174622B300230122D3
S214017220C8F8003002A9FFF707FEC8B9029E03ACF2
S2140172303546CDE90A000FCD0FC495E8070084E86E
S2140172400700CDE900784B46D6E9081203A800F0FE
S21401725039FC0446029800F0E5FD002C18BF2046D4
S2140172600DB0BDE8F0836FF08900F9E770B51446FC
S214017270028844F2010022F440568642049D04D05E
S21401728002F44F40B0F5824F13D102F4E042B2F55A
S214017290804F0ED1AC420FD81846224625F087FC07
S2140172A02A1B0021204425F0A6FC0020059B1C601B
S2140172B070BD6FF08500FBE76FF08900F8E72DE9F8
S2140172C0F04389468DB09846174652B3002302A96B
S2140172D0C8F800301A46FFF7AFFDE0B9029E3388C2
S2140172E05B041BD5354603ACCDE90A000FCD0FC4B0
S2140172F095E8070084E80700CDE900784B46D6E913
S214017300081203A800F0EBFB0446029800F08AFD81
S214017310002C18BF20460DB0BDE8F0836FF0860440
S214017320F3E76FF08900F6E72DE9F0411F460023E9
S21401733088B0054688461646CDE9043307923B6079
S214017340002A5FD0B2F1005F5FD205AA04A9FFF759
S2140173500BFD044600283FD1049B1B6A002B31D04D
S214017360049B08AA5988284642F8081D029203F190
S214017370240201925A6A414600921B6A324600F084
S21401738079FB044640BB0498069B4288002A31D10B
S21401739043804FF6F872934231D82B8813B1028896
S2140173A09A4229D12B6A3BBB6B8813B142889A4219
S2140173B022D13946FFF729FD044668B9204608B0B0
S2140173C0BDE8F0816B681B0A0AD107990498FFF79C
S2140173D03AFE04460028C3D00498FFF7A8FEEDE75E
S2140173E007AB32464146284600F0CBFA0446002851
S2140173F0F2D1EAE79A42CCD06FF08604ECE76FF060
S2140174008504E9E76FF08604D8E76FF08504D5E7D1
S21401741038B503680446002543B100F0D9FB63790B
S214017420257165F300036371256038BD1846FCE7D6
S2140174302DE9F04106460C4600218CB0174603A8FC
S21401744024229846029125F0D6FB3368002B3CD1C6
S214017450B8F1000F20463B460CBF4FF400624FF4D4
S214017460806202A9FFF7E8FC0446F8B9029D03AC66
S2140174700FCD0FC495E8070084E80700321D03A965
S2140174803846FFF74BFA044680B9737903A968F3C7
S21401749000037371029B3046D3E908230097B8F1C5
S2140174A0000F0FD000F057FB044610B13046FFF72F
S2140174B0AFFF029800F0B6FC002C18BF20460CB0B7
S2140174C0BDE8F08100F05AFBEEE76FF08804EDE7C7
S2140174D00123FFF7ADBF38B50368054614464BB127
S2140174E032B100F05EFB044610B12846FFF790FF6C
S2140174F0204638BD6FF08804FAE72DE9F0411646BC
S214017500026805460F469846F2B14279D2071BD566
S2140175100279CAB1B2421AD800F04CFB044618B13F
S2140175200023C8F800602B712879B04204D2321AC1
S2140175302121384425F05FFB2846FFF769FF002C20
S21401754018BF2046BDE8F0816FF08804E8E76FF0C9
S2140175508904E5E71FB501240394089C0294079C5F
S2140175600194069C0094FFF7EDFC04B010BD0000EA
S21401757037B50C4D0C462B78DB0710D5002202AB35
S21401758043F8042D0A460146281D02F071FE20B973
S214017590019BA34218BF6FF0930003B030BD6FF09C
S2140175A08800FAE7801600202DE9F04F00249B465C
S2140175B001F0FE4397B0B3F1806F0E46DDE92098E7
S2140175C09246229F089478D10B464FF4807208A900
S2140175D0FFF732FC0546002852D1DDF820C00DAC7D
S2140175E06546CDE914000FCD0FC495E80700BCF839
S2140175F0003084E8070003F4E042B2F5005F12D1E0
S214017600C3F302227AB1304826F4807181422AD02F
S21401761000F50070864226D02C48864223D0A0F57D
S2140176203F4081421FD042F20402934202D1284BCE
S2140176309E4238D0274B9E4237D00024A8EB040345
S214017640059309EB0403CDE903B3CDE9014A089993
S21401765009AB009306973346D1E908120DA800F04E
S21401766060FA05460CE001249440102C1FD8A04572
S21401767020D3214609A8FFF77BFF05460028DDD069
S214017680089800F0CFFB0646D5B9D0B924B12246FA
S21401769009A9484625F08BFA3B681C443C603046F5
S2140176A017B0BDE8F08F0C24E1E70D24DFE76FF09B
S2140176B08305E5E76FF08905E2E76FF08605DFE70A
S2140176C02E4600233B60EAE70010C00400FF40049A
S2140176D0000180040013C0042DE9F04706469A46CF
S2140176E0002386B0059306F0FE43B3F1106F0846FB
S2140176F0DDE90E859146109F21D133464FF4804235
S21401770005A9FFF799FB044658B9CDE90157CDF80D
S214017710008053464A4605993046FFF7BFF90446AE
S21401772020B129464046FFF723FF3D60059800F04B
S21401773079FB002C18BF204606B0BDE8F0876FF035
S2140177408604EEE7034610B50C46D969008809B9E8
S2140177501B6A43B9FFF7B6F840B12046BDE81040B2
S2140177601146FFF705BF6FF0860010BD6FF085006C
S214017770FBE70023F0B585B0CDE901330B60438804
S21401778004460D46002B00F08A80038803F4E0438C
S214017790B3F5804F00F0838002AA01A9FFF7E4FA4F
S2140177A0064600BB019B1B6A73B10199204601F195
S2140177B02403D1E9081200F03FF90646002871D0EB
S2140177C00198FFF795FC0EE063681B0A5CD12788D9
S2140177D062883846FFF776F858B111463846FFF703
S2140177E010FC064650B10198FFF7A1FC304605B0E3
S2140177F0F0BD27F0FF03B3F5E24F4DD107F4E043A8
S214017800B3F5805F02D0B3F5005F02D10732D21024
S21401781009E047F201039F420ED152080132D2100D
S21401782002EBC2023B32039203990198FFF70BFC6D
S21401783006460028D7D1B8E744F201039F4202D199
S214017840D2081032EFE747F202039F4204D1D20872
S21401785002EB42025A32E6E744F202039F4204D1A7
S214017860D20802EB42024A32DDE727F0FF07B7F5FE
S214017870E24FCBD0B7F5824F01BF0732D21052008C
S214017880013218BF0022CEE703A9204600F07EF899
S21401789006460028A7D1C7E76FF08506A3E76FF075
S2140178A08606A3E729460198FFF7AFFA06460028A1
S2140178B09CD098E708B500F00FFA084B0C211A780F
